{
	"RentCar.sol": {
		"RentCar": {
			"abi": [
				{
					"inputs": [],
					"stateMutability": "nonpayable",
					"type": "constructor"
				},
				{
					"inputs": [
						{
							"internalType": "address payable",
							"name": "walletAddress",
							"type": "address"
						},
						{
							"internalType": "string",
							"name": "firstName",
							"type": "string"
						},
						{
							"internalType": "string",
							"name": "lastName",
							"type": "string"
						},
						{
							"internalType": "bool",
							"name": "canRent",
							"type": "bool"
						},
						{
							"internalType": "bool",
							"name": "active",
							"type": "bool"
						},
						{
							"internalType": "uint256",
							"name": "balance",
							"type": "uint256"
						},
						{
							"internalType": "uint256",
							"name": "due",
							"type": "uint256"
						},
						{
							"internalType": "uint256",
							"name": "start",
							"type": "uint256"
						},
						{
							"internalType": "uint256",
							"name": "end",
							"type": "uint256"
						}
					],
					"name": "addRenter",
					"outputs": [],
					"stateMutability": "nonpayable",
					"type": "function"
				},
				{
					"inputs": [],
					"name": "balanceOf",
					"outputs": [
						{
							"internalType": "uint256",
							"name": "",
							"type": "uint256"
						}
					],
					"stateMutability": "view",
					"type": "function"
				},
				{
					"inputs": [
						{
							"internalType": "address",
							"name": "walletAddress",
							"type": "address"
						}
					],
					"name": "balanceOfRenter",
					"outputs": [
						{
							"internalType": "uint256",
							"name": "",
							"type": "uint256"
						}
					],
					"stateMutability": "view",
					"type": "function"
				},
				{
					"inputs": [
						{
							"internalType": "address",
							"name": "walletAddress",
							"type": "address"
						}
					],
					"name": "canRentCar",
					"outputs": [
						{
							"internalType": "bool",
							"name": "",
							"type": "bool"
						}
					],
					"stateMutability": "view",
					"type": "function"
				},
				{
					"inputs": [
						{
							"internalType": "address",
							"name": "walletAddress",
							"type": "address"
						}
					],
					"name": "checkIn",
					"outputs": [],
					"stateMutability": "nonpayable",
					"type": "function"
				},
				{
					"inputs": [
						{
							"internalType": "address",
							"name": "walletAddress",
							"type": "address"
						}
					],
					"name": "checkOut",
					"outputs": [],
					"stateMutability": "nonpayable",
					"type": "function"
				},
				{
					"inputs": [
						{
							"internalType": "address",
							"name": "walletAddress",
							"type": "address"
						}
					],
					"name": "deposit",
					"outputs": [],
					"stateMutability": "payable",
					"type": "function"
				},
				{
					"inputs": [
						{
							"internalType": "address",
							"name": "walletAddress",
							"type": "address"
						}
					],
					"name": "getTotalDuration",
					"outputs": [
						{
							"internalType": "uint256",
							"name": "",
							"type": "uint256"
						}
					],
					"stateMutability": "view",
					"type": "function"
				},
				{
					"inputs": [
						{
							"internalType": "address",
							"name": "walletAddress",
							"type": "address"
						}
					],
					"name": "makePayment",
					"outputs": [],
					"stateMutability": "payable",
					"type": "function"
				},
				{
					"inputs": [
						{
							"internalType": "address",
							"name": "",
							"type": "address"
						}
					],
					"name": "renters",
					"outputs": [
						{
							"internalType": "address payable",
							"name": "walletAddress",
							"type": "address"
						},
						{
							"internalType": "string",
							"name": "firstName",
							"type": "string"
						},
						{
							"internalType": "string",
							"name": "lastName",
							"type": "string"
						},
						{
							"internalType": "bool",
							"name": "canRent",
							"type": "bool"
						},
						{
							"internalType": "bool",
							"name": "active",
							"type": "bool"
						},
						{
							"internalType": "uint256",
							"name": "balance",
							"type": "uint256"
						},
						{
							"internalType": "uint256",
							"name": "due",
							"type": "uint256"
						},
						{
							"internalType": "uint256",
							"name": "start",
							"type": "uint256"
						},
						{
							"internalType": "uint256",
							"name": "end",
							"type": "uint256"
						}
					],
					"stateMutability": "view",
					"type": "function"
				}
			],
			"devdoc": {
				"kind": "dev",
				"methods": {},
				"version": 1
			},
			"evm": {
				"assembly": "    /* \"RentCar.sol\":63:3527  contract RentCar {... */\n  mstore(0x40, 0x80)\n    /* \"RentCar.sol\":111:162  constructor() {... */\n  callvalue\n  dup1\n  iszero\n  tag_1\n  jumpi\n  0x00\n  dup1\n  revert\ntag_1:\n  pop\n    /* \"RentCar.sol\":144:154  msg.sender */\n  caller\n    /* \"RentCar.sol\":136:141  owner */\n  0x00\n  dup1\n    /* \"RentCar.sol\":136:154  owner = msg.sender */\n  0x0100\n  exp\n  dup2\n  sload\n  dup2\n  0xffffffffffffffffffffffffffffffffffffffff\n  mul\n  not\n  and\n  swap1\n  dup4\n  0xffffffffffffffffffffffffffffffffffffffff\n  and\n  mul\n  or\n  swap1\n  sstore\n  pop\n    /* \"RentCar.sol\":63:3527  contract RentCar {... */\n  dataSize(sub_0)\n  dup1\n  dataOffset(sub_0)\n  0x00\n  codecopy\n  0x00\n  return\nstop\n\nsub_0: assembly {\n        /* \"RentCar.sol\":63:3527  contract RentCar {... */\n      mstore(0x40, 0x80)\n      jumpi(tag_1, lt(calldatasize, 0x04))\n      shr(0xe0, calldataload(0x00))\n      dup1\n      0x8d23caa0\n      gt\n      tag_12\n      jumpi\n      dup1\n      0x8d23caa0\n      eq\n      tag_7\n      jumpi\n      dup1\n      0xaad1b617\n      eq\n      tag_8\n      jumpi\n      dup1\n      0xaf6143d3\n      eq\n      tag_9\n      jumpi\n      dup1\n      0xd9a59e33\n      eq\n      tag_10\n      jumpi\n      dup1\n      0xf340fa01\n      eq\n      tag_11\n      jumpi\n      jump(tag_1)\n    tag_12:\n      dup1\n      0x300be4fc\n      eq\n      tag_2\n      jumpi\n      dup1\n      0x41ba6e89\n      eq\n      tag_3\n      jumpi\n      dup1\n      0x5e649727\n      eq\n      tag_4\n      jumpi\n      dup1\n      0x644a1370\n      eq\n      tag_5\n      jumpi\n      dup1\n      0x722713f7\n      eq\n      tag_6\n      jumpi\n    tag_1:\n      0x00\n      dup1\n      revert\n        /* \"RentCar.sol\":2997:3522  function makePayment(address walletAddress) payable public {... */\n    tag_2:\n      tag_13\n      0x04\n      dup1\n      calldatasize\n      sub\n      dup2\n      add\n      swap1\n      tag_14\n      swap2\n      swap1\n      tag_15\n      jump\t// in\n    tag_14:\n      tag_16\n      jump\t// in\n    tag_13:\n      stop\n        /* \"RentCar.sol\":1723:2080  function getTotalDuration(address walletAddress) public view returns(uint) {... */\n    tag_3:\n      callvalue\n      dup1\n      iszero\n      tag_17\n      jumpi\n      0x00\n      dup1\n      revert\n    tag_17:\n      pop\n      tag_18\n      0x04\n      dup1\n      calldatasize\n      sub\n      dup2\n      add\n      swap1\n      tag_19\n      swap2\n      swap1\n      tag_15\n      jump\t// in\n    tag_19:\n      tag_20\n      jump\t// in\n    tag_18:\n      mload(0x40)\n      tag_21\n      swap2\n      swap1\n      tag_22\n      jump\t// in\n    tag_21:\n      mload(0x40)\n      dup1\n      swap2\n      sub\n      swap1\n      return\n        /* \"RentCar.sol\":514:822  function addRenter(address payable walletAddress, string memory firstName, string memory lastName, bool canRent, bool active, uint balance, uint due, uint start, uint end) public {... */\n    tag_4:\n      callvalue\n      dup1\n      iszero\n      tag_23\n      jumpi\n      0x00\n      dup1\n      revert\n    tag_23:\n      pop\n      tag_24\n      0x04\n      dup1\n      calldatasize\n      sub\n      dup2\n      add\n      swap1\n      tag_25\n      swap2\n      swap1\n      tag_26\n      jump\t// in\n    tag_25:\n      tag_27\n      jump\t// in\n    tag_24:\n      stop\n        /* \"RentCar.sol\":463:505  mapping (address => Renter) public renters */\n    tag_5:\n      callvalue\n      dup1\n      iszero\n      tag_28\n      jumpi\n      0x00\n      dup1\n      revert\n    tag_28:\n      pop\n      tag_29\n      0x04\n      dup1\n      calldatasize\n      sub\n      dup2\n      add\n      swap1\n      tag_30\n      swap2\n      swap1\n      tag_15\n      jump\t// in\n    tag_30:\n      tag_31\n      jump\t// in\n    tag_29:\n      mload(0x40)\n      tag_32\n      swap10\n      swap9\n      swap8\n      swap7\n      swap6\n      swap5\n      swap4\n      swap3\n      swap2\n      swap1\n      tag_33\n      jump\t// in\n    tag_32:\n      mload(0x40)\n      dup1\n      swap2\n      sub\n      swap1\n      return\n        /* \"RentCar.sol\":2124:2218  function balanceOf() view public returns(uint) {... */\n    tag_6:\n      callvalue\n      dup1\n      iszero\n      tag_34\n      jumpi\n      0x00\n      dup1\n      revert\n    tag_34:\n      pop\n      tag_35\n      tag_36\n      jump\t// in\n    tag_35:\n      mload(0x40)\n      tag_37\n      swap2\n      swap1\n      tag_22\n      jump\t// in\n    tag_37:\n      mload(0x40)\n      dup1\n      swap2\n      sub\n      swap1\n      return\n        /* \"RentCar.sol\":853:1235  function checkOut(address walletAddress) public {... */\n    tag_7:\n      callvalue\n      dup1\n      iszero\n      tag_38\n      jumpi\n      0x00\n      dup1\n      revert\n    tag_38:\n      pop\n      tag_39\n      0x04\n      dup1\n      calldatasize\n      sub\n      dup2\n      add\n      swap1\n      tag_40\n      swap2\n      swap1\n      tag_15\n      jump\t// in\n    tag_40:\n      tag_41\n      jump\t// in\n    tag_39:\n      stop\n        /* \"RentCar.sol\":2263:2393  function balanceOfRenter(address walletAddress) public view returns(uint) {... */\n    tag_8:\n      callvalue\n      dup1\n      iszero\n      tag_42\n      jumpi\n      0x00\n      dup1\n      revert\n    tag_42:\n      pop\n      tag_43\n      0x04\n      dup1\n      calldatasize\n      sub\n      dup2\n      add\n      swap1\n      tag_44\n      swap2\n      swap1\n      tag_15\n      jump\t// in\n    tag_44:\n      tag_45\n      jump\t// in\n    tag_43:\n      mload(0x40)\n      tag_46\n      swap2\n      swap1\n      tag_22\n      jump\t// in\n    tag_46:\n      mload(0x40)\n      dup1\n      swap2\n      sub\n      swap1\n      return\n        /* \"RentCar.sol\":2700:2825  function canRentCar(address walletAddress) public view returns(bool) {... */\n    tag_9:\n      callvalue\n      dup1\n      iszero\n      tag_47\n      jumpi\n      0x00\n      dup1\n      revert\n    tag_47:\n      pop\n      tag_48\n      0x04\n      dup1\n      calldatasize\n      sub\n      dup2\n      add\n      swap1\n      tag_49\n      swap2\n      swap1\n      tag_15\n      jump\t// in\n    tag_49:\n      tag_50\n      jump\t// in\n    tag_48:\n      mload(0x40)\n      tag_51\n      swap2\n      swap1\n      tag_52\n      jump\t// in\n    tag_51:\n      mload(0x40)\n      dup1\n      swap2\n      sub\n      swap1\n      return\n        /* \"RentCar.sol\":1271:1549  function checkIn(address walletAddress) public {... */\n    tag_10:\n      callvalue\n      dup1\n      iszero\n      tag_53\n      jumpi\n      0x00\n      dup1\n      revert\n    tag_53:\n      pop\n      tag_54\n      0x04\n      dup1\n      calldatasize\n      sub\n      dup2\n      add\n      swap1\n      tag_55\n      swap2\n      swap1\n      tag_15\n      jump\t// in\n    tag_55:\n      tag_56\n      jump\t// in\n    tag_54:\n      stop\n        /* \"RentCar.sol\":2850:2967  function deposit(address walletAddress) payable public {... */\n    tag_11:\n      tag_57\n      0x04\n      dup1\n      calldatasize\n      sub\n      dup2\n      add\n      swap1\n      tag_58\n      swap2\n      swap1\n      tag_15\n      jump\t// in\n    tag_58:\n      tag_59\n      jump\t// in\n    tag_57:\n      stop\n        /* \"RentCar.sol\":2997:3522  function makePayment(address walletAddress) payable public {... */\n    tag_16:\n        /* \"RentCar.sol\":3104:3105  0 */\n      0x00\n        /* \"RentCar.sol\":3075:3082  renters */\n      0x01\n        /* \"RentCar.sol\":3075:3097  renters[walletAddress] */\n      0x00\n        /* \"RentCar.sol\":3083:3096  walletAddress */\n      dup4\n        /* \"RentCar.sol\":3075:3097  renters[walletAddress] */\n      0xffffffffffffffffffffffffffffffffffffffff\n      and\n      0xffffffffffffffffffffffffffffffffffffffff\n      and\n      dup2\n      mstore\n      0x20\n      add\n      swap1\n      dup2\n      mstore\n      0x20\n      add\n      0x00\n      keccak256\n        /* \"RentCar.sol\":3075:3101  renters[walletAddress].due */\n      0x05\n      add\n      sload\n        /* \"RentCar.sol\":3075:3105  renters[walletAddress].due > 0 */\n      gt\n        /* \"RentCar.sol\":3067:3152  require(renters[walletAddress].due > 0, \"You do not have anything due at this time.\") */\n      tag_61\n      jumpi\n      mload(0x40)\n      0x08c379a000000000000000000000000000000000000000000000000000000000\n      dup2\n      mstore\n      0x04\n      add\n      tag_62\n      swap1\n      tag_63\n      jump\t// in\n    tag_62:\n      mload(0x40)\n      dup1\n      swap2\n      sub\n      swap1\n      revert\n    tag_61:\n        /* \"RentCar.sol\":3204:3213  msg.value */\n      callvalue\n        /* \"RentCar.sol\":3171:3178  renters */\n      0x01\n        /* \"RentCar.sol\":3171:3193  renters[walletAddress] */\n      0x00\n        /* \"RentCar.sol\":3179:3192  walletAddress */\n      dup4\n        /* \"RentCar.sol\":3171:3193  renters[walletAddress] */\n      0xffffffffffffffffffffffffffffffffffffffff\n      and\n      0xffffffffffffffffffffffffffffffffffffffff\n      and\n      dup2\n      mstore\n      0x20\n      add\n      swap1\n      dup2\n      mstore\n      0x20\n      add\n      0x00\n      keccak256\n        /* \"RentCar.sol\":3171:3201  renters[walletAddress].balance */\n      0x04\n      add\n      sload\n        /* \"RentCar.sol\":3171:3213  renters[walletAddress].balance > msg.value */\n      gt\n        /* \"RentCar.sol\":3163:3287  require(renters[walletAddress].balance > msg.value, \"You do not have enough funds to cover payment. Please make a deposit.\") */\n      tag_64\n      jumpi\n      mload(0x40)\n      0x08c379a000000000000000000000000000000000000000000000000000000000\n      dup2\n      mstore\n      0x04\n      add\n      tag_65\n      swap1\n      tag_66\n      jump\t// in\n    tag_65:\n      mload(0x40)\n      dup1\n      swap2\n      sub\n      swap1\n      revert\n    tag_64:\n        /* \"RentCar.sol\":3332:3341  msg.value */\n      callvalue\n        /* \"RentCar.sol\":3298:3305  renters */\n      0x01\n        /* \"RentCar.sol\":3298:3320  renters[walletAddress] */\n      0x00\n        /* \"RentCar.sol\":3306:3319  walletAddress */\n      dup4\n        /* \"RentCar.sol\":3298:3320  renters[walletAddress] */\n      0xffffffffffffffffffffffffffffffffffffffff\n      and\n      0xffffffffffffffffffffffffffffffffffffffff\n      and\n      dup2\n      mstore\n      0x20\n      add\n      swap1\n      dup2\n      mstore\n      0x20\n      add\n      0x00\n      keccak256\n        /* \"RentCar.sol\":3298:3328  renters[walletAddress].balance */\n      0x04\n      add\n      0x00\n        /* \"RentCar.sol\":3298:3341  renters[walletAddress].balance -= msg.value */\n      dup3\n      dup3\n      sload\n      tag_67\n      swap2\n      swap1\n      tag_68\n      jump\t// in\n    tag_67:\n      swap3\n      pop\n      pop\n      dup2\n      swap1\n      sstore\n      pop\n        /* \"RentCar.sol\":3385:3389  true */\n      0x01\n        /* \"RentCar.sol\":3352:3359  renters */\n      dup1\n        /* \"RentCar.sol\":3352:3374  renters[walletAddress] */\n      0x00\n        /* \"RentCar.sol\":3360:3373  walletAddress */\n      dup4\n        /* \"RentCar.sol\":3352:3374  renters[walletAddress] */\n      0xffffffffffffffffffffffffffffffffffffffff\n      and\n      0xffffffffffffffffffffffffffffffffffffffff\n      and\n      dup2\n      mstore\n      0x20\n      add\n      swap1\n      dup2\n      mstore\n      0x20\n      add\n      0x00\n      keccak256\n        /* \"RentCar.sol\":3352:3382  renters[walletAddress].canRent */\n      0x03\n      add\n      0x00\n        /* \"RentCar.sol\":3352:3389  renters[walletAddress].canRent = true */\n      0x0100\n      exp\n      dup2\n      sload\n      dup2\n      0xff\n      mul\n      not\n      and\n      swap1\n      dup4\n      iszero\n      iszero\n      mul\n      or\n      swap1\n      sstore\n      pop\n        /* \"RentCar.sol\":3429:3430  0 */\n      0x00\n        /* \"RentCar.sol\":3400:3407  renters */\n      0x01\n        /* \"RentCar.sol\":3400:3422  renters[walletAddress] */\n      0x00\n        /* \"RentCar.sol\":3408:3421  walletAddress */\n      dup4\n        /* \"RentCar.sol\":3400:3422  renters[walletAddress] */\n      0xffffffffffffffffffffffffffffffffffffffff\n      and\n      0xffffffffffffffffffffffffffffffffffffffff\n      and\n      dup2\n      mstore\n      0x20\n      add\n      swap1\n      dup2\n      mstore\n      0x20\n      add\n      0x00\n      keccak256\n        /* \"RentCar.sol\":3400:3426  renters[walletAddress].due */\n      0x05\n      add\n        /* \"RentCar.sol\":3400:3430  renters[walletAddress].due = 0 */\n      dup2\n      swap1\n      sstore\n      pop\n        /* \"RentCar.sol\":3472:3473  0 */\n      0x00\n        /* \"RentCar.sol\":3441:3448  renters */\n      0x01\n        /* \"RentCar.sol\":3441:3463  renters[walletAddress] */\n      0x00\n        /* \"RentCar.sol\":3449:3462  walletAddress */\n      dup4\n        /* \"RentCar.sol\":3441:3463  renters[walletAddress] */\n      0xffffffffffffffffffffffffffffffffffffffff\n      and\n      0xffffffffffffffffffffffffffffffffffffffff\n      and\n      dup2\n      mstore\n      0x20\n      add\n      swap1\n      dup2\n      mstore\n      0x20\n      add\n      0x00\n      keccak256\n        /* \"RentCar.sol\":3441:3469  renters[walletAddress].start */\n      0x06\n      add\n        /* \"RentCar.sol\":3441:3473  renters[walletAddress].start = 0 */\n      dup2\n      swap1\n      sstore\n      pop\n        /* \"RentCar.sol\":3513:3514  0 */\n      0x00\n        /* \"RentCar.sol\":3484:3491  renters */\n      0x01\n        /* \"RentCar.sol\":3484:3506  renters[walletAddress] */\n      0x00\n        /* \"RentCar.sol\":3492:3505  walletAddress */\n      dup4\n        /* \"RentCar.sol\":3484:3506  renters[walletAddress] */\n      0xffffffffffffffffffffffffffffffffffffffff\n      and\n      0xffffffffffffffffffffffffffffffffffffffff\n      and\n      dup2\n      mstore\n      0x20\n      add\n      swap1\n      dup2\n      mstore\n      0x20\n      add\n      0x00\n      keccak256\n        /* \"RentCar.sol\":3484:3510  renters[walletAddress].end */\n      0x07\n      add\n        /* \"RentCar.sol\":3484:3514  renters[walletAddress].end = 0 */\n      dup2\n      swap1\n      sstore\n      pop\n        /* \"RentCar.sol\":2997:3522  function makePayment(address walletAddress) payable public {... */\n      pop\n      jump\t// out\n        /* \"RentCar.sol\":1723:2080  function getTotalDuration(address walletAddress) public view returns(uint) {... */\n    tag_20:\n        /* \"RentCar.sol\":1792:1796  uint */\n      0x00\n        /* \"RentCar.sol\":1850:1855  false */\n      dup1\n        /* \"RentCar.sol\":1817:1855  renters[walletAddress].active == false */\n      iszero\n      iszero\n        /* \"RentCar.sol\":1817:1824  renters */\n      0x01\n        /* \"RentCar.sol\":1817:1839  renters[walletAddress] */\n      0x00\n        /* \"RentCar.sol\":1825:1838  walletAddress */\n      dup5\n        /* \"RentCar.sol\":1817:1839  renters[walletAddress] */\n      0xffffffffffffffffffffffffffffffffffffffff\n      and\n      0xffffffffffffffffffffffffffffffffffffffff\n      and\n      dup2\n      mstore\n      0x20\n      add\n      swap1\n      dup2\n      mstore\n      0x20\n      add\n      0x00\n      keccak256\n        /* \"RentCar.sol\":1817:1846  renters[walletAddress].active */\n      0x03\n      add\n      0x01\n      swap1\n      sload\n      swap1\n      0x0100\n      exp\n      swap1\n      div\n      0xff\n      and\n        /* \"RentCar.sol\":1817:1855  renters[walletAddress].active == false */\n      iszero\n      iszero\n      eq\n        /* \"RentCar.sol\":1809:1889  require(renters[walletAddress].active == false, \"Car is currently checked out.\") */\n      tag_70\n      jumpi\n      mload(0x40)\n      0x08c379a000000000000000000000000000000000000000000000000000000000\n      dup2\n      mstore\n      0x04\n      add\n      tag_71\n      swap1\n      tag_72\n      jump\t// in\n    tag_71:\n      mload(0x40)\n      dup1\n      swap2\n      sub\n      swap1\n      revert\n    tag_70:\n        /* \"RentCar.sol\":1900:1913  uint timespan */\n      0x00\n        /* \"RentCar.sol\":1916:1988  renterTimespan(renters[walletAddress].start, renters[walletAddress].end) */\n      tag_73\n        /* \"RentCar.sol\":1931:1938  renters */\n      0x01\n        /* \"RentCar.sol\":1931:1953  renters[walletAddress] */\n      0x00\n        /* \"RentCar.sol\":1939:1952  walletAddress */\n      dup6\n        /* \"RentCar.sol\":1931:1953  renters[walletAddress] */\n      0xffffffffffffffffffffffffffffffffffffffff\n      and\n      0xffffffffffffffffffffffffffffffffffffffff\n      and\n      dup2\n      mstore\n      0x20\n      add\n      swap1\n      dup2\n      mstore\n      0x20\n      add\n      0x00\n      keccak256\n        /* \"RentCar.sol\":1931:1959  renters[walletAddress].start */\n      0x06\n      add\n      sload\n        /* \"RentCar.sol\":1961:1968  renters */\n      0x01\n        /* \"RentCar.sol\":1961:1983  renters[walletAddress] */\n      0x00\n        /* \"RentCar.sol\":1969:1982  walletAddress */\n      dup7\n        /* \"RentCar.sol\":1961:1983  renters[walletAddress] */\n      0xffffffffffffffffffffffffffffffffffffffff\n      and\n      0xffffffffffffffffffffffffffffffffffffffff\n      and\n      dup2\n      mstore\n      0x20\n      add\n      swap1\n      dup2\n      mstore\n      0x20\n      add\n      0x00\n      keccak256\n        /* \"RentCar.sol\":1961:1987  renters[walletAddress].end */\n      0x07\n      add\n      sload\n        /* \"RentCar.sol\":1916:1930  renterTimespan */\n      tag_74\n        /* \"RentCar.sol\":1916:1988  renterTimespan(renters[walletAddress].start, renters[walletAddress].end) */\n      jump\t// in\n    tag_73:\n        /* \"RentCar.sol\":1900:1988  uint timespan = renterTimespan(renters[walletAddress].start, renters[walletAddress].end) */\n      swap1\n      pop\n        /* \"RentCar.sol\":1999:2021  uint timespanInMinutes */\n      0x00\n        /* \"RentCar.sol\":2035:2037  60 */\n      0x3c\n        /* \"RentCar.sol\":2024:2032  timespan */\n      dup3\n        /* \"RentCar.sol\":2024:2037  timespan / 60 */\n      tag_75\n      swap2\n      swap1\n      tag_76\n      jump\t// in\n    tag_75:\n        /* \"RentCar.sol\":1999:2037  uint timespanInMinutes = timespan / 60 */\n      swap1\n      pop\n        /* \"RentCar.sol\":2055:2072  timespanInMinutes */\n      dup1\n        /* \"RentCar.sol\":2048:2072  return timespanInMinutes */\n      swap3\n      pop\n      pop\n      pop\n        /* \"RentCar.sol\":1723:2080  function getTotalDuration(address walletAddress) public view returns(uint) {... */\n      swap2\n      swap1\n      pop\n      jump\t// out\n        /* \"RentCar.sol\":514:822  function addRenter(address payable walletAddress, string memory firstName, string memory lastName, bool canRent, bool active, uint balance, uint due, uint start, uint end) public {... */\n    tag_27:\n        /* \"RentCar.sol\":729:814  Renter(walletAddress, firstName, lastName, canRent, active, balance, due, start, end) */\n      mload(0x40)\n      dup1\n      0x0120\n      add\n      0x40\n      mstore\n      dup1\n        /* \"RentCar.sol\":736:749  walletAddress */\n      dup11\n        /* \"RentCar.sol\":729:814  Renter(walletAddress, firstName, lastName, canRent, active, balance, due, start, end) */\n      0xffffffffffffffffffffffffffffffffffffffff\n      and\n      dup2\n      mstore\n      0x20\n      add\n        /* \"RentCar.sol\":751:760  firstName */\n      dup10\n        /* \"RentCar.sol\":729:814  Renter(walletAddress, firstName, lastName, canRent, active, balance, due, start, end) */\n      dup2\n      mstore\n      0x20\n      add\n        /* \"RentCar.sol\":762:770  lastName */\n      dup9\n        /* \"RentCar.sol\":729:814  Renter(walletAddress, firstName, lastName, canRent, active, balance, due, start, end) */\n      dup2\n      mstore\n      0x20\n      add\n        /* \"RentCar.sol\":772:779  canRent */\n      dup8\n        /* \"RentCar.sol\":729:814  Renter(walletAddress, firstName, lastName, canRent, active, balance, due, start, end) */\n      iszero\n      iszero\n      dup2\n      mstore\n      0x20\n      add\n        /* \"RentCar.sol\":781:787  active */\n      dup7\n        /* \"RentCar.sol\":729:814  Renter(walletAddress, firstName, lastName, canRent, active, balance, due, start, end) */\n      iszero\n      iszero\n      dup2\n      mstore\n      0x20\n      add\n        /* \"RentCar.sol\":789:796  balance */\n      dup6\n        /* \"RentCar.sol\":729:814  Renter(walletAddress, firstName, lastName, canRent, active, balance, due, start, end) */\n      dup2\n      mstore\n      0x20\n      add\n        /* \"RentCar.sol\":798:801  due */\n      dup5\n        /* \"RentCar.sol\":729:814  Renter(walletAddress, firstName, lastName, canRent, active, balance, due, start, end) */\n      dup2\n      mstore\n      0x20\n      add\n        /* \"RentCar.sol\":803:808  start */\n      dup4\n        /* \"RentCar.sol\":729:814  Renter(walletAddress, firstName, lastName, canRent, active, balance, due, start, end) */\n      dup2\n      mstore\n      0x20\n      add\n        /* \"RentCar.sol\":810:813  end */\n      dup3\n        /* \"RentCar.sol\":729:814  Renter(walletAddress, firstName, lastName, canRent, active, balance, due, start, end) */\n      dup2\n      mstore\n      pop\n        /* \"RentCar.sol\":704:711  renters */\n      0x01\n        /* \"RentCar.sol\":704:726  renters[walletAddress] */\n      0x00\n        /* \"RentCar.sol\":712:725  walletAddress */\n      dup12\n        /* \"RentCar.sol\":704:726  renters[walletAddress] */\n      0xffffffffffffffffffffffffffffffffffffffff\n      and\n      0xffffffffffffffffffffffffffffffffffffffff\n      and\n      dup2\n      mstore\n      0x20\n      add\n      swap1\n      dup2\n      mstore\n      0x20\n      add\n      0x00\n      keccak256\n        /* \"RentCar.sol\":704:814  renters[walletAddress] = Renter(walletAddress, firstName, lastName, canRent, active, balance, due, start, end) */\n      0x00\n      dup3\n      add\n      mload\n      dup2\n      0x00\n      add\n      exp(0x0100, 0x00)\n      dup2\n      sload\n      dup2\n      0xffffffffffffffffffffffffffffffffffffffff\n      mul\n      not\n      and\n      swap1\n      dup4\n      0xffffffffffffffffffffffffffffffffffffffff\n      and\n      mul\n      or\n      swap1\n      sstore\n      pop\n      0x20\n      dup3\n      add\n      mload\n      dup2\n      0x01\n      add\n      swap1\n      dup2\n      tag_78\n      swap2\n      swap1\n      tag_79\n      jump\t// in\n    tag_78:\n      pop\n      0x40\n      dup3\n      add\n      mload\n      dup2\n      0x02\n      add\n      swap1\n      dup2\n      tag_80\n      swap2\n      swap1\n      tag_79\n      jump\t// in\n    tag_80:\n      pop\n      0x60\n      dup3\n      add\n      mload\n      dup2\n      0x03\n      add\n      exp(0x0100, 0x00)\n      dup2\n      sload\n      dup2\n      0xff\n      mul\n      not\n      and\n      swap1\n      dup4\n      iszero\n      iszero\n      mul\n      or\n      swap1\n      sstore\n      pop\n      0x80\n      dup3\n      add\n      mload\n      dup2\n      0x03\n      add\n      exp(0x0100, 0x01)\n      dup2\n      sload\n      dup2\n      0xff\n      mul\n      not\n      and\n      swap1\n      dup4\n      iszero\n      iszero\n      mul\n      or\n      swap1\n      sstore\n      pop\n      0xa0\n      dup3\n      add\n      mload\n      dup2\n      0x04\n      add\n      sstore\n      0xc0\n      dup3\n      add\n      mload\n      dup2\n      0x05\n      add\n      sstore\n      0xe0\n      dup3\n      add\n      mload\n      dup2\n      0x06\n      add\n      sstore\n      0x0100\n      dup3\n      add\n      mload\n      dup2\n      0x07\n      add\n      sstore\n      swap1\n      pop\n      pop\n        /* \"RentCar.sol\":514:822  function addRenter(address payable walletAddress, string memory firstName, string memory lastName, bool canRent, bool active, uint balance, uint due, uint start, uint end) public {... */\n      pop\n      pop\n      pop\n      pop\n      pop\n      pop\n      pop\n      pop\n      pop\n      jump\t// out\n        /* \"RentCar.sol\":463:505  mapping (address => Renter) public renters */\n    tag_31:\n      mstore(0x20, 0x01)\n      dup1\n      0x00\n      mstore\n      keccak256(0x00, 0x40)\n      0x00\n      swap2\n      pop\n      swap1\n      pop\n      dup1\n      0x00\n      add\n      0x00\n      swap1\n      sload\n      swap1\n      0x0100\n      exp\n      swap1\n      div\n      0xffffffffffffffffffffffffffffffffffffffff\n      and\n      swap1\n      dup1\n      0x01\n      add\n      dup1\n      sload\n      tag_81\n      swap1\n      tag_82\n      jump\t// in\n    tag_81:\n      dup1\n      0x1f\n      add\n      0x20\n      dup1\n      swap2\n      div\n      mul\n      0x20\n      add\n      mload(0x40)\n      swap1\n      dup2\n      add\n      0x40\n      mstore\n      dup1\n      swap3\n      swap2\n      swap1\n      dup2\n      dup2\n      mstore\n      0x20\n      add\n      dup3\n      dup1\n      sload\n      tag_83\n      swap1\n      tag_82\n      jump\t// in\n    tag_83:\n      dup1\n      iszero\n      tag_84\n      jumpi\n      dup1\n      0x1f\n      lt\n      tag_85\n      jumpi\n      0x0100\n      dup1\n      dup4\n      sload\n      div\n      mul\n      dup4\n      mstore\n      swap2\n      0x20\n      add\n      swap2\n      jump(tag_84)\n    tag_85:\n      dup3\n      add\n      swap2\n      swap1\n      0x00\n      mstore\n      keccak256(0x00, 0x20)\n      swap1\n    tag_86:\n      dup2\n      sload\n      dup2\n      mstore\n      swap1\n      0x01\n      add\n      swap1\n      0x20\n      add\n      dup1\n      dup4\n      gt\n      tag_86\n      jumpi\n      dup3\n      swap1\n      sub\n      0x1f\n      and\n      dup3\n      add\n      swap2\n    tag_84:\n      pop\n      pop\n      pop\n      pop\n      pop\n      swap1\n      dup1\n      0x02\n      add\n      dup1\n      sload\n      tag_87\n      swap1\n      tag_82\n      jump\t// in\n    tag_87:\n      dup1\n      0x1f\n      add\n      0x20\n      dup1\n      swap2\n      div\n      mul\n      0x20\n      add\n      mload(0x40)\n      swap1\n      dup2\n      add\n      0x40\n      mstore\n      dup1\n      swap3\n      swap2\n      swap1\n      dup2\n      dup2\n      mstore\n      0x20\n      add\n      dup3\n      dup1\n      sload\n      tag_88\n      swap1\n      tag_82\n      jump\t// in\n    tag_88:\n      dup1\n      iszero\n      tag_89\n      jumpi\n      dup1\n      0x1f\n      lt\n      tag_90\n      jumpi\n      0x0100\n      dup1\n      dup4\n      sload\n      div\n      mul\n      dup4\n      mstore\n      swap2\n      0x20\n      add\n      swap2\n      jump(tag_89)\n    tag_90:\n      dup3\n      add\n      swap2\n      swap1\n      0x00\n      mstore\n      keccak256(0x00, 0x20)\n      swap1\n    tag_91:\n      dup2\n      sload\n      dup2\n      mstore\n      swap1\n      0x01\n      add\n      swap1\n      0x20\n      add\n      dup1\n      dup4\n      gt\n      tag_91\n      jumpi\n      dup3\n      swap1\n      sub\n      0x1f\n      and\n      dup3\n      add\n      swap2\n    tag_89:\n      pop\n      pop\n      pop\n      pop\n      pop\n      swap1\n      dup1\n      0x03\n      add\n      0x00\n      swap1\n      sload\n      swap1\n      0x0100\n      exp\n      swap1\n      div\n      0xff\n      and\n      swap1\n      dup1\n      0x03\n      add\n      0x01\n      swap1\n      sload\n      swap1\n      0x0100\n      exp\n      swap1\n      div\n      0xff\n      and\n      swap1\n      dup1\n      0x04\n      add\n      sload\n      swap1\n      dup1\n      0x05\n      add\n      sload\n      swap1\n      dup1\n      0x06\n      add\n      sload\n      swap1\n      dup1\n      0x07\n      add\n      sload\n      swap1\n      pop\n      dup10\n      jump\t// out\n        /* \"RentCar.sol\":2124:2218  function balanceOf() view public returns(uint) {... */\n    tag_36:\n        /* \"RentCar.sol\":2165:2169  uint */\n      0x00\n        /* \"RentCar.sol\":2189:2210  address(this).balance */\n      selfbalance\n        /* \"RentCar.sol\":2182:2210  return address(this).balance */\n      swap1\n      pop\n        /* \"RentCar.sol\":2124:2218  function balanceOf() view public returns(uint) {... */\n      swap1\n      jump\t// out\n        /* \"RentCar.sol\":853:1235  function checkOut(address walletAddress) public {... */\n    tag_41:\n        /* \"RentCar.sol\":950:951  0 */\n      0x00\n        /* \"RentCar.sol\":920:927  renters */\n      0x01\n        /* \"RentCar.sol\":920:942  renters[walletAddress] */\n      0x00\n        /* \"RentCar.sol\":928:941  walletAddress */\n      dup4\n        /* \"RentCar.sol\":920:942  renters[walletAddress] */\n      0xffffffffffffffffffffffffffffffffffffffff\n      and\n      0xffffffffffffffffffffffffffffffffffffffff\n      and\n      dup2\n      mstore\n      0x20\n      add\n      swap1\n      dup2\n      mstore\n      0x20\n      add\n      0x00\n      keccak256\n        /* \"RentCar.sol\":920:946  renters[walletAddress].due */\n      0x05\n      add\n      sload\n        /* \"RentCar.sol\":920:951  renters[walletAddress].due == 0 */\n      eq\n        /* \"RentCar.sol\":912:983  require(renters[walletAddress].due == 0, \"You have a pending balance.\") */\n      tag_94\n      jumpi\n      mload(0x40)\n      0x08c379a000000000000000000000000000000000000000000000000000000000\n      dup2\n      mstore\n      0x04\n      add\n      tag_95\n      swap1\n      tag_96\n      jump\t// in\n    tag_95:\n      mload(0x40)\n      dup1\n      swap2\n      sub\n      swap1\n      revert\n    tag_94:\n        /* \"RentCar.sol\":1036:1040  true */\n      0x01\n        /* \"RentCar.sol\":1002:1040  renters[walletAddress].canRent == true */\n      iszero\n      iszero\n        /* \"RentCar.sol\":1002:1009  renters */\n      0x01\n        /* \"RentCar.sol\":1002:1024  renters[walletAddress] */\n      0x00\n        /* \"RentCar.sol\":1010:1023  walletAddress */\n      dup4\n        /* \"RentCar.sol\":1002:1024  renters[walletAddress] */\n      0xffffffffffffffffffffffffffffffffffffffff\n      and\n      0xffffffffffffffffffffffffffffffffffffffff\n      and\n      dup2\n      mstore\n      0x20\n      add\n      swap1\n      dup2\n      mstore\n      0x20\n      add\n      0x00\n      keccak256\n        /* \"RentCar.sol\":1002:1032  renters[walletAddress].canRent */\n      0x03\n      add\n      0x00\n      swap1\n      sload\n      swap1\n      0x0100\n      exp\n      swap1\n      div\n      0xff\n      and\n        /* \"RentCar.sol\":1002:1040  renters[walletAddress].canRent == true */\n      iszero\n      iszero\n      eq\n        /* \"RentCar.sol\":994:1074  require(renters[walletAddress].canRent == true, \"You cannot rent at this time.\") */\n      tag_97\n      jumpi\n      mload(0x40)\n      0x08c379a000000000000000000000000000000000000000000000000000000000\n      dup2\n      mstore\n      0x04\n      add\n      tag_98\n      swap1\n      tag_99\n      jump\t// in\n    tag_98:\n      mload(0x40)\n      dup1\n      swap2\n      sub\n      swap1\n      revert\n    tag_97:\n        /* \"RentCar.sol\":1117:1121  true */\n      0x01\n        /* \"RentCar.sol\":1085:1092  renters */\n      dup1\n        /* \"RentCar.sol\":1085:1107  renters[walletAddress] */\n      0x00\n        /* \"RentCar.sol\":1093:1106  walletAddress */\n      dup4\n        /* \"RentCar.sol\":1085:1107  renters[walletAddress] */\n      0xffffffffffffffffffffffffffffffffffffffff\n      and\n      0xffffffffffffffffffffffffffffffffffffffff\n      and\n      dup2\n      mstore\n      0x20\n      add\n      swap1\n      dup2\n      mstore\n      0x20\n      add\n      0x00\n      keccak256\n        /* \"RentCar.sol\":1085:1114  renters[walletAddress].active */\n      0x03\n      add\n      0x01\n        /* \"RentCar.sol\":1085:1121  renters[walletAddress].active = true */\n      0x0100\n      exp\n      dup2\n      sload\n      dup2\n      0xff\n      mul\n      not\n      and\n      swap1\n      dup4\n      iszero\n      iszero\n      mul\n      or\n      swap1\n      sstore\n      pop\n        /* \"RentCar.sol\":1163:1178  block.timestamp */\n      timestamp\n        /* \"RentCar.sol\":1132:1139  renters */\n      0x01\n        /* \"RentCar.sol\":1132:1154  renters[walletAddress] */\n      0x00\n        /* \"RentCar.sol\":1140:1153  walletAddress */\n      dup4\n        /* \"RentCar.sol\":1132:1154  renters[walletAddress] */\n      0xffffffffffffffffffffffffffffffffffffffff\n      and\n      0xffffffffffffffffffffffffffffffffffffffff\n      and\n      dup2\n      mstore\n      0x20\n      add\n      swap1\n      dup2\n      mstore\n      0x20\n      add\n      0x00\n      keccak256\n        /* \"RentCar.sol\":1132:1160  renters[walletAddress].start */\n      0x06\n      add\n        /* \"RentCar.sol\":1132:1178  renters[walletAddress].start = block.timestamp */\n      dup2\n      swap1\n      sstore\n      pop\n        /* \"RentCar.sol\":1222:1227  false */\n      0x00\n        /* \"RentCar.sol\":1189:1196  renters */\n      0x01\n        /* \"RentCar.sol\":1189:1211  renters[walletAddress] */\n      0x00\n        /* \"RentCar.sol\":1197:1210  walletAddress */\n      dup4\n        /* \"RentCar.sol\":1189:1211  renters[walletAddress] */\n      0xffffffffffffffffffffffffffffffffffffffff\n      and\n      0xffffffffffffffffffffffffffffffffffffffff\n      and\n      dup2\n      mstore\n      0x20\n      add\n      swap1\n      dup2\n      mstore\n      0x20\n      add\n      0x00\n      keccak256\n        /* \"RentCar.sol\":1189:1219  renters[walletAddress].canRent */\n      0x03\n      add\n      0x00\n        /* \"RentCar.sol\":1189:1227  renters[walletAddress].canRent = false */\n      0x0100\n      exp\n      dup2\n      sload\n      dup2\n      0xff\n      mul\n      not\n      and\n      swap1\n      dup4\n      iszero\n      iszero\n      mul\n      or\n      swap1\n      sstore\n      pop\n        /* \"RentCar.sol\":853:1235  function checkOut(address walletAddress) public {... */\n      pop\n      jump\t// out\n        /* \"RentCar.sol\":2263:2393  function balanceOfRenter(address walletAddress) public view returns(uint) {... */\n    tag_45:\n        /* \"RentCar.sol\":2331:2335  uint */\n      0x00\n        /* \"RentCar.sol\":2355:2362  renters */\n      0x01\n        /* \"RentCar.sol\":2355:2377  renters[walletAddress] */\n      0x00\n        /* \"RentCar.sol\":2363:2376  walletAddress */\n      dup4\n        /* \"RentCar.sol\":2355:2377  renters[walletAddress] */\n      0xffffffffffffffffffffffffffffffffffffffff\n      and\n      0xffffffffffffffffffffffffffffffffffffffff\n      and\n      dup2\n      mstore\n      0x20\n      add\n      swap1\n      dup2\n      mstore\n      0x20\n      add\n      0x00\n      keccak256\n        /* \"RentCar.sol\":2355:2385  renters[walletAddress].balance */\n      0x04\n      add\n      sload\n        /* \"RentCar.sol\":2348:2385  return renters[walletAddress].balance */\n      swap1\n      pop\n        /* \"RentCar.sol\":2263:2393  function balanceOfRenter(address walletAddress) public view returns(uint) {... */\n      swap2\n      swap1\n      pop\n      jump\t// out\n        /* \"RentCar.sol\":2700:2825  function canRentCar(address walletAddress) public view returns(bool) {... */\n    tag_50:\n        /* \"RentCar.sol\":2763:2767  bool */\n      0x00\n        /* \"RentCar.sol\":2787:2794  renters */\n      0x01\n        /* \"RentCar.sol\":2787:2809  renters[walletAddress] */\n      0x00\n        /* \"RentCar.sol\":2795:2808  walletAddress */\n      dup4\n        /* \"RentCar.sol\":2787:2809  renters[walletAddress] */\n      0xffffffffffffffffffffffffffffffffffffffff\n      and\n      0xffffffffffffffffffffffffffffffffffffffff\n      and\n      dup2\n      mstore\n      0x20\n      add\n      swap1\n      dup2\n      mstore\n      0x20\n      add\n      0x00\n      keccak256\n        /* \"RentCar.sol\":2787:2817  renters[walletAddress].canRent */\n      0x03\n      add\n      0x00\n      swap1\n      sload\n      swap1\n      0x0100\n      exp\n      swap1\n      div\n      0xff\n      and\n        /* \"RentCar.sol\":2780:2817  return renters[walletAddress].canRent */\n      swap1\n      pop\n        /* \"RentCar.sol\":2700:2825  function canRentCar(address walletAddress) public view returns(bool) {... */\n      swap2\n      swap1\n      pop\n      jump\t// out\n        /* \"RentCar.sol\":1271:1549  function checkIn(address walletAddress) public {... */\n    tag_56:\n        /* \"RentCar.sol\":1370:1374  true */\n      0x01\n        /* \"RentCar.sol\":1337:1374  renters[walletAddress].active == true */\n      iszero\n      iszero\n        /* \"RentCar.sol\":1337:1344  renters */\n      0x01\n        /* \"RentCar.sol\":1337:1359  renters[walletAddress] */\n      0x00\n        /* \"RentCar.sol\":1345:1358  walletAddress */\n      dup4\n        /* \"RentCar.sol\":1337:1359  renters[walletAddress] */\n      0xffffffffffffffffffffffffffffffffffffffff\n      and\n      0xffffffffffffffffffffffffffffffffffffffff\n      and\n      dup2\n      mstore\n      0x20\n      add\n      swap1\n      dup2\n      mstore\n      0x20\n      add\n      0x00\n      keccak256\n        /* \"RentCar.sol\":1337:1366  renters[walletAddress].active */\n      0x03\n      add\n      0x01\n      swap1\n      sload\n      swap1\n      0x0100\n      exp\n      swap1\n      div\n      0xff\n      and\n        /* \"RentCar.sol\":1337:1374  renters[walletAddress].active == true */\n      iszero\n      iszero\n      eq\n        /* \"RentCar.sol\":1329:1406  require(renters[walletAddress].active == true, \"Please check out car first.\") */\n      tag_103\n      jumpi\n      mload(0x40)\n      0x08c379a000000000000000000000000000000000000000000000000000000000\n      dup2\n      mstore\n      0x04\n      add\n      tag_104\n      swap1\n      tag_105\n      jump\t// in\n    tag_104:\n      mload(0x40)\n      dup1\n      swap2\n      sub\n      swap1\n      revert\n    tag_103:\n        /* \"RentCar.sol\":1449:1454  false */\n      0x00\n        /* \"RentCar.sol\":1417:1424  renters */\n      0x01\n        /* \"RentCar.sol\":1417:1439  renters[walletAddress] */\n      0x00\n        /* \"RentCar.sol\":1425:1438  walletAddress */\n      dup4\n        /* \"RentCar.sol\":1417:1439  renters[walletAddress] */\n      0xffffffffffffffffffffffffffffffffffffffff\n      and\n      0xffffffffffffffffffffffffffffffffffffffff\n      and\n      dup2\n      mstore\n      0x20\n      add\n      swap1\n      dup2\n      mstore\n      0x20\n      add\n      0x00\n      keccak256\n        /* \"RentCar.sol\":1417:1446  renters[walletAddress].active */\n      0x03\n      add\n      0x01\n        /* \"RentCar.sol\":1417:1454  renters[walletAddress].active = false */\n      0x0100\n      exp\n      dup2\n      sload\n      dup2\n      0xff\n      mul\n      not\n      and\n      swap1\n      dup4\n      iszero\n      iszero\n      mul\n      or\n      swap1\n      sstore\n      pop\n        /* \"RentCar.sol\":1494:1509  block.timestamp */\n      timestamp\n        /* \"RentCar.sol\":1465:1472  renters */\n      0x01\n        /* \"RentCar.sol\":1465:1487  renters[walletAddress] */\n      0x00\n        /* \"RentCar.sol\":1473:1486  walletAddress */\n      dup4\n        /* \"RentCar.sol\":1465:1487  renters[walletAddress] */\n      0xffffffffffffffffffffffffffffffffffffffff\n      and\n      0xffffffffffffffffffffffffffffffffffffffff\n      and\n      dup2\n      mstore\n      0x20\n      add\n      swap1\n      dup2\n      mstore\n      0x20\n      add\n      0x00\n      keccak256\n        /* \"RentCar.sol\":1465:1491  renters[walletAddress].end */\n      0x07\n      add\n        /* \"RentCar.sol\":1465:1509  renters[walletAddress].end = block.timestamp */\n      dup2\n      swap1\n      sstore\n      pop\n        /* \"RentCar.sol\":1520:1541  setDue(walletAddress) */\n      tag_106\n        /* \"RentCar.sol\":1527:1540  walletAddress */\n      dup2\n        /* \"RentCar.sol\":1520:1526  setDue */\n      tag_107\n        /* \"RentCar.sol\":1520:1541  setDue(walletAddress) */\n      jump\t// in\n    tag_106:\n        /* \"RentCar.sol\":1271:1549  function checkIn(address walletAddress) public {... */\n      pop\n      jump\t// out\n        /* \"RentCar.sol\":2850:2967  function deposit(address walletAddress) payable public {... */\n    tag_59:\n        /* \"RentCar.sol\":2950:2959  msg.value */\n      callvalue\n        /* \"RentCar.sol\":2916:2923  renters */\n      0x01\n        /* \"RentCar.sol\":2916:2938  renters[walletAddress] */\n      0x00\n        /* \"RentCar.sol\":2924:2937  walletAddress */\n      dup4\n        /* \"RentCar.sol\":2916:2938  renters[walletAddress] */\n      0xffffffffffffffffffffffffffffffffffffffff\n      and\n      0xffffffffffffffffffffffffffffffffffffffff\n      and\n      dup2\n      mstore\n      0x20\n      add\n      swap1\n      dup2\n      mstore\n      0x20\n      add\n      0x00\n      keccak256\n        /* \"RentCar.sol\":2916:2946  renters[walletAddress].balance */\n      0x04\n      add\n      0x00\n        /* \"RentCar.sol\":2916:2959  renters[walletAddress].balance += msg.value */\n      dup3\n      dup3\n      sload\n      tag_109\n      swap2\n      swap1\n      tag_110\n      jump\t// in\n    tag_109:\n      swap3\n      pop\n      pop\n      dup2\n      swap1\n      sstore\n      pop\n        /* \"RentCar.sol\":2850:2967  function deposit(address walletAddress) payable public {... */\n      pop\n      jump\t// out\n        /* \"RentCar.sol\":1604:1715  function renterTimespan(uint start, uint end) internal pure returns(uint) {... */\n    tag_74:\n        /* \"RentCar.sol\":1672:1676  uint */\n      0x00\n        /* \"RentCar.sol\":1702:1707  start */\n      dup3\n        /* \"RentCar.sol\":1696:1699  end */\n      dup3\n        /* \"RentCar.sol\":1696:1707  end - start */\n      tag_112\n      swap2\n      swap1\n      tag_68\n      jump\t// in\n    tag_112:\n        /* \"RentCar.sol\":1689:1707  return end - start */\n      swap1\n      pop\n        /* \"RentCar.sol\":1604:1715  function renterTimespan(uint start, uint end) internal pure returns(uint) {... */\n      swap3\n      swap2\n      pop\n      pop\n      jump\t// out\n        /* \"RentCar.sol\":2434:2692  function setDue(address walletAddress) internal {... */\n    tag_107:\n        /* \"RentCar.sol\":2493:2513  uint timespanMinutes */\n      0x00\n        /* \"RentCar.sol\":2516:2547  getTotalDuration(walletAddress) */\n      tag_114\n        /* \"RentCar.sol\":2533:2546  walletAddress */\n      dup3\n        /* \"RentCar.sol\":2516:2532  getTotalDuration */\n      tag_20\n        /* \"RentCar.sol\":2516:2547  getTotalDuration(walletAddress) */\n      jump\t// in\n    tag_114:\n        /* \"RentCar.sol\":2493:2547  uint timespanMinutes = getTotalDuration(walletAddress) */\n      swap1\n      pop\n        /* \"RentCar.sol\":2558:2583  uint fiveMinuteIncrements */\n      0x00\n        /* \"RentCar.sol\":2604:2605  5 */\n      0x05\n        /* \"RentCar.sol\":2586:2601  timespanMinutes */\n      dup3\n        /* \"RentCar.sol\":2586:2605  timespanMinutes / 5 */\n      tag_115\n      swap2\n      swap1\n      tag_76\n      jump\t// in\n    tag_115:\n        /* \"RentCar.sol\":2558:2605  uint fiveMinuteIncrements = timespanMinutes / 5 */\n      swap1\n      pop\n        /* \"RentCar.sol\":2668:2684  5000000000000000 */\n      0x11c37937e08000\n        /* \"RentCar.sol\":2645:2665  fiveMinuteIncrements */\n      dup2\n        /* \"RentCar.sol\":2645:2684  fiveMinuteIncrements * 5000000000000000 */\n      tag_116\n      swap2\n      swap1\n      tag_117\n      jump\t// in\n    tag_116:\n        /* \"RentCar.sol\":2616:2623  renters */\n      0x01\n        /* \"RentCar.sol\":2616:2638  renters[walletAddress] */\n      0x00\n        /* \"RentCar.sol\":2624:2637  walletAddress */\n      dup6\n        /* \"RentCar.sol\":2616:2638  renters[walletAddress] */\n      0xffffffffffffffffffffffffffffffffffffffff\n      and\n      0xffffffffffffffffffffffffffffffffffffffff\n      and\n      dup2\n      mstore\n      0x20\n      add\n      swap1\n      dup2\n      mstore\n      0x20\n      add\n      0x00\n      keccak256\n        /* \"RentCar.sol\":2616:2642  renters[walletAddress].due */\n      0x05\n      add\n        /* \"RentCar.sol\":2616:2684  renters[walletAddress].due = fiveMinuteIncrements * 5000000000000000 */\n      dup2\n      swap1\n      sstore\n      pop\n        /* \"RentCar.sol\":2482:2692  {... */\n      pop\n      pop\n        /* \"RentCar.sol\":2434:2692  function setDue(address walletAddress) internal {... */\n      pop\n      jump\t// out\n        /* \"#utility.yul\":7:82   */\n    tag_118:\n        /* \"#utility.yul\":40:46   */\n      0x00\n        /* \"#utility.yul\":73:75   */\n      0x40\n        /* \"#utility.yul\":67:76   */\n      mload\n        /* \"#utility.yul\":57:76   */\n      swap1\n      pop\n        /* \"#utility.yul\":7:82   */\n      swap1\n      jump\t// out\n        /* \"#utility.yul\":88:205   */\n    tag_119:\n        /* \"#utility.yul\":197:198   */\n      0x00\n        /* \"#utility.yul\":194:195   */\n      dup1\n        /* \"#utility.yul\":187:199   */\n      revert\n        /* \"#utility.yul\":211:328   */\n    tag_120:\n        /* \"#utility.yul\":320:321   */\n      0x00\n        /* \"#utility.yul\":317:318   */\n      dup1\n        /* \"#utility.yul\":310:322   */\n      revert\n        /* \"#utility.yul\":334:460   */\n    tag_121:\n        /* \"#utility.yul\":371:378   */\n      0x00\n        /* \"#utility.yul\":411:453   */\n      0xffffffffffffffffffffffffffffffffffffffff\n        /* \"#utility.yul\":404:409   */\n      dup3\n        /* \"#utility.yul\":400:454   */\n      and\n        /* \"#utility.yul\":389:454   */\n      swap1\n      pop\n        /* \"#utility.yul\":334:460   */\n      swap2\n      swap1\n      pop\n      jump\t// out\n        /* \"#utility.yul\":466:562   */\n    tag_122:\n        /* \"#utility.yul\":503:510   */\n      0x00\n        /* \"#utility.yul\":532:556   */\n      tag_187\n        /* \"#utility.yul\":550:555   */\n      dup3\n        /* \"#utility.yul\":532:556   */\n      tag_121\n      jump\t// in\n    tag_187:\n        /* \"#utility.yul\":521:556   */\n      swap1\n      pop\n        /* \"#utility.yul\":466:562   */\n      swap2\n      swap1\n      pop\n      jump\t// out\n        /* \"#utility.yul\":568:690   */\n    tag_123:\n        /* \"#utility.yul\":641:665   */\n      tag_189\n        /* \"#utility.yul\":659:664   */\n      dup2\n        /* \"#utility.yul\":641:665   */\n      tag_122\n      jump\t// in\n    tag_189:\n        /* \"#utility.yul\":634:639   */\n      dup2\n        /* \"#utility.yul\":631:666   */\n      eq\n        /* \"#utility.yul\":621:684   */\n      tag_190\n      jumpi\n        /* \"#utility.yul\":680:681   */\n      0x00\n        /* \"#utility.yul\":677:678   */\n      dup1\n        /* \"#utility.yul\":670:682   */\n      revert\n        /* \"#utility.yul\":621:684   */\n    tag_190:\n        /* \"#utility.yul\":568:690   */\n      pop\n      jump\t// out\n        /* \"#utility.yul\":696:835   */\n    tag_124:\n        /* \"#utility.yul\":742:747   */\n      0x00\n        /* \"#utility.yul\":780:786   */\n      dup2\n        /* \"#utility.yul\":767:787   */\n      calldataload\n        /* \"#utility.yul\":758:787   */\n      swap1\n      pop\n        /* \"#utility.yul\":796:829   */\n      tag_192\n        /* \"#utility.yul\":823:828   */\n      dup2\n        /* \"#utility.yul\":796:829   */\n      tag_123\n      jump\t// in\n    tag_192:\n        /* \"#utility.yul\":696:835   */\n      swap3\n      swap2\n      pop\n      pop\n      jump\t// out\n        /* \"#utility.yul\":841:1170   */\n    tag_15:\n        /* \"#utility.yul\":900:906   */\n      0x00\n        /* \"#utility.yul\":949:951   */\n      0x20\n        /* \"#utility.yul\":937:946   */\n      dup3\n        /* \"#utility.yul\":928:935   */\n      dup5\n        /* \"#utility.yul\":924:947   */\n      sub\n        /* \"#utility.yul\":920:952   */\n      slt\n        /* \"#utility.yul\":917:1036   */\n      iszero\n      tag_194\n      jumpi\n        /* \"#utility.yul\":955:1034   */\n      tag_195\n      tag_119\n      jump\t// in\n    tag_195:\n        /* \"#utility.yul\":917:1036   */\n    tag_194:\n        /* \"#utility.yul\":1075:1076   */\n      0x00\n        /* \"#utility.yul\":1100:1153   */\n      tag_196\n        /* \"#utility.yul\":1145:1152   */\n      dup5\n        /* \"#utility.yul\":1136:1142   */\n      dup3\n        /* \"#utility.yul\":1125:1134   */\n      dup6\n        /* \"#utility.yul\":1121:1143   */\n      add\n        /* \"#utility.yul\":1100:1153   */\n      tag_124\n      jump\t// in\n    tag_196:\n        /* \"#utility.yul\":1090:1153   */\n      swap2\n      pop\n        /* \"#utility.yul\":1046:1163   */\n      pop\n        /* \"#utility.yul\":841:1170   */\n      swap3\n      swap2\n      pop\n      pop\n      jump\t// out\n        /* \"#utility.yul\":1176:1253   */\n    tag_125:\n        /* \"#utility.yul\":1213:1220   */\n      0x00\n        /* \"#utility.yul\":1242:1247   */\n      dup2\n        /* \"#utility.yul\":1231:1247   */\n      swap1\n      pop\n        /* \"#utility.yul\":1176:1253   */\n      swap2\n      swap1\n      pop\n      jump\t// out\n        /* \"#utility.yul\":1259:1377   */\n    tag_126:\n        /* \"#utility.yul\":1346:1370   */\n      tag_199\n        /* \"#utility.yul\":1364:1369   */\n      dup2\n        /* \"#utility.yul\":1346:1370   */\n      tag_125\n      jump\t// in\n    tag_199:\n        /* \"#utility.yul\":1341:1344   */\n      dup3\n        /* \"#utility.yul\":1334:1371   */\n      mstore\n        /* \"#utility.yul\":1259:1377   */\n      pop\n      pop\n      jump\t// out\n        /* \"#utility.yul\":1383:1605   */\n    tag_22:\n        /* \"#utility.yul\":1476:1480   */\n      0x00\n        /* \"#utility.yul\":1514:1516   */\n      0x20\n        /* \"#utility.yul\":1503:1512   */\n      dup3\n        /* \"#utility.yul\":1499:1517   */\n      add\n        /* \"#utility.yul\":1491:1517   */\n      swap1\n      pop\n        /* \"#utility.yul\":1527:1598   */\n      tag_201\n        /* \"#utility.yul\":1595:1596   */\n      0x00\n        /* \"#utility.yul\":1584:1593   */\n      dup4\n        /* \"#utility.yul\":1580:1597   */\n      add\n        /* \"#utility.yul\":1571:1577   */\n      dup5\n        /* \"#utility.yul\":1527:1598   */\n      tag_126\n      jump\t// in\n    tag_201:\n        /* \"#utility.yul\":1383:1605   */\n      swap3\n      swap2\n      pop\n      pop\n      jump\t// out\n        /* \"#utility.yul\":1611:1715   */\n    tag_127:\n        /* \"#utility.yul\":1656:1663   */\n      0x00\n        /* \"#utility.yul\":1685:1709   */\n      tag_203\n        /* \"#utility.yul\":1703:1708   */\n      dup3\n        /* \"#utility.yul\":1685:1709   */\n      tag_121\n      jump\t// in\n    tag_203:\n        /* \"#utility.yul\":1674:1709   */\n      swap1\n      pop\n        /* \"#utility.yul\":1611:1715   */\n      swap2\n      swap1\n      pop\n      jump\t// out\n        /* \"#utility.yul\":1721:1859   */\n    tag_128:\n        /* \"#utility.yul\":1802:1834   */\n      tag_205\n        /* \"#utility.yul\":1828:1833   */\n      dup2\n        /* \"#utility.yul\":1802:1834   */\n      tag_127\n      jump\t// in\n    tag_205:\n        /* \"#utility.yul\":1795:1800   */\n      dup2\n        /* \"#utility.yul\":1792:1835   */\n      eq\n        /* \"#utility.yul\":1782:1853   */\n      tag_206\n      jumpi\n        /* \"#utility.yul\":1849:1850   */\n      0x00\n        /* \"#utility.yul\":1846:1847   */\n      dup1\n        /* \"#utility.yul\":1839:1851   */\n      revert\n        /* \"#utility.yul\":1782:1853   */\n    tag_206:\n        /* \"#utility.yul\":1721:1859   */\n      pop\n      jump\t// out\n        /* \"#utility.yul\":1865:2020   */\n    tag_129:\n        /* \"#utility.yul\":1919:1924   */\n      0x00\n        /* \"#utility.yul\":1957:1963   */\n      dup2\n        /* \"#utility.yul\":1944:1964   */\n      calldataload\n        /* \"#utility.yul\":1935:1964   */\n      swap1\n      pop\n        /* \"#utility.yul\":1973:2014   */\n      tag_208\n        /* \"#utility.yul\":2008:2013   */\n      dup2\n        /* \"#utility.yul\":1973:2014   */\n      tag_128\n      jump\t// in\n    tag_208:\n        /* \"#utility.yul\":1865:2020   */\n      swap3\n      swap2\n      pop\n      pop\n      jump\t// out\n        /* \"#utility.yul\":2026:2143   */\n    tag_130:\n        /* \"#utility.yul\":2135:2136   */\n      0x00\n        /* \"#utility.yul\":2132:2133   */\n      dup1\n        /* \"#utility.yul\":2125:2137   */\n      revert\n        /* \"#utility.yul\":2149:2266   */\n    tag_131:\n        /* \"#utility.yul\":2258:2259   */\n      0x00\n        /* \"#utility.yul\":2255:2256   */\n      dup1\n        /* \"#utility.yul\":2248:2260   */\n      revert\n        /* \"#utility.yul\":2272:2374   */\n    tag_132:\n        /* \"#utility.yul\":2313:2319   */\n      0x00\n        /* \"#utility.yul\":2364:2366   */\n      0x1f\n        /* \"#utility.yul\":2360:2367   */\n      not\n        /* \"#utility.yul\":2355:2357   */\n      0x1f\n        /* \"#utility.yul\":2348:2353   */\n      dup4\n        /* \"#utility.yul\":2344:2358   */\n      add\n        /* \"#utility.yul\":2340:2368   */\n      and\n        /* \"#utility.yul\":2330:2368   */\n      swap1\n      pop\n        /* \"#utility.yul\":2272:2374   */\n      swap2\n      swap1\n      pop\n      jump\t// out\n        /* \"#utility.yul\":2380:2560   */\n    tag_133:\n        /* \"#utility.yul\":2428:2505   */\n      0x4e487b7100000000000000000000000000000000000000000000000000000000\n        /* \"#utility.yul\":2425:2426   */\n      0x00\n        /* \"#utility.yul\":2418:2506   */\n      mstore\n        /* \"#utility.yul\":2525:2529   */\n      0x41\n        /* \"#utility.yul\":2522:2523   */\n      0x04\n        /* \"#utility.yul\":2515:2530   */\n      mstore\n        /* \"#utility.yul\":2549:2553   */\n      0x24\n        /* \"#utility.yul\":2546:2547   */\n      0x00\n        /* \"#utility.yul\":2539:2554   */\n      revert\n        /* \"#utility.yul\":2566:2847   */\n    tag_134:\n        /* \"#utility.yul\":2649:2676   */\n      tag_214\n        /* \"#utility.yul\":2671:2675   */\n      dup3\n        /* \"#utility.yul\":2649:2676   */\n      tag_132\n      jump\t// in\n    tag_214:\n        /* \"#utility.yul\":2641:2647   */\n      dup2\n        /* \"#utility.yul\":2637:2677   */\n      add\n        /* \"#utility.yul\":2779:2785   */\n      dup2\n        /* \"#utility.yul\":2767:2777   */\n      dup2\n        /* \"#utility.yul\":2764:2786   */\n      lt\n        /* \"#utility.yul\":2743:2761   */\n      0xffffffffffffffff\n        /* \"#utility.yul\":2731:2741   */\n      dup3\n        /* \"#utility.yul\":2728:2762   */\n      gt\n        /* \"#utility.yul\":2725:2787   */\n      or\n        /* \"#utility.yul\":2722:2810   */\n      iszero\n      tag_215\n      jumpi\n        /* \"#utility.yul\":2790:2808   */\n      tag_216\n      tag_133\n      jump\t// in\n    tag_216:\n        /* \"#utility.yul\":2722:2810   */\n    tag_215:\n        /* \"#utility.yul\":2830:2840   */\n      dup1\n        /* \"#utility.yul\":2826:2828   */\n      0x40\n        /* \"#utility.yul\":2819:2841   */\n      mstore\n        /* \"#utility.yul\":2609:2847   */\n      pop\n        /* \"#utility.yul\":2566:2847   */\n      pop\n      pop\n      jump\t// out\n        /* \"#utility.yul\":2853:2982   */\n    tag_135:\n        /* \"#utility.yul\":2887:2893   */\n      0x00\n        /* \"#utility.yul\":2914:2934   */\n      tag_218\n      tag_118\n      jump\t// in\n    tag_218:\n        /* \"#utility.yul\":2904:2934   */\n      swap1\n      pop\n        /* \"#utility.yul\":2943:2976   */\n      tag_219\n        /* \"#utility.yul\":2971:2975   */\n      dup3\n        /* \"#utility.yul\":2963:2969   */\n      dup3\n        /* \"#utility.yul\":2943:2976   */\n      tag_134\n      jump\t// in\n    tag_219:\n        /* \"#utility.yul\":2853:2982   */\n      swap2\n      swap1\n      pop\n      jump\t// out\n        /* \"#utility.yul\":2988:3296   */\n    tag_136:\n        /* \"#utility.yul\":3050:3054   */\n      0x00\n        /* \"#utility.yul\":3140:3158   */\n      0xffffffffffffffff\n        /* \"#utility.yul\":3132:3138   */\n      dup3\n        /* \"#utility.yul\":3129:3159   */\n      gt\n        /* \"#utility.yul\":3126:3182   */\n      iszero\n      tag_221\n      jumpi\n        /* \"#utility.yul\":3162:3180   */\n      tag_222\n      tag_133\n      jump\t// in\n    tag_222:\n        /* \"#utility.yul\":3126:3182   */\n    tag_221:\n        /* \"#utility.yul\":3200:3229   */\n      tag_223\n        /* \"#utility.yul\":3222:3228   */\n      dup3\n        /* \"#utility.yul\":3200:3229   */\n      tag_132\n      jump\t// in\n    tag_223:\n        /* \"#utility.yul\":3192:3229   */\n      swap1\n      pop\n        /* \"#utility.yul\":3284:3288   */\n      0x20\n        /* \"#utility.yul\":3278:3282   */\n      dup2\n        /* \"#utility.yul\":3274:3289   */\n      add\n        /* \"#utility.yul\":3266:3289   */\n      swap1\n      pop\n        /* \"#utility.yul\":2988:3296   */\n      swap2\n      swap1\n      pop\n      jump\t// out\n        /* \"#utility.yul\":3302:3448   */\n    tag_137:\n        /* \"#utility.yul\":3399:3405   */\n      dup3\n        /* \"#utility.yul\":3394:3397   */\n      dup2\n        /* \"#utility.yul\":3389:3392   */\n      dup4\n        /* \"#utility.yul\":3376:3406   */\n      calldatacopy\n        /* \"#utility.yul\":3440:3441   */\n      0x00\n        /* \"#utility.yul\":3431:3437   */\n      dup4\n        /* \"#utility.yul\":3426:3429   */\n      dup4\n        /* \"#utility.yul\":3422:3438   */\n      add\n        /* \"#utility.yul\":3415:3442   */\n      mstore\n        /* \"#utility.yul\":3302:3448   */\n      pop\n      pop\n      pop\n      jump\t// out\n        /* \"#utility.yul\":3454:3879   */\n    tag_138:\n        /* \"#utility.yul\":3532:3537   */\n      0x00\n        /* \"#utility.yul\":3557:3623   */\n      tag_226\n        /* \"#utility.yul\":3573:3622   */\n      tag_227\n        /* \"#utility.yul\":3615:3621   */\n      dup5\n        /* \"#utility.yul\":3573:3622   */\n      tag_136\n      jump\t// in\n    tag_227:\n        /* \"#utility.yul\":3557:3623   */\n      tag_135\n      jump\t// in\n    tag_226:\n        /* \"#utility.yul\":3548:3623   */\n      swap1\n      pop\n        /* \"#utility.yul\":3646:3652   */\n      dup3\n        /* \"#utility.yul\":3639:3644   */\n      dup2\n        /* \"#utility.yul\":3632:3653   */\n      mstore\n        /* \"#utility.yul\":3684:3688   */\n      0x20\n        /* \"#utility.yul\":3677:3682   */\n      dup2\n        /* \"#utility.yul\":3673:3689   */\n      add\n        /* \"#utility.yul\":3722:3725   */\n      dup5\n        /* \"#utility.yul\":3713:3719   */\n      dup5\n        /* \"#utility.yul\":3708:3711   */\n      dup5\n        /* \"#utility.yul\":3704:3720   */\n      add\n        /* \"#utility.yul\":3701:3726   */\n      gt\n        /* \"#utility.yul\":3698:3810   */\n      iszero\n      tag_228\n      jumpi\n        /* \"#utility.yul\":3729:3808   */\n      tag_229\n      tag_131\n      jump\t// in\n    tag_229:\n        /* \"#utility.yul\":3698:3810   */\n    tag_228:\n        /* \"#utility.yul\":3819:3873   */\n      tag_230\n        /* \"#utility.yul\":3866:3872   */\n      dup5\n        /* \"#utility.yul\":3861:3864   */\n      dup3\n        /* \"#utility.yul\":3856:3859   */\n      dup6\n        /* \"#utility.yul\":3819:3873   */\n      tag_137\n      jump\t// in\n    tag_230:\n        /* \"#utility.yul\":3538:3879   */\n      pop\n        /* \"#utility.yul\":3454:3879   */\n      swap4\n      swap3\n      pop\n      pop\n      pop\n      jump\t// out\n        /* \"#utility.yul\":3899:4239   */\n    tag_139:\n        /* \"#utility.yul\":3955:3960   */\n      0x00\n        /* \"#utility.yul\":4004:4007   */\n      dup3\n        /* \"#utility.yul\":3997:4001   */\n      0x1f\n        /* \"#utility.yul\":3989:3995   */\n      dup4\n        /* \"#utility.yul\":3985:4002   */\n      add\n        /* \"#utility.yul\":3981:4008   */\n      slt\n        /* \"#utility.yul\":3971:4093   */\n      tag_232\n      jumpi\n        /* \"#utility.yul\":4012:4091   */\n      tag_233\n      tag_130\n      jump\t// in\n    tag_233:\n        /* \"#utility.yul\":3971:4093   */\n    tag_232:\n        /* \"#utility.yul\":4129:4135   */\n      dup2\n        /* \"#utility.yul\":4116:4136   */\n      calldataload\n        /* \"#utility.yul\":4154:4233   */\n      tag_234\n        /* \"#utility.yul\":4229:4232   */\n      dup5\n        /* \"#utility.yul\":4221:4227   */\n      dup3\n        /* \"#utility.yul\":4214:4218   */\n      0x20\n        /* \"#utility.yul\":4206:4212   */\n      dup7\n        /* \"#utility.yul\":4202:4219   */\n      add\n        /* \"#utility.yul\":4154:4233   */\n      tag_138\n      jump\t// in\n    tag_234:\n        /* \"#utility.yul\":4145:4233   */\n      swap2\n      pop\n        /* \"#utility.yul\":3961:4239   */\n      pop\n        /* \"#utility.yul\":3899:4239   */\n      swap3\n      swap2\n      pop\n      pop\n      jump\t// out\n        /* \"#utility.yul\":4245:4335   */\n    tag_140:\n        /* \"#utility.yul\":4279:4286   */\n      0x00\n        /* \"#utility.yul\":4322:4327   */\n      dup2\n        /* \"#utility.yul\":4315:4328   */\n      iszero\n        /* \"#utility.yul\":4308:4329   */\n      iszero\n        /* \"#utility.yul\":4297:4329   */\n      swap1\n      pop\n        /* \"#utility.yul\":4245:4335   */\n      swap2\n      swap1\n      pop\n      jump\t// out\n        /* \"#utility.yul\":4341:4457   */\n    tag_141:\n        /* \"#utility.yul\":4411:4432   */\n      tag_237\n        /* \"#utility.yul\":4426:4431   */\n      dup2\n        /* \"#utility.yul\":4411:4432   */\n      tag_140\n      jump\t// in\n    tag_237:\n        /* \"#utility.yul\":4404:4409   */\n      dup2\n        /* \"#utility.yul\":4401:4433   */\n      eq\n        /* \"#utility.yul\":4391:4451   */\n      tag_238\n      jumpi\n        /* \"#utility.yul\":4447:4448   */\n      0x00\n        /* \"#utility.yul\":4444:4445   */\n      dup1\n        /* \"#utility.yul\":4437:4449   */\n      revert\n        /* \"#utility.yul\":4391:4451   */\n    tag_238:\n        /* \"#utility.yul\":4341:4457   */\n      pop\n      jump\t// out\n        /* \"#utility.yul\":4463:4596   */\n    tag_142:\n        /* \"#utility.yul\":4506:4511   */\n      0x00\n        /* \"#utility.yul\":4544:4550   */\n      dup2\n        /* \"#utility.yul\":4531:4551   */\n      calldataload\n        /* \"#utility.yul\":4522:4551   */\n      swap1\n      pop\n        /* \"#utility.yul\":4560:4590   */\n      tag_240\n        /* \"#utility.yul\":4584:4589   */\n      dup2\n        /* \"#utility.yul\":4560:4590   */\n      tag_141\n      jump\t// in\n    tag_240:\n        /* \"#utility.yul\":4463:4596   */\n      swap3\n      swap2\n      pop\n      pop\n      jump\t// out\n        /* \"#utility.yul\":4602:4724   */\n    tag_143:\n        /* \"#utility.yul\":4675:4699   */\n      tag_242\n        /* \"#utility.yul\":4693:4698   */\n      dup2\n        /* \"#utility.yul\":4675:4699   */\n      tag_125\n      jump\t// in\n    tag_242:\n        /* \"#utility.yul\":4668:4673   */\n      dup2\n        /* \"#utility.yul\":4665:4700   */\n      eq\n        /* \"#utility.yul\":4655:4718   */\n      tag_243\n      jumpi\n        /* \"#utility.yul\":4714:4715   */\n      0x00\n        /* \"#utility.yul\":4711:4712   */\n      dup1\n        /* \"#utility.yul\":4704:4716   */\n      revert\n        /* \"#utility.yul\":4655:4718   */\n    tag_243:\n        /* \"#utility.yul\":4602:4724   */\n      pop\n      jump\t// out\n        /* \"#utility.yul\":4730:4869   */\n    tag_144:\n        /* \"#utility.yul\":4776:4781   */\n      0x00\n        /* \"#utility.yul\":4814:4820   */\n      dup2\n        /* \"#utility.yul\":4801:4821   */\n      calldataload\n        /* \"#utility.yul\":4792:4821   */\n      swap1\n      pop\n        /* \"#utility.yul\":4830:4863   */\n      tag_245\n        /* \"#utility.yul\":4857:4862   */\n      dup2\n        /* \"#utility.yul\":4830:4863   */\n      tag_143\n      jump\t// in\n    tag_245:\n        /* \"#utility.yul\":4730:4869   */\n      swap3\n      swap2\n      pop\n      pop\n      jump\t// out\n        /* \"#utility.yul\":4875:6734   */\n    tag_26:\n        /* \"#utility.yul\":5028:5034   */\n      0x00\n        /* \"#utility.yul\":5036:5042   */\n      dup1\n        /* \"#utility.yul\":5044:5050   */\n      0x00\n        /* \"#utility.yul\":5052:5058   */\n      dup1\n        /* \"#utility.yul\":5060:5066   */\n      0x00\n        /* \"#utility.yul\":5068:5074   */\n      dup1\n        /* \"#utility.yul\":5076:5082   */\n      0x00\n        /* \"#utility.yul\":5084:5090   */\n      dup1\n        /* \"#utility.yul\":5092:5098   */\n      0x00\n        /* \"#utility.yul\":5141:5144   */\n      0x0120\n        /* \"#utility.yul\":5129:5138   */\n      dup11\n        /* \"#utility.yul\":5120:5127   */\n      dup13\n        /* \"#utility.yul\":5116:5139   */\n      sub\n        /* \"#utility.yul\":5112:5145   */\n      slt\n        /* \"#utility.yul\":5109:5229   */\n      iszero\n      tag_247\n      jumpi\n        /* \"#utility.yul\":5148:5227   */\n      tag_248\n      tag_119\n      jump\t// in\n    tag_248:\n        /* \"#utility.yul\":5109:5229   */\n    tag_247:\n        /* \"#utility.yul\":5268:5269   */\n      0x00\n        /* \"#utility.yul\":5293:5354   */\n      tag_249\n        /* \"#utility.yul\":5346:5353   */\n      dup13\n        /* \"#utility.yul\":5337:5343   */\n      dup3\n        /* \"#utility.yul\":5326:5335   */\n      dup14\n        /* \"#utility.yul\":5322:5344   */\n      add\n        /* \"#utility.yul\":5293:5354   */\n      tag_129\n      jump\t// in\n    tag_249:\n        /* \"#utility.yul\":5283:5354   */\n      swap10\n      pop\n        /* \"#utility.yul\":5239:5364   */\n      pop\n        /* \"#utility.yul\":5431:5433   */\n      0x20\n        /* \"#utility.yul\":5420:5429   */\n      dup11\n        /* \"#utility.yul\":5416:5434   */\n      add\n        /* \"#utility.yul\":5403:5435   */\n      calldataload\n        /* \"#utility.yul\":5462:5480   */\n      0xffffffffffffffff\n        /* \"#utility.yul\":5454:5460   */\n      dup2\n        /* \"#utility.yul\":5451:5481   */\n      gt\n        /* \"#utility.yul\":5448:5565   */\n      iszero\n      tag_250\n      jumpi\n        /* \"#utility.yul\":5484:5563   */\n      tag_251\n      tag_120\n      jump\t// in\n    tag_251:\n        /* \"#utility.yul\":5448:5565   */\n    tag_250:\n        /* \"#utility.yul\":5589:5652   */\n      tag_252\n        /* \"#utility.yul\":5644:5651   */\n      dup13\n        /* \"#utility.yul\":5635:5641   */\n      dup3\n        /* \"#utility.yul\":5624:5633   */\n      dup14\n        /* \"#utility.yul\":5620:5642   */\n      add\n        /* \"#utility.yul\":5589:5652   */\n      tag_139\n      jump\t// in\n    tag_252:\n        /* \"#utility.yul\":5579:5652   */\n      swap9\n      pop\n        /* \"#utility.yul\":5374:5662   */\n      pop\n        /* \"#utility.yul\":5729:5731   */\n      0x40\n        /* \"#utility.yul\":5718:5727   */\n      dup11\n        /* \"#utility.yul\":5714:5732   */\n      add\n        /* \"#utility.yul\":5701:5733   */\n      calldataload\n        /* \"#utility.yul\":5760:5778   */\n      0xffffffffffffffff\n        /* \"#utility.yul\":5752:5758   */\n      dup2\n        /* \"#utility.yul\":5749:5779   */\n      gt\n        /* \"#utility.yul\":5746:5863   */\n      iszero\n      tag_253\n      jumpi\n        /* \"#utility.yul\":5782:5861   */\n      tag_254\n      tag_120\n      jump\t// in\n    tag_254:\n        /* \"#utility.yul\":5746:5863   */\n    tag_253:\n        /* \"#utility.yul\":5887:5950   */\n      tag_255\n        /* \"#utility.yul\":5942:5949   */\n      dup13\n        /* \"#utility.yul\":5933:5939   */\n      dup3\n        /* \"#utility.yul\":5922:5931   */\n      dup14\n        /* \"#utility.yul\":5918:5940   */\n      add\n        /* \"#utility.yul\":5887:5950   */\n      tag_139\n      jump\t// in\n    tag_255:\n        /* \"#utility.yul\":5877:5950   */\n      swap8\n      pop\n        /* \"#utility.yul\":5672:5960   */\n      pop\n        /* \"#utility.yul\":5999:6001   */\n      0x60\n        /* \"#utility.yul\":6025:6075   */\n      tag_256\n        /* \"#utility.yul\":6067:6074   */\n      dup13\n        /* \"#utility.yul\":6058:6064   */\n      dup3\n        /* \"#utility.yul\":6047:6056   */\n      dup14\n        /* \"#utility.yul\":6043:6065   */\n      add\n        /* \"#utility.yul\":6025:6075   */\n      tag_142\n      jump\t// in\n    tag_256:\n        /* \"#utility.yul\":6015:6075   */\n      swap7\n      pop\n        /* \"#utility.yul\":5970:6085   */\n      pop\n        /* \"#utility.yul\":6124:6127   */\n      0x80\n        /* \"#utility.yul\":6151:6201   */\n      tag_257\n        /* \"#utility.yul\":6193:6200   */\n      dup13\n        /* \"#utility.yul\":6184:6190   */\n      dup3\n        /* \"#utility.yul\":6173:6182   */\n      dup14\n        /* \"#utility.yul\":6169:6191   */\n      add\n        /* \"#utility.yul\":6151:6201   */\n      tag_142\n      jump\t// in\n    tag_257:\n        /* \"#utility.yul\":6141:6201   */\n      swap6\n      pop\n        /* \"#utility.yul\":6095:6211   */\n      pop\n        /* \"#utility.yul\":6250:6253   */\n      0xa0\n        /* \"#utility.yul\":6277:6330   */\n      tag_258\n        /* \"#utility.yul\":6322:6329   */\n      dup13\n        /* \"#utility.yul\":6313:6319   */\n      dup3\n        /* \"#utility.yul\":6302:6311   */\n      dup14\n        /* \"#utility.yul\":6298:6320   */\n      add\n        /* \"#utility.yul\":6277:6330   */\n      tag_144\n      jump\t// in\n    tag_258:\n        /* \"#utility.yul\":6267:6330   */\n      swap5\n      pop\n        /* \"#utility.yul\":6221:6340   */\n      pop\n        /* \"#utility.yul\":6379:6382   */\n      0xc0\n        /* \"#utility.yul\":6406:6459   */\n      tag_259\n        /* \"#utility.yul\":6451:6458   */\n      dup13\n        /* \"#utility.yul\":6442:6448   */\n      dup3\n        /* \"#utility.yul\":6431:6440   */\n      dup14\n        /* \"#utility.yul\":6427:6449   */\n      add\n        /* \"#utility.yul\":6406:6459   */\n      tag_144\n      jump\t// in\n    tag_259:\n        /* \"#utility.yul\":6396:6459   */\n      swap4\n      pop\n        /* \"#utility.yul\":6350:6469   */\n      pop\n        /* \"#utility.yul\":6508:6511   */\n      0xe0\n        /* \"#utility.yul\":6535:6588   */\n      tag_260\n        /* \"#utility.yul\":6580:6587   */\n      dup13\n        /* \"#utility.yul\":6571:6577   */\n      dup3\n        /* \"#utility.yul\":6560:6569   */\n      dup14\n        /* \"#utility.yul\":6556:6578   */\n      add\n        /* \"#utility.yul\":6535:6588   */\n      tag_144\n      jump\t// in\n    tag_260:\n        /* \"#utility.yul\":6525:6588   */\n      swap3\n      pop\n        /* \"#utility.yul\":6479:6598   */\n      pop\n        /* \"#utility.yul\":6637:6640   */\n      0x0100\n        /* \"#utility.yul\":6664:6717   */\n      tag_261\n        /* \"#utility.yul\":6709:6716   */\n      dup13\n        /* \"#utility.yul\":6700:6706   */\n      dup3\n        /* \"#utility.yul\":6689:6698   */\n      dup14\n        /* \"#utility.yul\":6685:6707   */\n      add\n        /* \"#utility.yul\":6664:6717   */\n      tag_144\n      jump\t// in\n    tag_261:\n        /* \"#utility.yul\":6654:6717   */\n      swap2\n      pop\n        /* \"#utility.yul\":6608:6727   */\n      pop\n        /* \"#utility.yul\":4875:6734   */\n      swap3\n      swap6\n      swap9\n      pop\n      swap3\n      swap6\n      swap9\n      pop\n      swap3\n      swap6\n      swap9\n      jump\t// out\n        /* \"#utility.yul\":6740:6882   */\n    tag_145:\n        /* \"#utility.yul\":6843:6875   */\n      tag_263\n        /* \"#utility.yul\":6869:6874   */\n      dup2\n        /* \"#utility.yul\":6843:6875   */\n      tag_127\n      jump\t// in\n    tag_263:\n        /* \"#utility.yul\":6838:6841   */\n      dup3\n        /* \"#utility.yul\":6831:6876   */\n      mstore\n        /* \"#utility.yul\":6740:6882   */\n      pop\n      pop\n      jump\t// out\n        /* \"#utility.yul\":6888:6987   */\n    tag_146:\n        /* \"#utility.yul\":6940:6946   */\n      0x00\n        /* \"#utility.yul\":6974:6979   */\n      dup2\n        /* \"#utility.yul\":6968:6980   */\n      mload\n        /* \"#utility.yul\":6958:6980   */\n      swap1\n      pop\n        /* \"#utility.yul\":6888:6987   */\n      swap2\n      swap1\n      pop\n      jump\t// out\n        /* \"#utility.yul\":6993:7162   */\n    tag_147:\n        /* \"#utility.yul\":7077:7088   */\n      0x00\n        /* \"#utility.yul\":7111:7117   */\n      dup3\n        /* \"#utility.yul\":7106:7109   */\n      dup3\n        /* \"#utility.yul\":7099:7118   */\n      mstore\n        /* \"#utility.yul\":7151:7155   */\n      0x20\n        /* \"#utility.yul\":7146:7149   */\n      dup3\n        /* \"#utility.yul\":7142:7156   */\n      add\n        /* \"#utility.yul\":7127:7156   */\n      swap1\n      pop\n        /* \"#utility.yul\":6993:7162   */\n      swap3\n      swap2\n      pop\n      pop\n      jump\t// out\n        /* \"#utility.yul\":7168:7414   */\n    tag_148:\n        /* \"#utility.yul\":7249:7250   */\n      0x00\n        /* \"#utility.yul\":7259:7372   */\n    tag_267:\n        /* \"#utility.yul\":7273:7279   */\n      dup4\n        /* \"#utility.yul\":7270:7271   */\n      dup2\n        /* \"#utility.yul\":7267:7280   */\n      lt\n        /* \"#utility.yul\":7259:7372   */\n      iszero\n      tag_269\n      jumpi\n        /* \"#utility.yul\":7358:7359   */\n      dup1\n        /* \"#utility.yul\":7353:7356   */\n      dup3\n        /* \"#utility.yul\":7349:7360   */\n      add\n        /* \"#utility.yul\":7343:7361   */\n      mload\n        /* \"#utility.yul\":7339:7340   */\n      dup2\n        /* \"#utility.yul\":7334:7337   */\n      dup5\n        /* \"#utility.yul\":7330:7341   */\n      add\n        /* \"#utility.yul\":7323:7362   */\n      mstore\n        /* \"#utility.yul\":7295:7297   */\n      0x20\n        /* \"#utility.yul\":7292:7293   */\n      dup2\n        /* \"#utility.yul\":7288:7298   */\n      add\n        /* \"#utility.yul\":7283:7298   */\n      swap1\n      pop\n        /* \"#utility.yul\":7259:7372   */\n      jump(tag_267)\n    tag_269:\n        /* \"#utility.yul\":7406:7407   */\n      0x00\n        /* \"#utility.yul\":7397:7403   */\n      dup5\n        /* \"#utility.yul\":7392:7395   */\n      dup5\n        /* \"#utility.yul\":7388:7404   */\n      add\n        /* \"#utility.yul\":7381:7408   */\n      mstore\n        /* \"#utility.yul\":7230:7414   */\n      pop\n        /* \"#utility.yul\":7168:7414   */\n      pop\n      pop\n      pop\n      jump\t// out\n        /* \"#utility.yul\":7420:7797   */\n    tag_149:\n        /* \"#utility.yul\":7508:7511   */\n      0x00\n        /* \"#utility.yul\":7536:7575   */\n      tag_271\n        /* \"#utility.yul\":7569:7574   */\n      dup3\n        /* \"#utility.yul\":7536:7575   */\n      tag_146\n      jump\t// in\n    tag_271:\n        /* \"#utility.yul\":7591:7662   */\n      tag_272\n        /* \"#utility.yul\":7655:7661   */\n      dup2\n        /* \"#utility.yul\":7650:7653   */\n      dup6\n        /* \"#utility.yul\":7591:7662   */\n      tag_147\n      jump\t// in\n    tag_272:\n        /* \"#utility.yul\":7584:7662   */\n      swap4\n      pop\n        /* \"#utility.yul\":7671:7736   */\n      tag_273\n        /* \"#utility.yul\":7729:7735   */\n      dup2\n        /* \"#utility.yul\":7724:7727   */\n      dup6\n        /* \"#utility.yul\":7717:7721   */\n      0x20\n        /* \"#utility.yul\":7710:7715   */\n      dup7\n        /* \"#utility.yul\":7706:7722   */\n      add\n        /* \"#utility.yul\":7671:7736   */\n      tag_148\n      jump\t// in\n    tag_273:\n        /* \"#utility.yul\":7761:7790   */\n      tag_274\n        /* \"#utility.yul\":7783:7789   */\n      dup2\n        /* \"#utility.yul\":7761:7790   */\n      tag_132\n      jump\t// in\n    tag_274:\n        /* \"#utility.yul\":7756:7759   */\n      dup5\n        /* \"#utility.yul\":7752:7791   */\n      add\n        /* \"#utility.yul\":7745:7791   */\n      swap2\n      pop\n        /* \"#utility.yul\":7512:7797   */\n      pop\n        /* \"#utility.yul\":7420:7797   */\n      swap3\n      swap2\n      pop\n      pop\n      jump\t// out\n        /* \"#utility.yul\":7803:7912   */\n    tag_150:\n        /* \"#utility.yul\":7884:7905   */\n      tag_276\n        /* \"#utility.yul\":7899:7904   */\n      dup2\n        /* \"#utility.yul\":7884:7905   */\n      tag_140\n      jump\t// in\n    tag_276:\n        /* \"#utility.yul\":7879:7882   */\n      dup3\n        /* \"#utility.yul\":7872:7906   */\n      mstore\n        /* \"#utility.yul\":7803:7912   */\n      pop\n      pop\n      jump\t// out\n        /* \"#utility.yul\":7918:9216   */\n    tag_33:\n        /* \"#utility.yul\":8279:8283   */\n      0x00\n        /* \"#utility.yul\":8317:8320   */\n      0x0120\n        /* \"#utility.yul\":8306:8315   */\n      dup3\n        /* \"#utility.yul\":8302:8321   */\n      add\n        /* \"#utility.yul\":8294:8321   */\n      swap1\n      pop\n        /* \"#utility.yul\":8331:8418   */\n      tag_278\n        /* \"#utility.yul\":8415:8416   */\n      0x00\n        /* \"#utility.yul\":8404:8413   */\n      dup4\n        /* \"#utility.yul\":8400:8417   */\n      add\n        /* \"#utility.yul\":8391:8397   */\n      dup13\n        /* \"#utility.yul\":8331:8418   */\n      tag_145\n      jump\t// in\n    tag_278:\n        /* \"#utility.yul\":8465:8474   */\n      dup2\n        /* \"#utility.yul\":8459:8463   */\n      dup2\n        /* \"#utility.yul\":8455:8475   */\n      sub\n        /* \"#utility.yul\":8450:8452   */\n      0x20\n        /* \"#utility.yul\":8439:8448   */\n      dup4\n        /* \"#utility.yul\":8435:8453   */\n      add\n        /* \"#utility.yul\":8428:8476   */\n      mstore\n        /* \"#utility.yul\":8493:8571   */\n      tag_279\n        /* \"#utility.yul\":8566:8570   */\n      dup2\n        /* \"#utility.yul\":8557:8563   */\n      dup12\n        /* \"#utility.yul\":8493:8571   */\n      tag_149\n      jump\t// in\n    tag_279:\n        /* \"#utility.yul\":8485:8571   */\n      swap1\n      pop\n        /* \"#utility.yul\":8618:8627   */\n      dup2\n        /* \"#utility.yul\":8612:8616   */\n      dup2\n        /* \"#utility.yul\":8608:8628   */\n      sub\n        /* \"#utility.yul\":8603:8605   */\n      0x40\n        /* \"#utility.yul\":8592:8601   */\n      dup4\n        /* \"#utility.yul\":8588:8606   */\n      add\n        /* \"#utility.yul\":8581:8629   */\n      mstore\n        /* \"#utility.yul\":8646:8724   */\n      tag_280\n        /* \"#utility.yul\":8719:8723   */\n      dup2\n        /* \"#utility.yul\":8710:8716   */\n      dup11\n        /* \"#utility.yul\":8646:8724   */\n      tag_149\n      jump\t// in\n    tag_280:\n        /* \"#utility.yul\":8638:8724   */\n      swap1\n      pop\n        /* \"#utility.yul\":8734:8800   */\n      tag_281\n        /* \"#utility.yul\":8796:8798   */\n      0x60\n        /* \"#utility.yul\":8785:8794   */\n      dup4\n        /* \"#utility.yul\":8781:8799   */\n      add\n        /* \"#utility.yul\":8772:8778   */\n      dup10\n        /* \"#utility.yul\":8734:8800   */\n      tag_150\n      jump\t// in\n    tag_281:\n        /* \"#utility.yul\":8810:8877   */\n      tag_282\n        /* \"#utility.yul\":8872:8875   */\n      0x80\n        /* \"#utility.yul\":8861:8870   */\n      dup4\n        /* \"#utility.yul\":8857:8876   */\n      add\n        /* \"#utility.yul\":8848:8854   */\n      dup9\n        /* \"#utility.yul\":8810:8877   */\n      tag_150\n      jump\t// in\n    tag_282:\n        /* \"#utility.yul\":8887:8960   */\n      tag_283\n        /* \"#utility.yul\":8955:8958   */\n      0xa0\n        /* \"#utility.yul\":8944:8953   */\n      dup4\n        /* \"#utility.yul\":8940:8959   */\n      add\n        /* \"#utility.yul\":8931:8937   */\n      dup8\n        /* \"#utility.yul\":8887:8960   */\n      tag_126\n      jump\t// in\n    tag_283:\n        /* \"#utility.yul\":8970:9043   */\n      tag_284\n        /* \"#utility.yul\":9038:9041   */\n      0xc0\n        /* \"#utility.yul\":9027:9036   */\n      dup4\n        /* \"#utility.yul\":9023:9042   */\n      add\n        /* \"#utility.yul\":9014:9020   */\n      dup7\n        /* \"#utility.yul\":8970:9043   */\n      tag_126\n      jump\t// in\n    tag_284:\n        /* \"#utility.yul\":9053:9126   */\n      tag_285\n        /* \"#utility.yul\":9121:9124   */\n      0xe0\n        /* \"#utility.yul\":9110:9119   */\n      dup4\n        /* \"#utility.yul\":9106:9125   */\n      add\n        /* \"#utility.yul\":9097:9103   */\n      dup6\n        /* \"#utility.yul\":9053:9126   */\n      tag_126\n      jump\t// in\n    tag_285:\n        /* \"#utility.yul\":9136:9209   */\n      tag_286\n        /* \"#utility.yul\":9204:9207   */\n      0x0100\n        /* \"#utility.yul\":9193:9202   */\n      dup4\n        /* \"#utility.yul\":9189:9208   */\n      add\n        /* \"#utility.yul\":9180:9186   */\n      dup5\n        /* \"#utility.yul\":9136:9209   */\n      tag_126\n      jump\t// in\n    tag_286:\n        /* \"#utility.yul\":7918:9216   */\n      swap11\n      swap10\n      pop\n      pop\n      pop\n      pop\n      pop\n      pop\n      pop\n      pop\n      pop\n      pop\n      jump\t// out\n        /* \"#utility.yul\":9222:9432   */\n    tag_52:\n        /* \"#utility.yul\":9309:9313   */\n      0x00\n        /* \"#utility.yul\":9347:9349   */\n      0x20\n        /* \"#utility.yul\":9336:9345   */\n      dup3\n        /* \"#utility.yul\":9332:9350   */\n      add\n        /* \"#utility.yul\":9324:9350   */\n      swap1\n      pop\n        /* \"#utility.yul\":9360:9425   */\n      tag_288\n        /* \"#utility.yul\":9422:9423   */\n      0x00\n        /* \"#utility.yul\":9411:9420   */\n      dup4\n        /* \"#utility.yul\":9407:9424   */\n      add\n        /* \"#utility.yul\":9398:9404   */\n      dup5\n        /* \"#utility.yul\":9360:9425   */\n      tag_150\n      jump\t// in\n    tag_288:\n        /* \"#utility.yul\":9222:9432   */\n      swap3\n      swap2\n      pop\n      pop\n      jump\t// out\n        /* \"#utility.yul\":9438:9667   */\n    tag_151:\n        /* \"#utility.yul\":9578:9612   */\n      0x596f7520646f206e6f74206861766520616e797468696e672064756520617420\n        /* \"#utility.yul\":9574:9575   */\n      0x00\n        /* \"#utility.yul\":9566:9572   */\n      dup3\n        /* \"#utility.yul\":9562:9576   */\n      add\n        /* \"#utility.yul\":9555:9613   */\n      mstore\n        /* \"#utility.yul\":9647:9659   */\n      0x746869732074696d652e00000000000000000000000000000000000000000000\n        /* \"#utility.yul\":9642:9644   */\n      0x20\n        /* \"#utility.yul\":9634:9640   */\n      dup3\n        /* \"#utility.yul\":9630:9645   */\n      add\n        /* \"#utility.yul\":9623:9660   */\n      mstore\n        /* \"#utility.yul\":9438:9667   */\n      pop\n      jump\t// out\n        /* \"#utility.yul\":9673:10039   */\n    tag_152:\n        /* \"#utility.yul\":9815:9818   */\n      0x00\n        /* \"#utility.yul\":9836:9903   */\n      tag_291\n        /* \"#utility.yul\":9900:9902   */\n      0x2a\n        /* \"#utility.yul\":9895:9898   */\n      dup4\n        /* \"#utility.yul\":9836:9903   */\n      tag_147\n      jump\t// in\n    tag_291:\n        /* \"#utility.yul\":9829:9903   */\n      swap2\n      pop\n        /* \"#utility.yul\":9912:10005   */\n      tag_292\n        /* \"#utility.yul\":10001:10004   */\n      dup3\n        /* \"#utility.yul\":9912:10005   */\n      tag_151\n      jump\t// in\n    tag_292:\n        /* \"#utility.yul\":10030:10032   */\n      0x40\n        /* \"#utility.yul\":10025:10028   */\n      dup3\n        /* \"#utility.yul\":10021:10033   */\n      add\n        /* \"#utility.yul\":10014:10033   */\n      swap1\n      pop\n        /* \"#utility.yul\":9673:10039   */\n      swap2\n      swap1\n      pop\n      jump\t// out\n        /* \"#utility.yul\":10045:10464   */\n    tag_63:\n        /* \"#utility.yul\":10211:10215   */\n      0x00\n        /* \"#utility.yul\":10249:10251   */\n      0x20\n        /* \"#utility.yul\":10238:10247   */\n      dup3\n        /* \"#utility.yul\":10234:10252   */\n      add\n        /* \"#utility.yul\":10226:10252   */\n      swap1\n      pop\n        /* \"#utility.yul\":10298:10307   */\n      dup2\n        /* \"#utility.yul\":10292:10296   */\n      dup2\n        /* \"#utility.yul\":10288:10308   */\n      sub\n        /* \"#utility.yul\":10284:10285   */\n      0x00\n        /* \"#utility.yul\":10273:10282   */\n      dup4\n        /* \"#utility.yul\":10269:10286   */\n      add\n        /* \"#utility.yul\":10262:10309   */\n      mstore\n        /* \"#utility.yul\":10326:10457   */\n      tag_294\n        /* \"#utility.yul\":10452:10456   */\n      dup2\n        /* \"#utility.yul\":10326:10457   */\n      tag_152\n      jump\t// in\n    tag_294:\n        /* \"#utility.yul\":10318:10457   */\n      swap1\n      pop\n        /* \"#utility.yul\":10045:10464   */\n      swap2\n      swap1\n      pop\n      jump\t// out\n        /* \"#utility.yul\":10470:10763   */\n    tag_153:\n        /* \"#utility.yul\":10610:10644   */\n      0x596f7520646f206e6f74206861766520656e6f7567682066756e647320746f20\n        /* \"#utility.yul\":10606:10607   */\n      0x00\n        /* \"#utility.yul\":10598:10604   */\n      dup3\n        /* \"#utility.yul\":10594:10608   */\n      add\n        /* \"#utility.yul\":10587:10645   */\n      mstore\n        /* \"#utility.yul\":10679:10713   */\n      0x636f766572207061796d656e742e20506c65617365206d616b65206120646570\n        /* \"#utility.yul\":10674:10676   */\n      0x20\n        /* \"#utility.yul\":10666:10672   */\n      dup3\n        /* \"#utility.yul\":10662:10677   */\n      add\n        /* \"#utility.yul\":10655:10714   */\n      mstore\n        /* \"#utility.yul\":10748:10755   */\n      0x6f7369742e000000000000000000000000000000000000000000000000000000\n        /* \"#utility.yul\":10743:10745   */\n      0x40\n        /* \"#utility.yul\":10735:10741   */\n      dup3\n        /* \"#utility.yul\":10731:10746   */\n      add\n        /* \"#utility.yul\":10724:10756   */\n      mstore\n        /* \"#utility.yul\":10470:10763   */\n      pop\n      jump\t// out\n        /* \"#utility.yul\":10769:11135   */\n    tag_154:\n        /* \"#utility.yul\":10911:10914   */\n      0x00\n        /* \"#utility.yul\":10932:10999   */\n      tag_297\n        /* \"#utility.yul\":10996:10998   */\n      0x45\n        /* \"#utility.yul\":10991:10994   */\n      dup4\n        /* \"#utility.yul\":10932:10999   */\n      tag_147\n      jump\t// in\n    tag_297:\n        /* \"#utility.yul\":10925:10999   */\n      swap2\n      pop\n        /* \"#utility.yul\":11008:11101   */\n      tag_298\n        /* \"#utility.yul\":11097:11100   */\n      dup3\n        /* \"#utility.yul\":11008:11101   */\n      tag_153\n      jump\t// in\n    tag_298:\n        /* \"#utility.yul\":11126:11128   */\n      0x60\n        /* \"#utility.yul\":11121:11124   */\n      dup3\n        /* \"#utility.yul\":11117:11129   */\n      add\n        /* \"#utility.yul\":11110:11129   */\n      swap1\n      pop\n        /* \"#utility.yul\":10769:11135   */\n      swap2\n      swap1\n      pop\n      jump\t// out\n        /* \"#utility.yul\":11141:11560   */\n    tag_66:\n        /* \"#utility.yul\":11307:11311   */\n      0x00\n        /* \"#utility.yul\":11345:11347   */\n      0x20\n        /* \"#utility.yul\":11334:11343   */\n      dup3\n        /* \"#utility.yul\":11330:11348   */\n      add\n        /* \"#utility.yul\":11322:11348   */\n      swap1\n      pop\n        /* \"#utility.yul\":11394:11403   */\n      dup2\n        /* \"#utility.yul\":11388:11392   */\n      dup2\n        /* \"#utility.yul\":11384:11404   */\n      sub\n        /* \"#utility.yul\":11380:11381   */\n      0x00\n        /* \"#utility.yul\":11369:11378   */\n      dup4\n        /* \"#utility.yul\":11365:11382   */\n      add\n        /* \"#utility.yul\":11358:11405   */\n      mstore\n        /* \"#utility.yul\":11422:11553   */\n      tag_300\n        /* \"#utility.yul\":11548:11552   */\n      dup2\n        /* \"#utility.yul\":11422:11553   */\n      tag_154\n      jump\t// in\n    tag_300:\n        /* \"#utility.yul\":11414:11553   */\n      swap1\n      pop\n        /* \"#utility.yul\":11141:11560   */\n      swap2\n      swap1\n      pop\n      jump\t// out\n        /* \"#utility.yul\":11566:11746   */\n    tag_155:\n        /* \"#utility.yul\":11614:11691   */\n      0x4e487b7100000000000000000000000000000000000000000000000000000000\n        /* \"#utility.yul\":11611:11612   */\n      0x00\n        /* \"#utility.yul\":11604:11692   */\n      mstore\n        /* \"#utility.yul\":11711:11715   */\n      0x11\n        /* \"#utility.yul\":11708:11709   */\n      0x04\n        /* \"#utility.yul\":11701:11716   */\n      mstore\n        /* \"#utility.yul\":11735:11739   */\n      0x24\n        /* \"#utility.yul\":11732:11733   */\n      0x00\n        /* \"#utility.yul\":11725:11740   */\n      revert\n        /* \"#utility.yul\":11752:11946   */\n    tag_68:\n        /* \"#utility.yul\":11792:11796   */\n      0x00\n        /* \"#utility.yul\":11812:11832   */\n      tag_303\n        /* \"#utility.yul\":11830:11831   */\n      dup3\n        /* \"#utility.yul\":11812:11832   */\n      tag_125\n      jump\t// in\n    tag_303:\n        /* \"#utility.yul\":11807:11832   */\n      swap2\n      pop\n        /* \"#utility.yul\":11846:11866   */\n      tag_304\n        /* \"#utility.yul\":11864:11865   */\n      dup4\n        /* \"#utility.yul\":11846:11866   */\n      tag_125\n      jump\t// in\n    tag_304:\n        /* \"#utility.yul\":11841:11866   */\n      swap3\n      pop\n        /* \"#utility.yul\":11890:11891   */\n      dup3\n        /* \"#utility.yul\":11887:11888   */\n      dup3\n        /* \"#utility.yul\":11883:11892   */\n      sub\n        /* \"#utility.yul\":11875:11892   */\n      swap1\n      pop\n        /* \"#utility.yul\":11914:11915   */\n      dup2\n        /* \"#utility.yul\":11908:11912   */\n      dup2\n        /* \"#utility.yul\":11905:11916   */\n      gt\n        /* \"#utility.yul\":11902:11939   */\n      iszero\n      tag_305\n      jumpi\n        /* \"#utility.yul\":11919:11937   */\n      tag_306\n      tag_155\n      jump\t// in\n    tag_306:\n        /* \"#utility.yul\":11902:11939   */\n    tag_305:\n        /* \"#utility.yul\":11752:11946   */\n      swap3\n      swap2\n      pop\n      pop\n      jump\t// out\n        /* \"#utility.yul\":11952:12131   */\n    tag_156:\n        /* \"#utility.yul\":12092:12123   */\n      0x4361722069732063757272656e746c7920636865636b6564206f75742e000000\n        /* \"#utility.yul\":12088:12089   */\n      0x00\n        /* \"#utility.yul\":12080:12086   */\n      dup3\n        /* \"#utility.yul\":12076:12090   */\n      add\n        /* \"#utility.yul\":12069:12124   */\n      mstore\n        /* \"#utility.yul\":11952:12131   */\n      pop\n      jump\t// out\n        /* \"#utility.yul\":12137:12503   */\n    tag_157:\n        /* \"#utility.yul\":12279:12282   */\n      0x00\n        /* \"#utility.yul\":12300:12367   */\n      tag_309\n        /* \"#utility.yul\":12364:12366   */\n      0x1d\n        /* \"#utility.yul\":12359:12362   */\n      dup4\n        /* \"#utility.yul\":12300:12367   */\n      tag_147\n      jump\t// in\n    tag_309:\n        /* \"#utility.yul\":12293:12367   */\n      swap2\n      pop\n        /* \"#utility.yul\":12376:12469   */\n      tag_310\n        /* \"#utility.yul\":12465:12468   */\n      dup3\n        /* \"#utility.yul\":12376:12469   */\n      tag_156\n      jump\t// in\n    tag_310:\n        /* \"#utility.yul\":12494:12496   */\n      0x20\n        /* \"#utility.yul\":12489:12492   */\n      dup3\n        /* \"#utility.yul\":12485:12497   */\n      add\n        /* \"#utility.yul\":12478:12497   */\n      swap1\n      pop\n        /* \"#utility.yul\":12137:12503   */\n      swap2\n      swap1\n      pop\n      jump\t// out\n        /* \"#utility.yul\":12509:12928   */\n    tag_72:\n        /* \"#utility.yul\":12675:12679   */\n      0x00\n        /* \"#utility.yul\":12713:12715   */\n      0x20\n        /* \"#utility.yul\":12702:12711   */\n      dup3\n        /* \"#utility.yul\":12698:12716   */\n      add\n        /* \"#utility.yul\":12690:12716   */\n      swap1\n      pop\n        /* \"#utility.yul\":12762:12771   */\n      dup2\n        /* \"#utility.yul\":12756:12760   */\n      dup2\n        /* \"#utility.yul\":12752:12772   */\n      sub\n        /* \"#utility.yul\":12748:12749   */\n      0x00\n        /* \"#utility.yul\":12737:12746   */\n      dup4\n        /* \"#utility.yul\":12733:12750   */\n      add\n        /* \"#utility.yul\":12726:12773   */\n      mstore\n        /* \"#utility.yul\":12790:12921   */\n      tag_312\n        /* \"#utility.yul\":12916:12920   */\n      dup2\n        /* \"#utility.yul\":12790:12921   */\n      tag_157\n      jump\t// in\n    tag_312:\n        /* \"#utility.yul\":12782:12921   */\n      swap1\n      pop\n        /* \"#utility.yul\":12509:12928   */\n      swap2\n      swap1\n      pop\n      jump\t// out\n        /* \"#utility.yul\":12934:13114   */\n    tag_158:\n        /* \"#utility.yul\":12982:13059   */\n      0x4e487b7100000000000000000000000000000000000000000000000000000000\n        /* \"#utility.yul\":12979:12980   */\n      0x00\n        /* \"#utility.yul\":12972:13060   */\n      mstore\n        /* \"#utility.yul\":13079:13083   */\n      0x12\n        /* \"#utility.yul\":13076:13077   */\n      0x04\n        /* \"#utility.yul\":13069:13084   */\n      mstore\n        /* \"#utility.yul\":13103:13107   */\n      0x24\n        /* \"#utility.yul\":13100:13101   */\n      0x00\n        /* \"#utility.yul\":13093:13108   */\n      revert\n        /* \"#utility.yul\":13120:13305   */\n    tag_76:\n        /* \"#utility.yul\":13160:13161   */\n      0x00\n        /* \"#utility.yul\":13177:13197   */\n      tag_315\n        /* \"#utility.yul\":13195:13196   */\n      dup3\n        /* \"#utility.yul\":13177:13197   */\n      tag_125\n      jump\t// in\n    tag_315:\n        /* \"#utility.yul\":13172:13197   */\n      swap2\n      pop\n        /* \"#utility.yul\":13211:13231   */\n      tag_316\n        /* \"#utility.yul\":13229:13230   */\n      dup4\n        /* \"#utility.yul\":13211:13231   */\n      tag_125\n      jump\t// in\n    tag_316:\n        /* \"#utility.yul\":13206:13231   */\n      swap3\n      pop\n        /* \"#utility.yul\":13250:13251   */\n      dup3\n        /* \"#utility.yul\":13240:13275   */\n      tag_317\n      jumpi\n        /* \"#utility.yul\":13255:13273   */\n      tag_318\n      tag_158\n      jump\t// in\n    tag_318:\n        /* \"#utility.yul\":13240:13275   */\n    tag_317:\n        /* \"#utility.yul\":13297:13298   */\n      dup3\n        /* \"#utility.yul\":13294:13295   */\n      dup3\n        /* \"#utility.yul\":13290:13299   */\n      div\n        /* \"#utility.yul\":13285:13299   */\n      swap1\n      pop\n        /* \"#utility.yul\":13120:13305   */\n      swap3\n      swap2\n      pop\n      pop\n      jump\t// out\n        /* \"#utility.yul\":13311:13491   */\n    tag_159:\n        /* \"#utility.yul\":13359:13436   */\n      0x4e487b7100000000000000000000000000000000000000000000000000000000\n        /* \"#utility.yul\":13356:13357   */\n      0x00\n        /* \"#utility.yul\":13349:13437   */\n      mstore\n        /* \"#utility.yul\":13456:13460   */\n      0x22\n        /* \"#utility.yul\":13453:13454   */\n      0x04\n        /* \"#utility.yul\":13446:13461   */\n      mstore\n        /* \"#utility.yul\":13480:13484   */\n      0x24\n        /* \"#utility.yul\":13477:13478   */\n      0x00\n        /* \"#utility.yul\":13470:13485   */\n      revert\n        /* \"#utility.yul\":13497:13817   */\n    tag_82:\n        /* \"#utility.yul\":13541:13547   */\n      0x00\n        /* \"#utility.yul\":13578:13579   */\n      0x02\n        /* \"#utility.yul\":13572:13576   */\n      dup3\n        /* \"#utility.yul\":13568:13580   */\n      div\n        /* \"#utility.yul\":13558:13580   */\n      swap1\n      pop\n        /* \"#utility.yul\":13625:13626   */\n      0x01\n        /* \"#utility.yul\":13619:13623   */\n      dup3\n        /* \"#utility.yul\":13615:13627   */\n      and\n        /* \"#utility.yul\":13646:13664   */\n      dup1\n        /* \"#utility.yul\":13636:13717   */\n      tag_321\n      jumpi\n        /* \"#utility.yul\":13702:13706   */\n      0x7f\n        /* \"#utility.yul\":13694:13700   */\n      dup3\n        /* \"#utility.yul\":13690:13707   */\n      and\n        /* \"#utility.yul\":13680:13707   */\n      swap2\n      pop\n        /* \"#utility.yul\":13636:13717   */\n    tag_321:\n        /* \"#utility.yul\":13764:13766   */\n      0x20\n        /* \"#utility.yul\":13756:13762   */\n      dup3\n        /* \"#utility.yul\":13753:13767   */\n      lt\n        /* \"#utility.yul\":13733:13751   */\n      dup2\n        /* \"#utility.yul\":13730:13768   */\n      sub\n        /* \"#utility.yul\":13727:13811   */\n      tag_322\n      jumpi\n        /* \"#utility.yul\":13783:13801   */\n      tag_323\n      tag_159\n      jump\t// in\n    tag_323:\n        /* \"#utility.yul\":13727:13811   */\n    tag_322:\n        /* \"#utility.yul\":13548:13817   */\n      pop\n        /* \"#utility.yul\":13497:13817   */\n      swap2\n      swap1\n      pop\n      jump\t// out\n        /* \"#utility.yul\":13823:13964   */\n    tag_160:\n        /* \"#utility.yul\":13872:13876   */\n      0x00\n        /* \"#utility.yul\":13895:13898   */\n      dup2\n        /* \"#utility.yul\":13887:13898   */\n      swap1\n      pop\n        /* \"#utility.yul\":13918:13921   */\n      dup2\n        /* \"#utility.yul\":13915:13916   */\n      0x00\n        /* \"#utility.yul\":13908:13922   */\n      mstore\n        /* \"#utility.yul\":13952:13956   */\n      0x20\n        /* \"#utility.yul\":13949:13950   */\n      0x00\n        /* \"#utility.yul\":13939:13957   */\n      keccak256\n        /* \"#utility.yul\":13931:13957   */\n      swap1\n      pop\n        /* \"#utility.yul\":13823:13964   */\n      swap2\n      swap1\n      pop\n      jump\t// out\n        /* \"#utility.yul\":13970:14063   */\n    tag_161:\n        /* \"#utility.yul\":14007:14013   */\n      0x00\n        /* \"#utility.yul\":14054:14056   */\n      0x20\n        /* \"#utility.yul\":14049:14051   */\n      0x1f\n        /* \"#utility.yul\":14042:14047   */\n      dup4\n        /* \"#utility.yul\":14038:14052   */\n      add\n        /* \"#utility.yul\":14034:14057   */\n      div\n        /* \"#utility.yul\":14024:14057   */\n      swap1\n      pop\n        /* \"#utility.yul\":13970:14063   */\n      swap2\n      swap1\n      pop\n      jump\t// out\n        /* \"#utility.yul\":14069:14176   */\n    tag_162:\n        /* \"#utility.yul\":14113:14121   */\n      0x00\n        /* \"#utility.yul\":14163:14168   */\n      dup3\n        /* \"#utility.yul\":14157:14161   */\n      dup3\n        /* \"#utility.yul\":14153:14169   */\n      shl\n        /* \"#utility.yul\":14132:14169   */\n      swap1\n      pop\n        /* \"#utility.yul\":14069:14176   */\n      swap3\n      swap2\n      pop\n      pop\n      jump\t// out\n        /* \"#utility.yul\":14182:14575   */\n    tag_163:\n        /* \"#utility.yul\":14251:14257   */\n      0x00\n        /* \"#utility.yul\":14301:14302   */\n      0x08\n        /* \"#utility.yul\":14289:14299   */\n      dup4\n        /* \"#utility.yul\":14285:14303   */\n      mul\n        /* \"#utility.yul\":14324:14421   */\n      tag_328\n        /* \"#utility.yul\":14354:14420   */\n      0xffffffffffffffffffffffffffffffffffffffffffffffffffffffffffffffff\n        /* \"#utility.yul\":14343:14352   */\n      dup3\n        /* \"#utility.yul\":14324:14421   */\n      tag_162\n      jump\t// in\n    tag_328:\n        /* \"#utility.yul\":14442:14481   */\n      tag_329\n        /* \"#utility.yul\":14472:14480   */\n      dup7\n        /* \"#utility.yul\":14461:14470   */\n      dup4\n        /* \"#utility.yul\":14442:14481   */\n      tag_162\n      jump\t// in\n    tag_329:\n        /* \"#utility.yul\":14430:14481   */\n      swap6\n      pop\n        /* \"#utility.yul\":14514:14518   */\n      dup1\n        /* \"#utility.yul\":14510:14519   */\n      not\n        /* \"#utility.yul\":14503:14508   */\n      dup5\n        /* \"#utility.yul\":14499:14520   */\n      and\n        /* \"#utility.yul\":14490:14520   */\n      swap4\n      pop\n        /* \"#utility.yul\":14563:14567   */\n      dup1\n        /* \"#utility.yul\":14553:14561   */\n      dup7\n        /* \"#utility.yul\":14549:14568   */\n      and\n        /* \"#utility.yul\":14542:14547   */\n      dup5\n        /* \"#utility.yul\":14539:14569   */\n      or\n        /* \"#utility.yul\":14529:14569   */\n      swap3\n      pop\n        /* \"#utility.yul\":14258:14575   */\n      pop\n      pop\n        /* \"#utility.yul\":14182:14575   */\n      swap4\n      swap3\n      pop\n      pop\n      pop\n      jump\t// out\n        /* \"#utility.yul\":14581:14641   */\n    tag_164:\n        /* \"#utility.yul\":14609:14612   */\n      0x00\n        /* \"#utility.yul\":14630:14635   */\n      dup2\n        /* \"#utility.yul\":14623:14635   */\n      swap1\n      pop\n        /* \"#utility.yul\":14581:14641   */\n      swap2\n      swap1\n      pop\n      jump\t// out\n        /* \"#utility.yul\":14647:14789   */\n    tag_165:\n        /* \"#utility.yul\":14697:14706   */\n      0x00\n        /* \"#utility.yul\":14730:14783   */\n      tag_332\n        /* \"#utility.yul\":14748:14782   */\n      tag_333\n        /* \"#utility.yul\":14757:14781   */\n      tag_334\n        /* \"#utility.yul\":14775:14780   */\n      dup5\n        /* \"#utility.yul\":14757:14781   */\n      tag_125\n      jump\t// in\n    tag_334:\n        /* \"#utility.yul\":14748:14782   */\n      tag_164\n      jump\t// in\n    tag_333:\n        /* \"#utility.yul\":14730:14783   */\n      tag_125\n      jump\t// in\n    tag_332:\n        /* \"#utility.yul\":14717:14783   */\n      swap1\n      pop\n        /* \"#utility.yul\":14647:14789   */\n      swap2\n      swap1\n      pop\n      jump\t// out\n        /* \"#utility.yul\":14795:14870   */\n    tag_166:\n        /* \"#utility.yul\":14838:14841   */\n      0x00\n        /* \"#utility.yul\":14859:14864   */\n      dup2\n        /* \"#utility.yul\":14852:14864   */\n      swap1\n      pop\n        /* \"#utility.yul\":14795:14870   */\n      swap2\n      swap1\n      pop\n      jump\t// out\n        /* \"#utility.yul\":14876:15145   */\n    tag_167:\n        /* \"#utility.yul\":14986:15025   */\n      tag_337\n        /* \"#utility.yul\":15017:15024   */\n      dup4\n        /* \"#utility.yul\":14986:15025   */\n      tag_165\n      jump\t// in\n    tag_337:\n        /* \"#utility.yul\":15047:15138   */\n      tag_338\n        /* \"#utility.yul\":15096:15137   */\n      tag_339\n        /* \"#utility.yul\":15120:15136   */\n      dup3\n        /* \"#utility.yul\":15096:15137   */\n      tag_166\n      jump\t// in\n    tag_339:\n        /* \"#utility.yul\":15088:15094   */\n      dup5\n        /* \"#utility.yul\":15081:15085   */\n      dup5\n        /* \"#utility.yul\":15075:15086   */\n      sload\n        /* \"#utility.yul\":15047:15138   */\n      tag_163\n      jump\t// in\n    tag_338:\n        /* \"#utility.yul\":15041:15045   */\n      dup3\n        /* \"#utility.yul\":15034:15139   */\n      sstore\n        /* \"#utility.yul\":14952:15145   */\n      pop\n        /* \"#utility.yul\":14876:15145   */\n      pop\n      pop\n      pop\n      jump\t// out\n        /* \"#utility.yul\":15151:15224   */\n    tag_168:\n        /* \"#utility.yul\":15196:15199   */\n      0x00\n        /* \"#utility.yul\":15151:15224   */\n      swap1\n      jump\t// out\n        /* \"#utility.yul\":15230:15419   */\n    tag_169:\n        /* \"#utility.yul\":15307:15339   */\n      tag_342\n      tag_168\n      jump\t// in\n    tag_342:\n        /* \"#utility.yul\":15348:15413   */\n      tag_343\n        /* \"#utility.yul\":15406:15412   */\n      dup2\n        /* \"#utility.yul\":15398:15404   */\n      dup5\n        /* \"#utility.yul\":15392:15396   */\n      dup5\n        /* \"#utility.yul\":15348:15413   */\n      tag_167\n      jump\t// in\n    tag_343:\n        /* \"#utility.yul\":15283:15419   */\n      pop\n        /* \"#utility.yul\":15230:15419   */\n      pop\n      pop\n      jump\t// out\n        /* \"#utility.yul\":15425:15611   */\n    tag_170:\n        /* \"#utility.yul\":15485:15605   */\n    tag_345:\n        /* \"#utility.yul\":15502:15505   */\n      dup2\n        /* \"#utility.yul\":15495:15500   */\n      dup2\n        /* \"#utility.yul\":15492:15506   */\n      lt\n        /* \"#utility.yul\":15485:15605   */\n      iszero\n      tag_347\n      jumpi\n        /* \"#utility.yul\":15556:15595   */\n      tag_348\n        /* \"#utility.yul\":15593:15594   */\n      0x00\n        /* \"#utility.yul\":15586:15591   */\n      dup3\n        /* \"#utility.yul\":15556:15595   */\n      tag_169\n      jump\t// in\n    tag_348:\n        /* \"#utility.yul\":15529:15530   */\n      0x01\n        /* \"#utility.yul\":15522:15527   */\n      dup2\n        /* \"#utility.yul\":15518:15531   */\n      add\n        /* \"#utility.yul\":15509:15531   */\n      swap1\n      pop\n        /* \"#utility.yul\":15485:15605   */\n      jump(tag_345)\n    tag_347:\n        /* \"#utility.yul\":15425:15611   */\n      pop\n      pop\n      jump\t// out\n        /* \"#utility.yul\":15617:16160   */\n    tag_171:\n        /* \"#utility.yul\":15718:15720   */\n      0x1f\n        /* \"#utility.yul\":15713:15716   */\n      dup3\n        /* \"#utility.yul\":15710:15721   */\n      gt\n        /* \"#utility.yul\":15707:16153   */\n      iszero\n      tag_350\n      jumpi\n        /* \"#utility.yul\":15752:15790   */\n      tag_351\n        /* \"#utility.yul\":15784:15789   */\n      dup2\n        /* \"#utility.yul\":15752:15790   */\n      tag_160\n      jump\t// in\n    tag_351:\n        /* \"#utility.yul\":15836:15865   */\n      tag_352\n        /* \"#utility.yul\":15854:15864   */\n      dup5\n        /* \"#utility.yul\":15836:15865   */\n      tag_161\n      jump\t// in\n    tag_352:\n        /* \"#utility.yul\":15826:15834   */\n      dup2\n        /* \"#utility.yul\":15822:15866   */\n      add\n        /* \"#utility.yul\":16019:16021   */\n      0x20\n        /* \"#utility.yul\":16007:16017   */\n      dup6\n        /* \"#utility.yul\":16004:16022   */\n      lt\n        /* \"#utility.yul\":16001:16050   */\n      iszero\n      tag_353\n      jumpi\n        /* \"#utility.yul\":16040:16048   */\n      dup2\n        /* \"#utility.yul\":16025:16048   */\n      swap1\n      pop\n        /* \"#utility.yul\":16001:16050   */\n    tag_353:\n        /* \"#utility.yul\":16063:16143   */\n      tag_354\n        /* \"#utility.yul\":16119:16141   */\n      tag_355\n        /* \"#utility.yul\":16137:16140   */\n      dup6\n        /* \"#utility.yul\":16119:16141   */\n      tag_161\n      jump\t// in\n    tag_355:\n        /* \"#utility.yul\":16109:16117   */\n      dup4\n        /* \"#utility.yul\":16105:16142   */\n      add\n        /* \"#utility.yul\":16092:16103   */\n      dup3\n        /* \"#utility.yul\":16063:16143   */\n      tag_170\n      jump\t// in\n    tag_354:\n        /* \"#utility.yul\":15722:16153   */\n      pop\n      pop\n        /* \"#utility.yul\":15707:16153   */\n    tag_350:\n        /* \"#utility.yul\":15617:16160   */\n      pop\n      pop\n      pop\n      jump\t// out\n        /* \"#utility.yul\":16166:16283   */\n    tag_172:\n        /* \"#utility.yul\":16220:16228   */\n      0x00\n        /* \"#utility.yul\":16270:16275   */\n      dup3\n        /* \"#utility.yul\":16264:16268   */\n      dup3\n        /* \"#utility.yul\":16260:16276   */\n      shr\n        /* \"#utility.yul\":16239:16276   */\n      swap1\n      pop\n        /* \"#utility.yul\":16166:16283   */\n      swap3\n      swap2\n      pop\n      pop\n      jump\t// out\n        /* \"#utility.yul\":16289:16458   */\n    tag_173:\n        /* \"#utility.yul\":16333:16339   */\n      0x00\n        /* \"#utility.yul\":16366:16417   */\n      tag_358\n        /* \"#utility.yul\":16414:16415   */\n      0x00\n        /* \"#utility.yul\":16410:16416   */\n      not\n        /* \"#utility.yul\":16402:16407   */\n      dup5\n        /* \"#utility.yul\":16399:16400   */\n      0x08\n        /* \"#utility.yul\":16395:16408   */\n      mul\n        /* \"#utility.yul\":16366:16417   */\n      tag_172\n      jump\t// in\n    tag_358:\n        /* \"#utility.yul\":16362:16418   */\n      not\n        /* \"#utility.yul\":16447:16451   */\n      dup1\n        /* \"#utility.yul\":16441:16445   */\n      dup4\n        /* \"#utility.yul\":16437:16452   */\n      and\n        /* \"#utility.yul\":16427:16452   */\n      swap2\n      pop\n        /* \"#utility.yul\":16340:16458   */\n      pop\n        /* \"#utility.yul\":16289:16458   */\n      swap3\n      swap2\n      pop\n      pop\n      jump\t// out\n        /* \"#utility.yul\":16463:16758   */\n    tag_174:\n        /* \"#utility.yul\":16539:16543   */\n      0x00\n        /* \"#utility.yul\":16685:16714   */\n      tag_360\n        /* \"#utility.yul\":16710:16713   */\n      dup4\n        /* \"#utility.yul\":16704:16708   */\n      dup4\n        /* \"#utility.yul\":16685:16714   */\n      tag_173\n      jump\t// in\n    tag_360:\n        /* \"#utility.yul\":16677:16714   */\n      swap2\n      pop\n        /* \"#utility.yul\":16747:16750   */\n      dup3\n        /* \"#utility.yul\":16744:16745   */\n      0x02\n        /* \"#utility.yul\":16740:16751   */\n      mul\n        /* \"#utility.yul\":16734:16738   */\n      dup3\n        /* \"#utility.yul\":16731:16752   */\n      or\n        /* \"#utility.yul\":16723:16752   */\n      swap1\n      pop\n        /* \"#utility.yul\":16463:16758   */\n      swap3\n      swap2\n      pop\n      pop\n      jump\t// out\n        /* \"#utility.yul\":16763:18158   */\n    tag_79:\n        /* \"#utility.yul\":16880:16917   */\n      tag_362\n        /* \"#utility.yul\":16913:16916   */\n      dup3\n        /* \"#utility.yul\":16880:16917   */\n      tag_146\n      jump\t// in\n    tag_362:\n        /* \"#utility.yul\":16982:17000   */\n      0xffffffffffffffff\n        /* \"#utility.yul\":16974:16980   */\n      dup2\n        /* \"#utility.yul\":16971:17001   */\n      gt\n        /* \"#utility.yul\":16968:17024   */\n      iszero\n      tag_363\n      jumpi\n        /* \"#utility.yul\":17004:17022   */\n      tag_364\n      tag_133\n      jump\t// in\n    tag_364:\n        /* \"#utility.yul\":16968:17024   */\n    tag_363:\n        /* \"#utility.yul\":17048:17086   */\n      tag_365\n        /* \"#utility.yul\":17080:17084   */\n      dup3\n        /* \"#utility.yul\":17074:17085   */\n      sload\n        /* \"#utility.yul\":17048:17086   */\n      tag_82\n      jump\t// in\n    tag_365:\n        /* \"#utility.yul\":17133:17200   */\n      tag_366\n        /* \"#utility.yul\":17193:17199   */\n      dup3\n        /* \"#utility.yul\":17185:17191   */\n      dup3\n        /* \"#utility.yul\":17179:17183   */\n      dup6\n        /* \"#utility.yul\":17133:17200   */\n      tag_171\n      jump\t// in\n    tag_366:\n        /* \"#utility.yul\":17227:17228   */\n      0x00\n        /* \"#utility.yul\":17251:17255   */\n      0x20\n        /* \"#utility.yul\":17238:17255   */\n      swap1\n      pop\n        /* \"#utility.yul\":17283:17285   */\n      0x1f\n        /* \"#utility.yul\":17275:17281   */\n      dup4\n        /* \"#utility.yul\":17272:17286   */\n      gt\n        /* \"#utility.yul\":17300:17301   */\n      0x01\n        /* \"#utility.yul\":17295:17913   */\n      dup2\n      eq\n      tag_368\n      jumpi\n        /* \"#utility.yul\":17957:17958   */\n      0x00\n        /* \"#utility.yul\":17974:17980   */\n      dup5\n        /* \"#utility.yul\":17971:18048   */\n      iszero\n      tag_369\n      jumpi\n        /* \"#utility.yul\":18023:18032   */\n      dup3\n        /* \"#utility.yul\":18018:18021   */\n      dup8\n        /* \"#utility.yul\":18014:18033   */\n      add\n        /* \"#utility.yul\":18008:18034   */\n      mload\n        /* \"#utility.yul\":17999:18034   */\n      swap1\n      pop\n        /* \"#utility.yul\":17971:18048   */\n    tag_369:\n        /* \"#utility.yul\":18074:18141   */\n      tag_370\n        /* \"#utility.yul\":18134:18140   */\n      dup6\n        /* \"#utility.yul\":18127:18132   */\n      dup3\n        /* \"#utility.yul\":18074:18141   */\n      tag_174\n      jump\t// in\n    tag_370:\n        /* \"#utility.yul\":18068:18072   */\n      dup7\n        /* \"#utility.yul\":18061:18142   */\n      sstore\n        /* \"#utility.yul\":17930:18152   */\n      pop\n        /* \"#utility.yul\":17265:18152   */\n      jump(tag_367)\n        /* \"#utility.yul\":17295:17913   */\n    tag_368:\n        /* \"#utility.yul\":17347:17351   */\n      0x1f\n        /* \"#utility.yul\":17343:17352   */\n      not\n        /* \"#utility.yul\":17335:17341   */\n      dup5\n        /* \"#utility.yul\":17331:17353   */\n      and\n        /* \"#utility.yul\":17381:17418   */\n      tag_371\n        /* \"#utility.yul\":17413:17417   */\n      dup7\n        /* \"#utility.yul\":17381:17418   */\n      tag_160\n      jump\t// in\n    tag_371:\n        /* \"#utility.yul\":17440:17441   */\n      0x00\n        /* \"#utility.yul\":17454:17662   */\n    tag_372:\n        /* \"#utility.yul\":17468:17475   */\n      dup3\n        /* \"#utility.yul\":17465:17466   */\n      dup2\n        /* \"#utility.yul\":17462:17476   */\n      lt\n        /* \"#utility.yul\":17454:17662   */\n      iszero\n      tag_374\n      jumpi\n        /* \"#utility.yul\":17547:17556   */\n      dup5\n        /* \"#utility.yul\":17542:17545   */\n      dup10\n        /* \"#utility.yul\":17538:17557   */\n      add\n        /* \"#utility.yul\":17532:17558   */\n      mload\n        /* \"#utility.yul\":17524:17530   */\n      dup3\n        /* \"#utility.yul\":17517:17559   */\n      sstore\n        /* \"#utility.yul\":17598:17599   */\n      0x01\n        /* \"#utility.yul\":17590:17596   */\n      dup3\n        /* \"#utility.yul\":17586:17600   */\n      add\n        /* \"#utility.yul\":17576:17600   */\n      swap2\n      pop\n        /* \"#utility.yul\":17645:17647   */\n      0x20\n        /* \"#utility.yul\":17634:17643   */\n      dup6\n        /* \"#utility.yul\":17630:17648   */\n      add\n        /* \"#utility.yul\":17617:17648   */\n      swap5\n      pop\n        /* \"#utility.yul\":17491:17495   */\n      0x20\n        /* \"#utility.yul\":17488:17489   */\n      dup2\n        /* \"#utility.yul\":17484:17496   */\n      add\n        /* \"#utility.yul\":17479:17496   */\n      swap1\n      pop\n        /* \"#utility.yul\":17454:17662   */\n      jump(tag_372)\n    tag_374:\n        /* \"#utility.yul\":17690:17696   */\n      dup7\n        /* \"#utility.yul\":17681:17688   */\n      dup4\n        /* \"#utility.yul\":17678:17697   */\n      lt\n        /* \"#utility.yul\":17675:17854   */\n      iszero\n      tag_375\n      jumpi\n        /* \"#utility.yul\":17748:17757   */\n      dup5\n        /* \"#utility.yul\":17743:17746   */\n      dup10\n        /* \"#utility.yul\":17739:17758   */\n      add\n        /* \"#utility.yul\":17733:17759   */\n      mload\n        /* \"#utility.yul\":17791:17839   */\n      tag_376\n        /* \"#utility.yul\":17833:17837   */\n      0x1f\n        /* \"#utility.yul\":17825:17831   */\n      dup10\n        /* \"#utility.yul\":17821:17838   */\n      and\n        /* \"#utility.yul\":17810:17819   */\n      dup3\n        /* \"#utility.yul\":17791:17839   */\n      tag_173\n      jump\t// in\n    tag_376:\n        /* \"#utility.yul\":17783:17789   */\n      dup4\n        /* \"#utility.yul\":17776:17840   */\n      sstore\n        /* \"#utility.yul\":17698:17854   */\n      pop\n        /* \"#utility.yul\":17675:17854   */\n    tag_375:\n        /* \"#utility.yul\":17900:17901   */\n      0x01\n        /* \"#utility.yul\":17896:17897   */\n      0x02\n        /* \"#utility.yul\":17888:17894   */\n      dup9\n        /* \"#utility.yul\":17884:17898   */\n      mul\n        /* \"#utility.yul\":17880:17902   */\n      add\n        /* \"#utility.yul\":17874:17878   */\n      dup9\n        /* \"#utility.yul\":17867:17903   */\n      sstore\n        /* \"#utility.yul\":17302:17913   */\n      pop\n      pop\n      pop\n        /* \"#utility.yul\":17265:18152   */\n    tag_367:\n      pop\n        /* \"#utility.yul\":16855:18158   */\n      pop\n      pop\n      pop\n        /* \"#utility.yul\":16763:18158   */\n      pop\n      pop\n      jump\t// out\n        /* \"#utility.yul\":18164:18341   */\n    tag_175:\n        /* \"#utility.yul\":18304:18333   */\n      0x596f75206861766520612070656e64696e672062616c616e63652e0000000000\n        /* \"#utility.yul\":18300:18301   */\n      0x00\n        /* \"#utility.yul\":18292:18298   */\n      dup3\n        /* \"#utility.yul\":18288:18302   */\n      add\n        /* \"#utility.yul\":18281:18334   */\n      mstore\n        /* \"#utility.yul\":18164:18341   */\n      pop\n      jump\t// out\n        /* \"#utility.yul\":18347:18713   */\n    tag_176:\n        /* \"#utility.yul\":18489:18492   */\n      0x00\n        /* \"#utility.yul\":18510:18577   */\n      tag_379\n        /* \"#utility.yul\":18574:18576   */\n      0x1b\n        /* \"#utility.yul\":18569:18572   */\n      dup4\n        /* \"#utility.yul\":18510:18577   */\n      tag_147\n      jump\t// in\n    tag_379:\n        /* \"#utility.yul\":18503:18577   */\n      swap2\n      pop\n        /* \"#utility.yul\":18586:18679   */\n      tag_380\n        /* \"#utility.yul\":18675:18678   */\n      dup3\n        /* \"#utility.yul\":18586:18679   */\n      tag_175\n      jump\t// in\n    tag_380:\n        /* \"#utility.yul\":18704:18706   */\n      0x20\n        /* \"#utility.yul\":18699:18702   */\n      dup3\n        /* \"#utility.yul\":18695:18707   */\n      add\n        /* \"#utility.yul\":18688:18707   */\n      swap1\n      pop\n        /* \"#utility.yul\":18347:18713   */\n      swap2\n      swap1\n      pop\n      jump\t// out\n        /* \"#utility.yul\":18719:19138   */\n    tag_96:\n        /* \"#utility.yul\":18885:18889   */\n      0x00\n        /* \"#utility.yul\":18923:18925   */\n      0x20\n        /* \"#utility.yul\":18912:18921   */\n      dup3\n        /* \"#utility.yul\":18908:18926   */\n      add\n        /* \"#utility.yul\":18900:18926   */\n      swap1\n      pop\n        /* \"#utility.yul\":18972:18981   */\n      dup2\n        /* \"#utility.yul\":18966:18970   */\n      dup2\n        /* \"#utility.yul\":18962:18982   */\n      sub\n        /* \"#utility.yul\":18958:18959   */\n      0x00\n        /* \"#utility.yul\":18947:18956   */\n      dup4\n        /* \"#utility.yul\":18943:18960   */\n      add\n        /* \"#utility.yul\":18936:18983   */\n      mstore\n        /* \"#utility.yul\":19000:19131   */\n      tag_382\n        /* \"#utility.yul\":19126:19130   */\n      dup2\n        /* \"#utility.yul\":19000:19131   */\n      tag_176\n      jump\t// in\n    tag_382:\n        /* \"#utility.yul\":18992:19131   */\n      swap1\n      pop\n        /* \"#utility.yul\":18719:19138   */\n      swap2\n      swap1\n      pop\n      jump\t// out\n        /* \"#utility.yul\":19144:19323   */\n    tag_177:\n        /* \"#utility.yul\":19284:19315   */\n      0x596f752063616e6e6f742072656e7420617420746869732074696d652e000000\n        /* \"#utility.yul\":19280:19281   */\n      0x00\n        /* \"#utility.yul\":19272:19278   */\n      dup3\n        /* \"#utility.yul\":19268:19282   */\n      add\n        /* \"#utility.yul\":19261:19316   */\n      mstore\n        /* \"#utility.yul\":19144:19323   */\n      pop\n      jump\t// out\n        /* \"#utility.yul\":19329:19695   */\n    tag_178:\n        /* \"#utility.yul\":19471:19474   */\n      0x00\n        /* \"#utility.yul\":19492:19559   */\n      tag_385\n        /* \"#utility.yul\":19556:19558   */\n      0x1d\n        /* \"#utility.yul\":19551:19554   */\n      dup4\n        /* \"#utility.yul\":19492:19559   */\n      tag_147\n      jump\t// in\n    tag_385:\n        /* \"#utility.yul\":19485:19559   */\n      swap2\n      pop\n        /* \"#utility.yul\":19568:19661   */\n      tag_386\n        /* \"#utility.yul\":19657:19660   */\n      dup3\n        /* \"#utility.yul\":19568:19661   */\n      tag_177\n      jump\t// in\n    tag_386:\n        /* \"#utility.yul\":19686:19688   */\n      0x20\n        /* \"#utility.yul\":19681:19684   */\n      dup3\n        /* \"#utility.yul\":19677:19689   */\n      add\n        /* \"#utility.yul\":19670:19689   */\n      swap1\n      pop\n        /* \"#utility.yul\":19329:19695   */\n      swap2\n      swap1\n      pop\n      jump\t// out\n        /* \"#utility.yul\":19701:20120   */\n    tag_99:\n        /* \"#utility.yul\":19867:19871   */\n      0x00\n        /* \"#utility.yul\":19905:19907   */\n      0x20\n        /* \"#utility.yul\":19894:19903   */\n      dup3\n        /* \"#utility.yul\":19890:19908   */\n      add\n        /* \"#utility.yul\":19882:19908   */\n      swap1\n      pop\n        /* \"#utility.yul\":19954:19963   */\n      dup2\n        /* \"#utility.yul\":19948:19952   */\n      dup2\n        /* \"#utility.yul\":19944:19964   */\n      sub\n        /* \"#utility.yul\":19940:19941   */\n      0x00\n        /* \"#utility.yul\":19929:19938   */\n      dup4\n        /* \"#utility.yul\":19925:19942   */\n      add\n        /* \"#utility.yul\":19918:19965   */\n      mstore\n        /* \"#utility.yul\":19982:20113   */\n      tag_388\n        /* \"#utility.yul\":20108:20112   */\n      dup2\n        /* \"#utility.yul\":19982:20113   */\n      tag_178\n      jump\t// in\n    tag_388:\n        /* \"#utility.yul\":19974:20113   */\n      swap1\n      pop\n        /* \"#utility.yul\":19701:20120   */\n      swap2\n      swap1\n      pop\n      jump\t// out\n        /* \"#utility.yul\":20126:20303   */\n    tag_179:\n        /* \"#utility.yul\":20266:20295   */\n      0x506c6561736520636865636b206f7574206361722066697273742e0000000000\n        /* \"#utility.yul\":20262:20263   */\n      0x00\n        /* \"#utility.yul\":20254:20260   */\n      dup3\n        /* \"#utility.yul\":20250:20264   */\n      add\n        /* \"#utility.yul\":20243:20296   */\n      mstore\n        /* \"#utility.yul\":20126:20303   */\n      pop\n      jump\t// out\n        /* \"#utility.yul\":20309:20675   */\n    tag_180:\n        /* \"#utility.yul\":20451:20454   */\n      0x00\n        /* \"#utility.yul\":20472:20539   */\n      tag_391\n        /* \"#utility.yul\":20536:20538   */\n      0x1b\n        /* \"#utility.yul\":20531:20534   */\n      dup4\n        /* \"#utility.yul\":20472:20539   */\n      tag_147\n      jump\t// in\n    tag_391:\n        /* \"#utility.yul\":20465:20539   */\n      swap2\n      pop\n        /* \"#utility.yul\":20548:20641   */\n      tag_392\n        /* \"#utility.yul\":20637:20640   */\n      dup3\n        /* \"#utility.yul\":20548:20641   */\n      tag_179\n      jump\t// in\n    tag_392:\n        /* \"#utility.yul\":20666:20668   */\n      0x20\n        /* \"#utility.yul\":20661:20664   */\n      dup3\n        /* \"#utility.yul\":20657:20669   */\n      add\n        /* \"#utility.yul\":20650:20669   */\n      swap1\n      pop\n        /* \"#utility.yul\":20309:20675   */\n      swap2\n      swap1\n      pop\n      jump\t// out\n        /* \"#utility.yul\":20681:21100   */\n    tag_105:\n        /* \"#utility.yul\":20847:20851   */\n      0x00\n        /* \"#utility.yul\":20885:20887   */\n      0x20\n        /* \"#utility.yul\":20874:20883   */\n      dup3\n        /* \"#utility.yul\":20870:20888   */\n      add\n        /* \"#utility.yul\":20862:20888   */\n      swap1\n      pop\n        /* \"#utility.yul\":20934:20943   */\n      dup2\n        /* \"#utility.yul\":20928:20932   */\n      dup2\n        /* \"#utility.yul\":20924:20944   */\n      sub\n        /* \"#utility.yul\":20920:20921   */\n      0x00\n        /* \"#utility.yul\":20909:20918   */\n      dup4\n        /* \"#utility.yul\":20905:20922   */\n      add\n        /* \"#utility.yul\":20898:20945   */\n      mstore\n        /* \"#utility.yul\":20962:21093   */\n      tag_394\n        /* \"#utility.yul\":21088:21092   */\n      dup2\n        /* \"#utility.yul\":20962:21093   */\n      tag_180\n      jump\t// in\n    tag_394:\n        /* \"#utility.yul\":20954:21093   */\n      swap1\n      pop\n        /* \"#utility.yul\":20681:21100   */\n      swap2\n      swap1\n      pop\n      jump\t// out\n        /* \"#utility.yul\":21106:21297   */\n    tag_110:\n        /* \"#utility.yul\":21146:21149   */\n      0x00\n        /* \"#utility.yul\":21165:21185   */\n      tag_396\n        /* \"#utility.yul\":21183:21184   */\n      dup3\n        /* \"#utility.yul\":21165:21185   */\n      tag_125\n      jump\t// in\n    tag_396:\n        /* \"#utility.yul\":21160:21185   */\n      swap2\n      pop\n        /* \"#utility.yul\":21199:21219   */\n      tag_397\n        /* \"#utility.yul\":21217:21218   */\n      dup4\n        /* \"#utility.yul\":21199:21219   */\n      tag_125\n      jump\t// in\n    tag_397:\n        /* \"#utility.yul\":21194:21219   */\n      swap3\n      pop\n        /* \"#utility.yul\":21242:21243   */\n      dup3\n        /* \"#utility.yul\":21239:21240   */\n      dup3\n        /* \"#utility.yul\":21235:21244   */\n      add\n        /* \"#utility.yul\":21228:21244   */\n      swap1\n      pop\n        /* \"#utility.yul\":21263:21266   */\n      dup1\n        /* \"#utility.yul\":21260:21261   */\n      dup3\n        /* \"#utility.yul\":21257:21267   */\n      gt\n        /* \"#utility.yul\":21254:21290   */\n      iszero\n      tag_398\n      jumpi\n        /* \"#utility.yul\":21270:21288   */\n      tag_399\n      tag_155\n      jump\t// in\n    tag_399:\n        /* \"#utility.yul\":21254:21290   */\n    tag_398:\n        /* \"#utility.yul\":21106:21297   */\n      swap3\n      swap2\n      pop\n      pop\n      jump\t// out\n        /* \"#utility.yul\":21303:21713   */\n    tag_117:\n        /* \"#utility.yul\":21343:21350   */\n      0x00\n        /* \"#utility.yul\":21366:21386   */\n      tag_401\n        /* \"#utility.yul\":21384:21385   */\n      dup3\n        /* \"#utility.yul\":21366:21386   */\n      tag_125\n      jump\t// in\n    tag_401:\n        /* \"#utility.yul\":21361:21386   */\n      swap2\n      pop\n        /* \"#utility.yul\":21400:21420   */\n      tag_402\n        /* \"#utility.yul\":21418:21419   */\n      dup4\n        /* \"#utility.yul\":21400:21420   */\n      tag_125\n      jump\t// in\n    tag_402:\n        /* \"#utility.yul\":21395:21420   */\n      swap3\n      pop\n        /* \"#utility.yul\":21455:21456   */\n      dup3\n        /* \"#utility.yul\":21452:21453   */\n      dup3\n        /* \"#utility.yul\":21448:21457   */\n      mul\n        /* \"#utility.yul\":21477:21507   */\n      tag_403\n        /* \"#utility.yul\":21495:21506   */\n      dup2\n        /* \"#utility.yul\":21477:21507   */\n      tag_125\n      jump\t// in\n    tag_403:\n        /* \"#utility.yul\":21466:21507   */\n      swap2\n      pop\n        /* \"#utility.yul\":21656:21657   */\n      dup3\n        /* \"#utility.yul\":21647:21654   */\n      dup3\n        /* \"#utility.yul\":21643:21658   */\n      div\n        /* \"#utility.yul\":21640:21641   */\n      dup5\n        /* \"#utility.yul\":21637:21659   */\n      eq\n        /* \"#utility.yul\":21617:21618   */\n      dup4\n        /* \"#utility.yul\":21610:21619   */\n      iszero\n        /* \"#utility.yul\":21590:21673   */\n      or\n        /* \"#utility.yul\":21567:21706   */\n      tag_404\n      jumpi\n        /* \"#utility.yul\":21686:21704   */\n      tag_405\n      tag_155\n      jump\t// in\n    tag_405:\n        /* \"#utility.yul\":21567:21706   */\n    tag_404:\n        /* \"#utility.yul\":21351:21713   */\n      pop\n        /* \"#utility.yul\":21303:21713   */\n      swap3\n      swap2\n      pop\n      pop\n      jump\t// out\n\n    auxdata: 0xa26469706673582212202b291d71dd3af71172c84c34e7e11c5effb11ffea928bec41b298806f2dcd5c764736f6c63430008110033\n}\n",
				"bytecode": {
					"linkReferences": {},
					"object": "608060405234801561001057600080fd5b50336000806101000a81548173ffffffffffffffffffffffffffffffffffffffff021916908373ffffffffffffffffffffffffffffffffffffffff160217905550611ab6806100606000396000f3fe6080604052600436106100915760003560e01c80638d23caa0116100595780638d23caa014610188578063aad1b617146101b1578063af6143d3146101ee578063d9a59e331461022b578063f340fa011461025457610091565b8063300be4fc1461009657806341ba6e89146100b25780635e649727146100ef578063644a137014610118578063722713f71461015d575b600080fd5b6100b060048036038101906100ab9190610ed1565b610270565b005b3480156100be57600080fd5b506100d960048036038101906100d49190610ed1565b610507565b6040516100e69190610f17565b60405180910390f35b3480156100fb57600080fd5b506101166004803603810190610111919061111a565b61064b565b005b34801561012457600080fd5b5061013f600480360381019061013a9190610ed1565b6107ce565b604051610154999897969594939291906112b9565b60405180910390f35b34801561016957600080fd5b50610172610966565b60405161017f9190610f17565b60405180910390f35b34801561019457600080fd5b506101af60048036038101906101aa9190610ed1565b61096e565b005b3480156101bd57600080fd5b506101d860048036038101906101d39190610ed1565b610b88565b6040516101e59190610f17565b60405180910390f35b3480156101fa57600080fd5b5061021560048036038101906102109190610ed1565b610bd4565b6040516102229190611354565b60405180910390f35b34801561023757600080fd5b50610252600480360381019061024d9190610ed1565b610c2d565b005b61026e60048036038101906102699190610ed1565b610d71565b005b6000600160008373ffffffffffffffffffffffffffffffffffffffff1673ffffffffffffffffffffffffffffffffffffffff16815260200190815260200160002060050154116102f5576040517f08c379a00000000000000000000000000000000000000000000000000000000081526004016102ec906113e1565b60405180910390fd5b34600160008373ffffffffffffffffffffffffffffffffffffffff1673ffffffffffffffffffffffffffffffffffffffff1681526020019081526020016000206004015411610379576040517f08c379a000000000000000000000000000000000000000000000000000000000815260040161037090611499565b60405180910390fd5b34600160008373ffffffffffffffffffffffffffffffffffffffff1673ffffffffffffffffffffffffffffffffffffffff16815260200190815260200160002060040160008282546103cb91906114e8565b9250508190555060018060008373ffffffffffffffffffffffffffffffffffffffff1673ffffffffffffffffffffffffffffffffffffffff16815260200190815260200160002060030160006101000a81548160ff0219169083151502179055506000600160008373ffffffffffffffffffffffffffffffffffffffff1673ffffffffffffffffffffffffffffffffffffffff168152602001908152602001600020600501819055506000600160008373ffffffffffffffffffffffffffffffffffffffff1673ffffffffffffffffffffffffffffffffffffffff168152602001908152602001600020600601819055506000600160008373ffffffffffffffffffffffffffffffffffffffff1673ffffffffffffffffffffffffffffffffffffffff1681526020019081526020016000206007018190555050565b6000801515600160008473ffffffffffffffffffffffffffffffffffffffff1673ffffffffffffffffffffffffffffffffffffffff16815260200190815260200160002060030160019054906101000a900460ff1615151461059e576040517f08c379a000000000000000000000000000000000000000000000000000000000815260040161059590611568565b60405180910390fd5b600061062e600160008573ffffffffffffffffffffffffffffffffffffffff1673ffffffffffffffffffffffffffffffffffffffff16815260200190815260200160002060060154600160008673ffffffffffffffffffffffffffffffffffffffff1673ffffffffffffffffffffffffffffffffffffffff16815260200190815260200160002060070154610dcd565b90506000603c8261063f91906115b7565b90508092505050919050565b6040518061012001604052808a73ffffffffffffffffffffffffffffffffffffffff1681526020018981526020018881526020018715158152602001861515815260200185815260200184815260200183815260200182815250600160008b73ffffffffffffffffffffffffffffffffffffffff1673ffffffffffffffffffffffffffffffffffffffff16815260200190815260200160002060008201518160000160006101000a81548173ffffffffffffffffffffffffffffffffffffffff021916908373ffffffffffffffffffffffffffffffffffffffff160217905550602082015181600101908161074091906117f4565b50604082015181600201908161075691906117f4565b5060608201518160030160006101000a81548160ff02191690831515021790555060808201518160030160016101000a81548160ff02191690831515021790555060a0820151816004015560c0820151816005015560e082015181600601556101008201518160070155905050505050505050505050565b60016020528060005260406000206000915090508060000160009054906101000a900473ffffffffffffffffffffffffffffffffffffffff169080600101805461081790611617565b80601f016020809104026020016040519081016040528092919081815260200182805461084390611617565b80156108905780601f1061086557610100808354040283529160200191610890565b820191906000526020600020905b81548152906001019060200180831161087357829003601f168201915b5050505050908060020180546108a590611617565b80601f01602080910402602001604051908101604052809291908181526020018280546108d190611617565b801561091e5780601f106108f35761010080835404028352916020019161091e565b820191906000526020600020905b81548152906001019060200180831161090157829003601f168201915b5050505050908060030160009054906101000a900460ff16908060030160019054906101000a900460ff16908060040154908060050154908060060154908060070154905089565b600047905090565b6000600160008373ffffffffffffffffffffffffffffffffffffffff1673ffffffffffffffffffffffffffffffffffffffff16815260200190815260200160002060050154146109f3576040517f08c379a00000000000000000000000000000000000000000000000000000000081526004016109ea90611912565b60405180910390fd5b60011515600160008373ffffffffffffffffffffffffffffffffffffffff1673ffffffffffffffffffffffffffffffffffffffff16815260200190815260200160002060030160009054906101000a900460ff16151514610a89576040517f08c379a0000000000000000000000000000000000000000000000000000000008152600401610a809061197e565b60405180910390fd5b60018060008373ffffffffffffffffffffffffffffffffffffffff1673ffffffffffffffffffffffffffffffffffffffff16815260200190815260200160002060030160016101000a81548160ff02191690831515021790555042600160008373ffffffffffffffffffffffffffffffffffffffff1673ffffffffffffffffffffffffffffffffffffffff168152602001908152602001600020600601819055506000600160008373ffffffffffffffffffffffffffffffffffffffff1673ffffffffffffffffffffffffffffffffffffffff16815260200190815260200160002060030160006101000a81548160ff02191690831515021790555050565b6000600160008373ffffffffffffffffffffffffffffffffffffffff1673ffffffffffffffffffffffffffffffffffffffff168152602001908152602001600020600401549050919050565b6000600160008373ffffffffffffffffffffffffffffffffffffffff1673ffffffffffffffffffffffffffffffffffffffff16815260200190815260200160002060030160009054906101000a900460ff169050919050565b60011515600160008373ffffffffffffffffffffffffffffffffffffffff1673ffffffffffffffffffffffffffffffffffffffff16815260200190815260200160002060030160019054906101000a900460ff16151514610cc3576040517f08c379a0000000000000000000000000000000000000000000000000000000008152600401610cba906119ea565b60405180910390fd5b6000600160008373ffffffffffffffffffffffffffffffffffffffff1673ffffffffffffffffffffffffffffffffffffffff16815260200190815260200160002060030160016101000a81548160ff02191690831515021790555042600160008373ffffffffffffffffffffffffffffffffffffffff1673ffffffffffffffffffffffffffffffffffffffff16815260200190815260200160002060070181905550610d6e81610de3565b50565b34600160008373ffffffffffffffffffffffffffffffffffffffff1673ffffffffffffffffffffffffffffffffffffffff1681526020019081526020016000206004016000828254610dc39190611a0a565b9250508190555050565b60008282610ddb91906114e8565b905092915050565b6000610dee82610507565b90506000600582610dff91906115b7565b90506611c37937e0800081610e149190611a3e565b600160008573ffffffffffffffffffffffffffffffffffffffff1673ffffffffffffffffffffffffffffffffffffffff16815260200190815260200160002060050181905550505050565b6000604051905090565b600080fd5b600080fd5b600073ffffffffffffffffffffffffffffffffffffffff82169050919050565b6000610e9e82610e73565b9050919050565b610eae81610e93565b8114610eb957600080fd5b50565b600081359050610ecb81610ea5565b92915050565b600060208284031215610ee757610ee6610e69565b5b6000610ef584828501610ebc565b91505092915050565b6000819050919050565b610f1181610efe565b82525050565b6000602082019050610f2c6000830184610f08565b92915050565b6000610f3d82610e73565b9050919050565b610f4d81610f32565b8114610f5857600080fd5b50565b600081359050610f6a81610f44565b92915050565b600080fd5b600080fd5b6000601f19601f8301169050919050565b7f4e487b7100000000000000000000000000000000000000000000000000000000600052604160045260246000fd5b610fc382610f7a565b810181811067ffffffffffffffff82111715610fe257610fe1610f8b565b5b80604052505050565b6000610ff5610e5f565b90506110018282610fba565b919050565b600067ffffffffffffffff82111561102157611020610f8b565b5b61102a82610f7a565b9050602081019050919050565b82818337600083830152505050565b600061105961105484611006565b610feb565b90508281526020810184848401111561107557611074610f75565b5b611080848285611037565b509392505050565b600082601f83011261109d5761109c610f70565b5b81356110ad848260208601611046565b91505092915050565b60008115159050919050565b6110cb816110b6565b81146110d657600080fd5b50565b6000813590506110e8816110c2565b92915050565b6110f781610efe565b811461110257600080fd5b50565b600081359050611114816110ee565b92915050565b60008060008060008060008060006101208a8c03121561113d5761113c610e69565b5b600061114b8c828d01610f5b565b99505060208a013567ffffffffffffffff81111561116c5761116b610e6e565b5b6111788c828d01611088565b98505060408a013567ffffffffffffffff81111561119957611198610e6e565b5b6111a58c828d01611088565b97505060606111b68c828d016110d9565b96505060806111c78c828d016110d9565b95505060a06111d88c828d01611105565b94505060c06111e98c828d01611105565b93505060e06111fa8c828d01611105565b92505061010061120c8c828d01611105565b9150509295985092959850929598565b61122581610f32565b82525050565b600081519050919050565b600082825260208201905092915050565b60005b8381101561126557808201518184015260208101905061124a565b60008484015250505050565b600061127c8261122b565b6112868185611236565b9350611296818560208601611247565b61129f81610f7a565b840191505092915050565b6112b3816110b6565b82525050565b6000610120820190506112cf600083018c61121c565b81810360208301526112e1818b611271565b905081810360408301526112f5818a611271565b905061130460608301896112aa565b61131160808301886112aa565b61131e60a0830187610f08565b61132b60c0830186610f08565b61133860e0830185610f08565b611346610100830184610f08565b9a9950505050505050505050565b600060208201905061136960008301846112aa565b92915050565b7f596f7520646f206e6f74206861766520616e797468696e67206475652061742060008201527f746869732074696d652e00000000000000000000000000000000000000000000602082015250565b60006113cb602a83611236565b91506113d68261136f565b604082019050919050565b600060208201905081810360008301526113fa816113be565b9050919050565b7f596f7520646f206e6f74206861766520656e6f7567682066756e647320746f2060008201527f636f766572207061796d656e742e20506c65617365206d616b6520612064657060208201527f6f7369742e000000000000000000000000000000000000000000000000000000604082015250565b6000611483604583611236565b915061148e82611401565b606082019050919050565b600060208201905081810360008301526114b281611476565b9050919050565b7f4e487b7100000000000000000000000000000000000000000000000000000000600052601160045260246000fd5b60006114f382610efe565b91506114fe83610efe565b9250828203905081811115611516576115156114b9565b5b92915050565b7f4361722069732063757272656e746c7920636865636b6564206f75742e000000600082015250565b6000611552601d83611236565b915061155d8261151c565b602082019050919050565b6000602082019050818103600083015261158181611545565b9050919050565b7f4e487b7100000000000000000000000000000000000000000000000000000000600052601260045260246000fd5b60006115c282610efe565b91506115cd83610efe565b9250826115dd576115dc611588565b5b828204905092915050565b7f4e487b7100000000000000000000000000000000000000000000000000000000600052602260045260246000fd5b6000600282049050600182168061162f57607f821691505b602082108103611642576116416115e8565b5b50919050565b60008190508160005260206000209050919050565b60006020601f8301049050919050565b600082821b905092915050565b6000600883026116aa7fffffffffffffffffffffffffffffffffffffffffffffffffffffffffffffffff8261166d565b6116b4868361166d565b95508019841693508086168417925050509392505050565b6000819050919050565b60006116f16116ec6116e784610efe565b6116cc565b610efe565b9050919050565b6000819050919050565b61170b836116d6565b61171f611717826116f8565b84845461167a565b825550505050565b600090565b611734611727565b61173f818484611702565b505050565b5b818110156117635761175860008261172c565b600181019050611745565b5050565b601f8211156117a85761177981611648565b6117828461165d565b81016020851015611791578190505b6117a561179d8561165d565b830182611744565b50505b505050565b600082821c905092915050565b60006117cb600019846008026117ad565b1980831691505092915050565b60006117e483836117ba565b9150826002028217905092915050565b6117fd8261122b565b67ffffffffffffffff81111561181657611815610f8b565b5b6118208254611617565b61182b828285611767565b600060209050601f83116001811461185e576000841561184c578287015190505b61185685826117d8565b8655506118be565b601f19841661186c86611648565b60005b828110156118945784890151825560018201915060208501945060208101905061186f565b868310156118b157848901516118ad601f8916826117ba565b8355505b6001600288020188555050505b505050505050565b7f596f75206861766520612070656e64696e672062616c616e63652e0000000000600082015250565b60006118fc601b83611236565b9150611907826118c6565b602082019050919050565b6000602082019050818103600083015261192b816118ef565b9050919050565b7f596f752063616e6e6f742072656e7420617420746869732074696d652e000000600082015250565b6000611968601d83611236565b915061197382611932565b602082019050919050565b600060208201905081810360008301526119978161195b565b9050919050565b7f506c6561736520636865636b206f7574206361722066697273742e0000000000600082015250565b60006119d4601b83611236565b91506119df8261199e565b602082019050919050565b60006020820190508181036000830152611a03816119c7565b9050919050565b6000611a1582610efe565b9150611a2083610efe565b9250828201905080821115611a3857611a376114b9565b5b92915050565b6000611a4982610efe565b9150611a5483610efe565b9250828202611a6281610efe565b91508282048414831517611a7957611a786114b9565b5b509291505056fea26469706673582212202b291d71dd3af71172c84c34e7e11c5effb11ffea928bec41b298806f2dcd5c764736f6c63430008110033",
					"opcodes": "PUSH1 0x80 PUSH1 0x40 MSTORE CALLVALUE DUP1 ISZERO PUSH2 0x10 JUMPI PUSH1 0x0 DUP1 REVERT JUMPDEST POP CALLER PUSH1 0x0 DUP1 PUSH2 0x100 EXP DUP2 SLOAD DUP2 PUSH20 0xFFFFFFFFFFFFFFFFFFFFFFFFFFFFFFFFFFFFFFFF MUL NOT AND SWAP1 DUP4 PUSH20 0xFFFFFFFFFFFFFFFFFFFFFFFFFFFFFFFFFFFFFFFF AND MUL OR SWAP1 SSTORE POP PUSH2 0x1AB6 DUP1 PUSH2 0x60 PUSH1 0x0 CODECOPY PUSH1 0x0 RETURN INVALID PUSH1 0x80 PUSH1 0x40 MSTORE PUSH1 0x4 CALLDATASIZE LT PUSH2 0x91 JUMPI PUSH1 0x0 CALLDATALOAD PUSH1 0xE0 SHR DUP1 PUSH4 0x8D23CAA0 GT PUSH2 0x59 JUMPI DUP1 PUSH4 0x8D23CAA0 EQ PUSH2 0x188 JUMPI DUP1 PUSH4 0xAAD1B617 EQ PUSH2 0x1B1 JUMPI DUP1 PUSH4 0xAF6143D3 EQ PUSH2 0x1EE JUMPI DUP1 PUSH4 0xD9A59E33 EQ PUSH2 0x22B JUMPI DUP1 PUSH4 0xF340FA01 EQ PUSH2 0x254 JUMPI PUSH2 0x91 JUMP JUMPDEST DUP1 PUSH4 0x300BE4FC EQ PUSH2 0x96 JUMPI DUP1 PUSH4 0x41BA6E89 EQ PUSH2 0xB2 JUMPI DUP1 PUSH4 0x5E649727 EQ PUSH2 0xEF JUMPI DUP1 PUSH4 0x644A1370 EQ PUSH2 0x118 JUMPI DUP1 PUSH4 0x722713F7 EQ PUSH2 0x15D JUMPI JUMPDEST PUSH1 0x0 DUP1 REVERT JUMPDEST PUSH2 0xB0 PUSH1 0x4 DUP1 CALLDATASIZE SUB DUP2 ADD SWAP1 PUSH2 0xAB SWAP2 SWAP1 PUSH2 0xED1 JUMP JUMPDEST PUSH2 0x270 JUMP JUMPDEST STOP JUMPDEST CALLVALUE DUP1 ISZERO PUSH2 0xBE JUMPI PUSH1 0x0 DUP1 REVERT JUMPDEST POP PUSH2 0xD9 PUSH1 0x4 DUP1 CALLDATASIZE SUB DUP2 ADD SWAP1 PUSH2 0xD4 SWAP2 SWAP1 PUSH2 0xED1 JUMP JUMPDEST PUSH2 0x507 JUMP JUMPDEST PUSH1 0x40 MLOAD PUSH2 0xE6 SWAP2 SWAP1 PUSH2 0xF17 JUMP JUMPDEST PUSH1 0x40 MLOAD DUP1 SWAP2 SUB SWAP1 RETURN JUMPDEST CALLVALUE DUP1 ISZERO PUSH2 0xFB JUMPI PUSH1 0x0 DUP1 REVERT JUMPDEST POP PUSH2 0x116 PUSH1 0x4 DUP1 CALLDATASIZE SUB DUP2 ADD SWAP1 PUSH2 0x111 SWAP2 SWAP1 PUSH2 0x111A JUMP JUMPDEST PUSH2 0x64B JUMP JUMPDEST STOP JUMPDEST CALLVALUE DUP1 ISZERO PUSH2 0x124 JUMPI PUSH1 0x0 DUP1 REVERT JUMPDEST POP PUSH2 0x13F PUSH1 0x4 DUP1 CALLDATASIZE SUB DUP2 ADD SWAP1 PUSH2 0x13A SWAP2 SWAP1 PUSH2 0xED1 JUMP JUMPDEST PUSH2 0x7CE JUMP JUMPDEST PUSH1 0x40 MLOAD PUSH2 0x154 SWAP10 SWAP9 SWAP8 SWAP7 SWAP6 SWAP5 SWAP4 SWAP3 SWAP2 SWAP1 PUSH2 0x12B9 JUMP JUMPDEST PUSH1 0x40 MLOAD DUP1 SWAP2 SUB SWAP1 RETURN JUMPDEST CALLVALUE DUP1 ISZERO PUSH2 0x169 JUMPI PUSH1 0x0 DUP1 REVERT JUMPDEST POP PUSH2 0x172 PUSH2 0x966 JUMP JUMPDEST PUSH1 0x40 MLOAD PUSH2 0x17F SWAP2 SWAP1 PUSH2 0xF17 JUMP JUMPDEST PUSH1 0x40 MLOAD DUP1 SWAP2 SUB SWAP1 RETURN JUMPDEST CALLVALUE DUP1 ISZERO PUSH2 0x194 JUMPI PUSH1 0x0 DUP1 REVERT JUMPDEST POP PUSH2 0x1AF PUSH1 0x4 DUP1 CALLDATASIZE SUB DUP2 ADD SWAP1 PUSH2 0x1AA SWAP2 SWAP1 PUSH2 0xED1 JUMP JUMPDEST PUSH2 0x96E JUMP JUMPDEST STOP JUMPDEST CALLVALUE DUP1 ISZERO PUSH2 0x1BD JUMPI PUSH1 0x0 DUP1 REVERT JUMPDEST POP PUSH2 0x1D8 PUSH1 0x4 DUP1 CALLDATASIZE SUB DUP2 ADD SWAP1 PUSH2 0x1D3 SWAP2 SWAP1 PUSH2 0xED1 JUMP JUMPDEST PUSH2 0xB88 JUMP JUMPDEST PUSH1 0x40 MLOAD PUSH2 0x1E5 SWAP2 SWAP1 PUSH2 0xF17 JUMP JUMPDEST PUSH1 0x40 MLOAD DUP1 SWAP2 SUB SWAP1 RETURN JUMPDEST CALLVALUE DUP1 ISZERO PUSH2 0x1FA JUMPI PUSH1 0x0 DUP1 REVERT JUMPDEST POP PUSH2 0x215 PUSH1 0x4 DUP1 CALLDATASIZE SUB DUP2 ADD SWAP1 PUSH2 0x210 SWAP2 SWAP1 PUSH2 0xED1 JUMP JUMPDEST PUSH2 0xBD4 JUMP JUMPDEST PUSH1 0x40 MLOAD PUSH2 0x222 SWAP2 SWAP1 PUSH2 0x1354 JUMP JUMPDEST PUSH1 0x40 MLOAD DUP1 SWAP2 SUB SWAP1 RETURN JUMPDEST CALLVALUE DUP1 ISZERO PUSH2 0x237 JUMPI PUSH1 0x0 DUP1 REVERT JUMPDEST POP PUSH2 0x252 PUSH1 0x4 DUP1 CALLDATASIZE SUB DUP2 ADD SWAP1 PUSH2 0x24D SWAP2 SWAP1 PUSH2 0xED1 JUMP JUMPDEST PUSH2 0xC2D JUMP JUMPDEST STOP JUMPDEST PUSH2 0x26E PUSH1 0x4 DUP1 CALLDATASIZE SUB DUP2 ADD SWAP1 PUSH2 0x269 SWAP2 SWAP1 PUSH2 0xED1 JUMP JUMPDEST PUSH2 0xD71 JUMP JUMPDEST STOP JUMPDEST PUSH1 0x0 PUSH1 0x1 PUSH1 0x0 DUP4 PUSH20 0xFFFFFFFFFFFFFFFFFFFFFFFFFFFFFFFFFFFFFFFF AND PUSH20 0xFFFFFFFFFFFFFFFFFFFFFFFFFFFFFFFFFFFFFFFF AND DUP2 MSTORE PUSH1 0x20 ADD SWAP1 DUP2 MSTORE PUSH1 0x20 ADD PUSH1 0x0 KECCAK256 PUSH1 0x5 ADD SLOAD GT PUSH2 0x2F5 JUMPI PUSH1 0x40 MLOAD PUSH32 0x8C379A000000000000000000000000000000000000000000000000000000000 DUP2 MSTORE PUSH1 0x4 ADD PUSH2 0x2EC SWAP1 PUSH2 0x13E1 JUMP JUMPDEST PUSH1 0x40 MLOAD DUP1 SWAP2 SUB SWAP1 REVERT JUMPDEST CALLVALUE PUSH1 0x1 PUSH1 0x0 DUP4 PUSH20 0xFFFFFFFFFFFFFFFFFFFFFFFFFFFFFFFFFFFFFFFF AND PUSH20 0xFFFFFFFFFFFFFFFFFFFFFFFFFFFFFFFFFFFFFFFF AND DUP2 MSTORE PUSH1 0x20 ADD SWAP1 DUP2 MSTORE PUSH1 0x20 ADD PUSH1 0x0 KECCAK256 PUSH1 0x4 ADD SLOAD GT PUSH2 0x379 JUMPI PUSH1 0x40 MLOAD PUSH32 0x8C379A000000000000000000000000000000000000000000000000000000000 DUP2 MSTORE PUSH1 0x4 ADD PUSH2 0x370 SWAP1 PUSH2 0x1499 JUMP JUMPDEST PUSH1 0x40 MLOAD DUP1 SWAP2 SUB SWAP1 REVERT JUMPDEST CALLVALUE PUSH1 0x1 PUSH1 0x0 DUP4 PUSH20 0xFFFFFFFFFFFFFFFFFFFFFFFFFFFFFFFFFFFFFFFF AND PUSH20 0xFFFFFFFFFFFFFFFFFFFFFFFFFFFFFFFFFFFFFFFF AND DUP2 MSTORE PUSH1 0x20 ADD SWAP1 DUP2 MSTORE PUSH1 0x20 ADD PUSH1 0x0 KECCAK256 PUSH1 0x4 ADD PUSH1 0x0 DUP3 DUP3 SLOAD PUSH2 0x3CB SWAP2 SWAP1 PUSH2 0x14E8 JUMP JUMPDEST SWAP3 POP POP DUP2 SWAP1 SSTORE POP PUSH1 0x1 DUP1 PUSH1 0x0 DUP4 PUSH20 0xFFFFFFFFFFFFFFFFFFFFFFFFFFFFFFFFFFFFFFFF AND PUSH20 0xFFFFFFFFFFFFFFFFFFFFFFFFFFFFFFFFFFFFFFFF AND DUP2 MSTORE PUSH1 0x20 ADD SWAP1 DUP2 MSTORE PUSH1 0x20 ADD PUSH1 0x0 KECCAK256 PUSH1 0x3 ADD PUSH1 0x0 PUSH2 0x100 EXP DUP2 SLOAD DUP2 PUSH1 0xFF MUL NOT AND SWAP1 DUP4 ISZERO ISZERO MUL OR SWAP1 SSTORE POP PUSH1 0x0 PUSH1 0x1 PUSH1 0x0 DUP4 PUSH20 0xFFFFFFFFFFFFFFFFFFFFFFFFFFFFFFFFFFFFFFFF AND PUSH20 0xFFFFFFFFFFFFFFFFFFFFFFFFFFFFFFFFFFFFFFFF AND DUP2 MSTORE PUSH1 0x20 ADD SWAP1 DUP2 MSTORE PUSH1 0x20 ADD PUSH1 0x0 KECCAK256 PUSH1 0x5 ADD DUP2 SWAP1 SSTORE POP PUSH1 0x0 PUSH1 0x1 PUSH1 0x0 DUP4 PUSH20 0xFFFFFFFFFFFFFFFFFFFFFFFFFFFFFFFFFFFFFFFF AND PUSH20 0xFFFFFFFFFFFFFFFFFFFFFFFFFFFFFFFFFFFFFFFF AND DUP2 MSTORE PUSH1 0x20 ADD SWAP1 DUP2 MSTORE PUSH1 0x20 ADD PUSH1 0x0 KECCAK256 PUSH1 0x6 ADD DUP2 SWAP1 SSTORE POP PUSH1 0x0 PUSH1 0x1 PUSH1 0x0 DUP4 PUSH20 0xFFFFFFFFFFFFFFFFFFFFFFFFFFFFFFFFFFFFFFFF AND PUSH20 0xFFFFFFFFFFFFFFFFFFFFFFFFFFFFFFFFFFFFFFFF AND DUP2 MSTORE PUSH1 0x20 ADD SWAP1 DUP2 MSTORE PUSH1 0x20 ADD PUSH1 0x0 KECCAK256 PUSH1 0x7 ADD DUP2 SWAP1 SSTORE POP POP JUMP JUMPDEST PUSH1 0x0 DUP1 ISZERO ISZERO PUSH1 0x1 PUSH1 0x0 DUP5 PUSH20 0xFFFFFFFFFFFFFFFFFFFFFFFFFFFFFFFFFFFFFFFF AND PUSH20 0xFFFFFFFFFFFFFFFFFFFFFFFFFFFFFFFFFFFFFFFF AND DUP2 MSTORE PUSH1 0x20 ADD SWAP1 DUP2 MSTORE PUSH1 0x20 ADD PUSH1 0x0 KECCAK256 PUSH1 0x3 ADD PUSH1 0x1 SWAP1 SLOAD SWAP1 PUSH2 0x100 EXP SWAP1 DIV PUSH1 0xFF AND ISZERO ISZERO EQ PUSH2 0x59E JUMPI PUSH1 0x40 MLOAD PUSH32 0x8C379A000000000000000000000000000000000000000000000000000000000 DUP2 MSTORE PUSH1 0x4 ADD PUSH2 0x595 SWAP1 PUSH2 0x1568 JUMP JUMPDEST PUSH1 0x40 MLOAD DUP1 SWAP2 SUB SWAP1 REVERT JUMPDEST PUSH1 0x0 PUSH2 0x62E PUSH1 0x1 PUSH1 0x0 DUP6 PUSH20 0xFFFFFFFFFFFFFFFFFFFFFFFFFFFFFFFFFFFFFFFF AND PUSH20 0xFFFFFFFFFFFFFFFFFFFFFFFFFFFFFFFFFFFFFFFF AND DUP2 MSTORE PUSH1 0x20 ADD SWAP1 DUP2 MSTORE PUSH1 0x20 ADD PUSH1 0x0 KECCAK256 PUSH1 0x6 ADD SLOAD PUSH1 0x1 PUSH1 0x0 DUP7 PUSH20 0xFFFFFFFFFFFFFFFFFFFFFFFFFFFFFFFFFFFFFFFF AND PUSH20 0xFFFFFFFFFFFFFFFFFFFFFFFFFFFFFFFFFFFFFFFF AND DUP2 MSTORE PUSH1 0x20 ADD SWAP1 DUP2 MSTORE PUSH1 0x20 ADD PUSH1 0x0 KECCAK256 PUSH1 0x7 ADD SLOAD PUSH2 0xDCD JUMP JUMPDEST SWAP1 POP PUSH1 0x0 PUSH1 0x3C DUP3 PUSH2 0x63F SWAP2 SWAP1 PUSH2 0x15B7 JUMP JUMPDEST SWAP1 POP DUP1 SWAP3 POP POP POP SWAP2 SWAP1 POP JUMP JUMPDEST PUSH1 0x40 MLOAD DUP1 PUSH2 0x120 ADD PUSH1 0x40 MSTORE DUP1 DUP11 PUSH20 0xFFFFFFFFFFFFFFFFFFFFFFFFFFFFFFFFFFFFFFFF AND DUP2 MSTORE PUSH1 0x20 ADD DUP10 DUP2 MSTORE PUSH1 0x20 ADD DUP9 DUP2 MSTORE PUSH1 0x20 ADD DUP8 ISZERO ISZERO DUP2 MSTORE PUSH1 0x20 ADD DUP7 ISZERO ISZERO DUP2 MSTORE PUSH1 0x20 ADD DUP6 DUP2 MSTORE PUSH1 0x20 ADD DUP5 DUP2 MSTORE PUSH1 0x20 ADD DUP4 DUP2 MSTORE PUSH1 0x20 ADD DUP3 DUP2 MSTORE POP PUSH1 0x1 PUSH1 0x0 DUP12 PUSH20 0xFFFFFFFFFFFFFFFFFFFFFFFFFFFFFFFFFFFFFFFF AND PUSH20 0xFFFFFFFFFFFFFFFFFFFFFFFFFFFFFFFFFFFFFFFF AND DUP2 MSTORE PUSH1 0x20 ADD SWAP1 DUP2 MSTORE PUSH1 0x20 ADD PUSH1 0x0 KECCAK256 PUSH1 0x0 DUP3 ADD MLOAD DUP2 PUSH1 0x0 ADD PUSH1 0x0 PUSH2 0x100 EXP DUP2 SLOAD DUP2 PUSH20 0xFFFFFFFFFFFFFFFFFFFFFFFFFFFFFFFFFFFFFFFF MUL NOT AND SWAP1 DUP4 PUSH20 0xFFFFFFFFFFFFFFFFFFFFFFFFFFFFFFFFFFFFFFFF AND MUL OR SWAP1 SSTORE POP PUSH1 0x20 DUP3 ADD MLOAD DUP2 PUSH1 0x1 ADD SWAP1 DUP2 PUSH2 0x740 SWAP2 SWAP1 PUSH2 0x17F4 JUMP JUMPDEST POP PUSH1 0x40 DUP3 ADD MLOAD DUP2 PUSH1 0x2 ADD SWAP1 DUP2 PUSH2 0x756 SWAP2 SWAP1 PUSH2 0x17F4 JUMP JUMPDEST POP PUSH1 0x60 DUP3 ADD MLOAD DUP2 PUSH1 0x3 ADD PUSH1 0x0 PUSH2 0x100 EXP DUP2 SLOAD DUP2 PUSH1 0xFF MUL NOT AND SWAP1 DUP4 ISZERO ISZERO MUL OR SWAP1 SSTORE POP PUSH1 0x80 DUP3 ADD MLOAD DUP2 PUSH1 0x3 ADD PUSH1 0x1 PUSH2 0x100 EXP DUP2 SLOAD DUP2 PUSH1 0xFF MUL NOT AND SWAP1 DUP4 ISZERO ISZERO MUL OR SWAP1 SSTORE POP PUSH1 0xA0 DUP3 ADD MLOAD DUP2 PUSH1 0x4 ADD SSTORE PUSH1 0xC0 DUP3 ADD MLOAD DUP2 PUSH1 0x5 ADD SSTORE PUSH1 0xE0 DUP3 ADD MLOAD DUP2 PUSH1 0x6 ADD SSTORE PUSH2 0x100 DUP3 ADD MLOAD DUP2 PUSH1 0x7 ADD SSTORE SWAP1 POP POP POP POP POP POP POP POP POP POP POP JUMP JUMPDEST PUSH1 0x1 PUSH1 0x20 MSTORE DUP1 PUSH1 0x0 MSTORE PUSH1 0x40 PUSH1 0x0 KECCAK256 PUSH1 0x0 SWAP2 POP SWAP1 POP DUP1 PUSH1 0x0 ADD PUSH1 0x0 SWAP1 SLOAD SWAP1 PUSH2 0x100 EXP SWAP1 DIV PUSH20 0xFFFFFFFFFFFFFFFFFFFFFFFFFFFFFFFFFFFFFFFF AND SWAP1 DUP1 PUSH1 0x1 ADD DUP1 SLOAD PUSH2 0x817 SWAP1 PUSH2 0x1617 JUMP JUMPDEST DUP1 PUSH1 0x1F ADD PUSH1 0x20 DUP1 SWAP2 DIV MUL PUSH1 0x20 ADD PUSH1 0x40 MLOAD SWAP1 DUP2 ADD PUSH1 0x40 MSTORE DUP1 SWAP3 SWAP2 SWAP1 DUP2 DUP2 MSTORE PUSH1 0x20 ADD DUP3 DUP1 SLOAD PUSH2 0x843 SWAP1 PUSH2 0x1617 JUMP JUMPDEST DUP1 ISZERO PUSH2 0x890 JUMPI DUP1 PUSH1 0x1F LT PUSH2 0x865 JUMPI PUSH2 0x100 DUP1 DUP4 SLOAD DIV MUL DUP4 MSTORE SWAP2 PUSH1 0x20 ADD SWAP2 PUSH2 0x890 JUMP JUMPDEST DUP3 ADD SWAP2 SWAP1 PUSH1 0x0 MSTORE PUSH1 0x20 PUSH1 0x0 KECCAK256 SWAP1 JUMPDEST DUP2 SLOAD DUP2 MSTORE SWAP1 PUSH1 0x1 ADD SWAP1 PUSH1 0x20 ADD DUP1 DUP4 GT PUSH2 0x873 JUMPI DUP3 SWAP1 SUB PUSH1 0x1F AND DUP3 ADD SWAP2 JUMPDEST POP POP POP POP POP SWAP1 DUP1 PUSH1 0x2 ADD DUP1 SLOAD PUSH2 0x8A5 SWAP1 PUSH2 0x1617 JUMP JUMPDEST DUP1 PUSH1 0x1F ADD PUSH1 0x20 DUP1 SWAP2 DIV MUL PUSH1 0x20 ADD PUSH1 0x40 MLOAD SWAP1 DUP2 ADD PUSH1 0x40 MSTORE DUP1 SWAP3 SWAP2 SWAP1 DUP2 DUP2 MSTORE PUSH1 0x20 ADD DUP3 DUP1 SLOAD PUSH2 0x8D1 SWAP1 PUSH2 0x1617 JUMP JUMPDEST DUP1 ISZERO PUSH2 0x91E JUMPI DUP1 PUSH1 0x1F LT PUSH2 0x8F3 JUMPI PUSH2 0x100 DUP1 DUP4 SLOAD DIV MUL DUP4 MSTORE SWAP2 PUSH1 0x20 ADD SWAP2 PUSH2 0x91E JUMP JUMPDEST DUP3 ADD SWAP2 SWAP1 PUSH1 0x0 MSTORE PUSH1 0x20 PUSH1 0x0 KECCAK256 SWAP1 JUMPDEST DUP2 SLOAD DUP2 MSTORE SWAP1 PUSH1 0x1 ADD SWAP1 PUSH1 0x20 ADD DUP1 DUP4 GT PUSH2 0x901 JUMPI DUP3 SWAP1 SUB PUSH1 0x1F AND DUP3 ADD SWAP2 JUMPDEST POP POP POP POP POP SWAP1 DUP1 PUSH1 0x3 ADD PUSH1 0x0 SWAP1 SLOAD SWAP1 PUSH2 0x100 EXP SWAP1 DIV PUSH1 0xFF AND SWAP1 DUP1 PUSH1 0x3 ADD PUSH1 0x1 SWAP1 SLOAD SWAP1 PUSH2 0x100 EXP SWAP1 DIV PUSH1 0xFF AND SWAP1 DUP1 PUSH1 0x4 ADD SLOAD SWAP1 DUP1 PUSH1 0x5 ADD SLOAD SWAP1 DUP1 PUSH1 0x6 ADD SLOAD SWAP1 DUP1 PUSH1 0x7 ADD SLOAD SWAP1 POP DUP10 JUMP JUMPDEST PUSH1 0x0 SELFBALANCE SWAP1 POP SWAP1 JUMP JUMPDEST PUSH1 0x0 PUSH1 0x1 PUSH1 0x0 DUP4 PUSH20 0xFFFFFFFFFFFFFFFFFFFFFFFFFFFFFFFFFFFFFFFF AND PUSH20 0xFFFFFFFFFFFFFFFFFFFFFFFFFFFFFFFFFFFFFFFF AND DUP2 MSTORE PUSH1 0x20 ADD SWAP1 DUP2 MSTORE PUSH1 0x20 ADD PUSH1 0x0 KECCAK256 PUSH1 0x5 ADD SLOAD EQ PUSH2 0x9F3 JUMPI PUSH1 0x40 MLOAD PUSH32 0x8C379A000000000000000000000000000000000000000000000000000000000 DUP2 MSTORE PUSH1 0x4 ADD PUSH2 0x9EA SWAP1 PUSH2 0x1912 JUMP JUMPDEST PUSH1 0x40 MLOAD DUP1 SWAP2 SUB SWAP1 REVERT JUMPDEST PUSH1 0x1 ISZERO ISZERO PUSH1 0x1 PUSH1 0x0 DUP4 PUSH20 0xFFFFFFFFFFFFFFFFFFFFFFFFFFFFFFFFFFFFFFFF AND PUSH20 0xFFFFFFFFFFFFFFFFFFFFFFFFFFFFFFFFFFFFFFFF AND DUP2 MSTORE PUSH1 0x20 ADD SWAP1 DUP2 MSTORE PUSH1 0x20 ADD PUSH1 0x0 KECCAK256 PUSH1 0x3 ADD PUSH1 0x0 SWAP1 SLOAD SWAP1 PUSH2 0x100 EXP SWAP1 DIV PUSH1 0xFF AND ISZERO ISZERO EQ PUSH2 0xA89 JUMPI PUSH1 0x40 MLOAD PUSH32 0x8C379A000000000000000000000000000000000000000000000000000000000 DUP2 MSTORE PUSH1 0x4 ADD PUSH2 0xA80 SWAP1 PUSH2 0x197E JUMP JUMPDEST PUSH1 0x40 MLOAD DUP1 SWAP2 SUB SWAP1 REVERT JUMPDEST PUSH1 0x1 DUP1 PUSH1 0x0 DUP4 PUSH20 0xFFFFFFFFFFFFFFFFFFFFFFFFFFFFFFFFFFFFFFFF AND PUSH20 0xFFFFFFFFFFFFFFFFFFFFFFFFFFFFFFFFFFFFFFFF AND DUP2 MSTORE PUSH1 0x20 ADD SWAP1 DUP2 MSTORE PUSH1 0x20 ADD PUSH1 0x0 KECCAK256 PUSH1 0x3 ADD PUSH1 0x1 PUSH2 0x100 EXP DUP2 SLOAD DUP2 PUSH1 0xFF MUL NOT AND SWAP1 DUP4 ISZERO ISZERO MUL OR SWAP1 SSTORE POP TIMESTAMP PUSH1 0x1 PUSH1 0x0 DUP4 PUSH20 0xFFFFFFFFFFFFFFFFFFFFFFFFFFFFFFFFFFFFFFFF AND PUSH20 0xFFFFFFFFFFFFFFFFFFFFFFFFFFFFFFFFFFFFFFFF AND DUP2 MSTORE PUSH1 0x20 ADD SWAP1 DUP2 MSTORE PUSH1 0x20 ADD PUSH1 0x0 KECCAK256 PUSH1 0x6 ADD DUP2 SWAP1 SSTORE POP PUSH1 0x0 PUSH1 0x1 PUSH1 0x0 DUP4 PUSH20 0xFFFFFFFFFFFFFFFFFFFFFFFFFFFFFFFFFFFFFFFF AND PUSH20 0xFFFFFFFFFFFFFFFFFFFFFFFFFFFFFFFFFFFFFFFF AND DUP2 MSTORE PUSH1 0x20 ADD SWAP1 DUP2 MSTORE PUSH1 0x20 ADD PUSH1 0x0 KECCAK256 PUSH1 0x3 ADD PUSH1 0x0 PUSH2 0x100 EXP DUP2 SLOAD DUP2 PUSH1 0xFF MUL NOT AND SWAP1 DUP4 ISZERO ISZERO MUL OR SWAP1 SSTORE POP POP JUMP JUMPDEST PUSH1 0x0 PUSH1 0x1 PUSH1 0x0 DUP4 PUSH20 0xFFFFFFFFFFFFFFFFFFFFFFFFFFFFFFFFFFFFFFFF AND PUSH20 0xFFFFFFFFFFFFFFFFFFFFFFFFFFFFFFFFFFFFFFFF AND DUP2 MSTORE PUSH1 0x20 ADD SWAP1 DUP2 MSTORE PUSH1 0x20 ADD PUSH1 0x0 KECCAK256 PUSH1 0x4 ADD SLOAD SWAP1 POP SWAP2 SWAP1 POP JUMP JUMPDEST PUSH1 0x0 PUSH1 0x1 PUSH1 0x0 DUP4 PUSH20 0xFFFFFFFFFFFFFFFFFFFFFFFFFFFFFFFFFFFFFFFF AND PUSH20 0xFFFFFFFFFFFFFFFFFFFFFFFFFFFFFFFFFFFFFFFF AND DUP2 MSTORE PUSH1 0x20 ADD SWAP1 DUP2 MSTORE PUSH1 0x20 ADD PUSH1 0x0 KECCAK256 PUSH1 0x3 ADD PUSH1 0x0 SWAP1 SLOAD SWAP1 PUSH2 0x100 EXP SWAP1 DIV PUSH1 0xFF AND SWAP1 POP SWAP2 SWAP1 POP JUMP JUMPDEST PUSH1 0x1 ISZERO ISZERO PUSH1 0x1 PUSH1 0x0 DUP4 PUSH20 0xFFFFFFFFFFFFFFFFFFFFFFFFFFFFFFFFFFFFFFFF AND PUSH20 0xFFFFFFFFFFFFFFFFFFFFFFFFFFFFFFFFFFFFFFFF AND DUP2 MSTORE PUSH1 0x20 ADD SWAP1 DUP2 MSTORE PUSH1 0x20 ADD PUSH1 0x0 KECCAK256 PUSH1 0x3 ADD PUSH1 0x1 SWAP1 SLOAD SWAP1 PUSH2 0x100 EXP SWAP1 DIV PUSH1 0xFF AND ISZERO ISZERO EQ PUSH2 0xCC3 JUMPI PUSH1 0x40 MLOAD PUSH32 0x8C379A000000000000000000000000000000000000000000000000000000000 DUP2 MSTORE PUSH1 0x4 ADD PUSH2 0xCBA SWAP1 PUSH2 0x19EA JUMP JUMPDEST PUSH1 0x40 MLOAD DUP1 SWAP2 SUB SWAP1 REVERT JUMPDEST PUSH1 0x0 PUSH1 0x1 PUSH1 0x0 DUP4 PUSH20 0xFFFFFFFFFFFFFFFFFFFFFFFFFFFFFFFFFFFFFFFF AND PUSH20 0xFFFFFFFFFFFFFFFFFFFFFFFFFFFFFFFFFFFFFFFF AND DUP2 MSTORE PUSH1 0x20 ADD SWAP1 DUP2 MSTORE PUSH1 0x20 ADD PUSH1 0x0 KECCAK256 PUSH1 0x3 ADD PUSH1 0x1 PUSH2 0x100 EXP DUP2 SLOAD DUP2 PUSH1 0xFF MUL NOT AND SWAP1 DUP4 ISZERO ISZERO MUL OR SWAP1 SSTORE POP TIMESTAMP PUSH1 0x1 PUSH1 0x0 DUP4 PUSH20 0xFFFFFFFFFFFFFFFFFFFFFFFFFFFFFFFFFFFFFFFF AND PUSH20 0xFFFFFFFFFFFFFFFFFFFFFFFFFFFFFFFFFFFFFFFF AND DUP2 MSTORE PUSH1 0x20 ADD SWAP1 DUP2 MSTORE PUSH1 0x20 ADD PUSH1 0x0 KECCAK256 PUSH1 0x7 ADD DUP2 SWAP1 SSTORE POP PUSH2 0xD6E DUP2 PUSH2 0xDE3 JUMP JUMPDEST POP JUMP JUMPDEST CALLVALUE PUSH1 0x1 PUSH1 0x0 DUP4 PUSH20 0xFFFFFFFFFFFFFFFFFFFFFFFFFFFFFFFFFFFFFFFF AND PUSH20 0xFFFFFFFFFFFFFFFFFFFFFFFFFFFFFFFFFFFFFFFF AND DUP2 MSTORE PUSH1 0x20 ADD SWAP1 DUP2 MSTORE PUSH1 0x20 ADD PUSH1 0x0 KECCAK256 PUSH1 0x4 ADD PUSH1 0x0 DUP3 DUP3 SLOAD PUSH2 0xDC3 SWAP2 SWAP1 PUSH2 0x1A0A JUMP JUMPDEST SWAP3 POP POP DUP2 SWAP1 SSTORE POP POP JUMP JUMPDEST PUSH1 0x0 DUP3 DUP3 PUSH2 0xDDB SWAP2 SWAP1 PUSH2 0x14E8 JUMP JUMPDEST SWAP1 POP SWAP3 SWAP2 POP POP JUMP JUMPDEST PUSH1 0x0 PUSH2 0xDEE DUP3 PUSH2 0x507 JUMP JUMPDEST SWAP1 POP PUSH1 0x0 PUSH1 0x5 DUP3 PUSH2 0xDFF SWAP2 SWAP1 PUSH2 0x15B7 JUMP JUMPDEST SWAP1 POP PUSH7 0x11C37937E08000 DUP2 PUSH2 0xE14 SWAP2 SWAP1 PUSH2 0x1A3E JUMP JUMPDEST PUSH1 0x1 PUSH1 0x0 DUP6 PUSH20 0xFFFFFFFFFFFFFFFFFFFFFFFFFFFFFFFFFFFFFFFF AND PUSH20 0xFFFFFFFFFFFFFFFFFFFFFFFFFFFFFFFFFFFFFFFF AND DUP2 MSTORE PUSH1 0x20 ADD SWAP1 DUP2 MSTORE PUSH1 0x20 ADD PUSH1 0x0 KECCAK256 PUSH1 0x5 ADD DUP2 SWAP1 SSTORE POP POP POP POP JUMP JUMPDEST PUSH1 0x0 PUSH1 0x40 MLOAD SWAP1 POP SWAP1 JUMP JUMPDEST PUSH1 0x0 DUP1 REVERT JUMPDEST PUSH1 0x0 DUP1 REVERT JUMPDEST PUSH1 0x0 PUSH20 0xFFFFFFFFFFFFFFFFFFFFFFFFFFFFFFFFFFFFFFFF DUP3 AND SWAP1 POP SWAP2 SWAP1 POP JUMP JUMPDEST PUSH1 0x0 PUSH2 0xE9E DUP3 PUSH2 0xE73 JUMP JUMPDEST SWAP1 POP SWAP2 SWAP1 POP JUMP JUMPDEST PUSH2 0xEAE DUP2 PUSH2 0xE93 JUMP JUMPDEST DUP2 EQ PUSH2 0xEB9 JUMPI PUSH1 0x0 DUP1 REVERT JUMPDEST POP JUMP JUMPDEST PUSH1 0x0 DUP2 CALLDATALOAD SWAP1 POP PUSH2 0xECB DUP2 PUSH2 0xEA5 JUMP JUMPDEST SWAP3 SWAP2 POP POP JUMP JUMPDEST PUSH1 0x0 PUSH1 0x20 DUP3 DUP5 SUB SLT ISZERO PUSH2 0xEE7 JUMPI PUSH2 0xEE6 PUSH2 0xE69 JUMP JUMPDEST JUMPDEST PUSH1 0x0 PUSH2 0xEF5 DUP5 DUP3 DUP6 ADD PUSH2 0xEBC JUMP JUMPDEST SWAP2 POP POP SWAP3 SWAP2 POP POP JUMP JUMPDEST PUSH1 0x0 DUP2 SWAP1 POP SWAP2 SWAP1 POP JUMP JUMPDEST PUSH2 0xF11 DUP2 PUSH2 0xEFE JUMP JUMPDEST DUP3 MSTORE POP POP JUMP JUMPDEST PUSH1 0x0 PUSH1 0x20 DUP3 ADD SWAP1 POP PUSH2 0xF2C PUSH1 0x0 DUP4 ADD DUP5 PUSH2 0xF08 JUMP JUMPDEST SWAP3 SWAP2 POP POP JUMP JUMPDEST PUSH1 0x0 PUSH2 0xF3D DUP3 PUSH2 0xE73 JUMP JUMPDEST SWAP1 POP SWAP2 SWAP1 POP JUMP JUMPDEST PUSH2 0xF4D DUP2 PUSH2 0xF32 JUMP JUMPDEST DUP2 EQ PUSH2 0xF58 JUMPI PUSH1 0x0 DUP1 REVERT JUMPDEST POP JUMP JUMPDEST PUSH1 0x0 DUP2 CALLDATALOAD SWAP1 POP PUSH2 0xF6A DUP2 PUSH2 0xF44 JUMP JUMPDEST SWAP3 SWAP2 POP POP JUMP JUMPDEST PUSH1 0x0 DUP1 REVERT JUMPDEST PUSH1 0x0 DUP1 REVERT JUMPDEST PUSH1 0x0 PUSH1 0x1F NOT PUSH1 0x1F DUP4 ADD AND SWAP1 POP SWAP2 SWAP1 POP JUMP JUMPDEST PUSH32 0x4E487B7100000000000000000000000000000000000000000000000000000000 PUSH1 0x0 MSTORE PUSH1 0x41 PUSH1 0x4 MSTORE PUSH1 0x24 PUSH1 0x0 REVERT JUMPDEST PUSH2 0xFC3 DUP3 PUSH2 0xF7A JUMP JUMPDEST DUP2 ADD DUP2 DUP2 LT PUSH8 0xFFFFFFFFFFFFFFFF DUP3 GT OR ISZERO PUSH2 0xFE2 JUMPI PUSH2 0xFE1 PUSH2 0xF8B JUMP JUMPDEST JUMPDEST DUP1 PUSH1 0x40 MSTORE POP POP POP JUMP JUMPDEST PUSH1 0x0 PUSH2 0xFF5 PUSH2 0xE5F JUMP JUMPDEST SWAP1 POP PUSH2 0x1001 DUP3 DUP3 PUSH2 0xFBA JUMP JUMPDEST SWAP2 SWAP1 POP JUMP JUMPDEST PUSH1 0x0 PUSH8 0xFFFFFFFFFFFFFFFF DUP3 GT ISZERO PUSH2 0x1021 JUMPI PUSH2 0x1020 PUSH2 0xF8B JUMP JUMPDEST JUMPDEST PUSH2 0x102A DUP3 PUSH2 0xF7A JUMP JUMPDEST SWAP1 POP PUSH1 0x20 DUP2 ADD SWAP1 POP SWAP2 SWAP1 POP JUMP JUMPDEST DUP3 DUP2 DUP4 CALLDATACOPY PUSH1 0x0 DUP4 DUP4 ADD MSTORE POP POP POP JUMP JUMPDEST PUSH1 0x0 PUSH2 0x1059 PUSH2 0x1054 DUP5 PUSH2 0x1006 JUMP JUMPDEST PUSH2 0xFEB JUMP JUMPDEST SWAP1 POP DUP3 DUP2 MSTORE PUSH1 0x20 DUP2 ADD DUP5 DUP5 DUP5 ADD GT ISZERO PUSH2 0x1075 JUMPI PUSH2 0x1074 PUSH2 0xF75 JUMP JUMPDEST JUMPDEST PUSH2 0x1080 DUP5 DUP3 DUP6 PUSH2 0x1037 JUMP JUMPDEST POP SWAP4 SWAP3 POP POP POP JUMP JUMPDEST PUSH1 0x0 DUP3 PUSH1 0x1F DUP4 ADD SLT PUSH2 0x109D JUMPI PUSH2 0x109C PUSH2 0xF70 JUMP JUMPDEST JUMPDEST DUP2 CALLDATALOAD PUSH2 0x10AD DUP5 DUP3 PUSH1 0x20 DUP7 ADD PUSH2 0x1046 JUMP JUMPDEST SWAP2 POP POP SWAP3 SWAP2 POP POP JUMP JUMPDEST PUSH1 0x0 DUP2 ISZERO ISZERO SWAP1 POP SWAP2 SWAP1 POP JUMP JUMPDEST PUSH2 0x10CB DUP2 PUSH2 0x10B6 JUMP JUMPDEST DUP2 EQ PUSH2 0x10D6 JUMPI PUSH1 0x0 DUP1 REVERT JUMPDEST POP JUMP JUMPDEST PUSH1 0x0 DUP2 CALLDATALOAD SWAP1 POP PUSH2 0x10E8 DUP2 PUSH2 0x10C2 JUMP JUMPDEST SWAP3 SWAP2 POP POP JUMP JUMPDEST PUSH2 0x10F7 DUP2 PUSH2 0xEFE JUMP JUMPDEST DUP2 EQ PUSH2 0x1102 JUMPI PUSH1 0x0 DUP1 REVERT JUMPDEST POP JUMP JUMPDEST PUSH1 0x0 DUP2 CALLDATALOAD SWAP1 POP PUSH2 0x1114 DUP2 PUSH2 0x10EE JUMP JUMPDEST SWAP3 SWAP2 POP POP JUMP JUMPDEST PUSH1 0x0 DUP1 PUSH1 0x0 DUP1 PUSH1 0x0 DUP1 PUSH1 0x0 DUP1 PUSH1 0x0 PUSH2 0x120 DUP11 DUP13 SUB SLT ISZERO PUSH2 0x113D JUMPI PUSH2 0x113C PUSH2 0xE69 JUMP JUMPDEST JUMPDEST PUSH1 0x0 PUSH2 0x114B DUP13 DUP3 DUP14 ADD PUSH2 0xF5B JUMP JUMPDEST SWAP10 POP POP PUSH1 0x20 DUP11 ADD CALLDATALOAD PUSH8 0xFFFFFFFFFFFFFFFF DUP2 GT ISZERO PUSH2 0x116C JUMPI PUSH2 0x116B PUSH2 0xE6E JUMP JUMPDEST JUMPDEST PUSH2 0x1178 DUP13 DUP3 DUP14 ADD PUSH2 0x1088 JUMP JUMPDEST SWAP9 POP POP PUSH1 0x40 DUP11 ADD CALLDATALOAD PUSH8 0xFFFFFFFFFFFFFFFF DUP2 GT ISZERO PUSH2 0x1199 JUMPI PUSH2 0x1198 PUSH2 0xE6E JUMP JUMPDEST JUMPDEST PUSH2 0x11A5 DUP13 DUP3 DUP14 ADD PUSH2 0x1088 JUMP JUMPDEST SWAP8 POP POP PUSH1 0x60 PUSH2 0x11B6 DUP13 DUP3 DUP14 ADD PUSH2 0x10D9 JUMP JUMPDEST SWAP7 POP POP PUSH1 0x80 PUSH2 0x11C7 DUP13 DUP3 DUP14 ADD PUSH2 0x10D9 JUMP JUMPDEST SWAP6 POP POP PUSH1 0xA0 PUSH2 0x11D8 DUP13 DUP3 DUP14 ADD PUSH2 0x1105 JUMP JUMPDEST SWAP5 POP POP PUSH1 0xC0 PUSH2 0x11E9 DUP13 DUP3 DUP14 ADD PUSH2 0x1105 JUMP JUMPDEST SWAP4 POP POP PUSH1 0xE0 PUSH2 0x11FA DUP13 DUP3 DUP14 ADD PUSH2 0x1105 JUMP JUMPDEST SWAP3 POP POP PUSH2 0x100 PUSH2 0x120C DUP13 DUP3 DUP14 ADD PUSH2 0x1105 JUMP JUMPDEST SWAP2 POP POP SWAP3 SWAP6 SWAP9 POP SWAP3 SWAP6 SWAP9 POP SWAP3 SWAP6 SWAP9 JUMP JUMPDEST PUSH2 0x1225 DUP2 PUSH2 0xF32 JUMP JUMPDEST DUP3 MSTORE POP POP JUMP JUMPDEST PUSH1 0x0 DUP2 MLOAD SWAP1 POP SWAP2 SWAP1 POP JUMP JUMPDEST PUSH1 0x0 DUP3 DUP3 MSTORE PUSH1 0x20 DUP3 ADD SWAP1 POP SWAP3 SWAP2 POP POP JUMP JUMPDEST PUSH1 0x0 JUMPDEST DUP4 DUP2 LT ISZERO PUSH2 0x1265 JUMPI DUP1 DUP3 ADD MLOAD DUP2 DUP5 ADD MSTORE PUSH1 0x20 DUP2 ADD SWAP1 POP PUSH2 0x124A JUMP JUMPDEST PUSH1 0x0 DUP5 DUP5 ADD MSTORE POP POP POP POP JUMP JUMPDEST PUSH1 0x0 PUSH2 0x127C DUP3 PUSH2 0x122B JUMP JUMPDEST PUSH2 0x1286 DUP2 DUP6 PUSH2 0x1236 JUMP JUMPDEST SWAP4 POP PUSH2 0x1296 DUP2 DUP6 PUSH1 0x20 DUP7 ADD PUSH2 0x1247 JUMP JUMPDEST PUSH2 0x129F DUP2 PUSH2 0xF7A JUMP JUMPDEST DUP5 ADD SWAP2 POP POP SWAP3 SWAP2 POP POP JUMP JUMPDEST PUSH2 0x12B3 DUP2 PUSH2 0x10B6 JUMP JUMPDEST DUP3 MSTORE POP POP JUMP JUMPDEST PUSH1 0x0 PUSH2 0x120 DUP3 ADD SWAP1 POP PUSH2 0x12CF PUSH1 0x0 DUP4 ADD DUP13 PUSH2 0x121C JUMP JUMPDEST DUP2 DUP2 SUB PUSH1 0x20 DUP4 ADD MSTORE PUSH2 0x12E1 DUP2 DUP12 PUSH2 0x1271 JUMP JUMPDEST SWAP1 POP DUP2 DUP2 SUB PUSH1 0x40 DUP4 ADD MSTORE PUSH2 0x12F5 DUP2 DUP11 PUSH2 0x1271 JUMP JUMPDEST SWAP1 POP PUSH2 0x1304 PUSH1 0x60 DUP4 ADD DUP10 PUSH2 0x12AA JUMP JUMPDEST PUSH2 0x1311 PUSH1 0x80 DUP4 ADD DUP9 PUSH2 0x12AA JUMP JUMPDEST PUSH2 0x131E PUSH1 0xA0 DUP4 ADD DUP8 PUSH2 0xF08 JUMP JUMPDEST PUSH2 0x132B PUSH1 0xC0 DUP4 ADD DUP7 PUSH2 0xF08 JUMP JUMPDEST PUSH2 0x1338 PUSH1 0xE0 DUP4 ADD DUP6 PUSH2 0xF08 JUMP JUMPDEST PUSH2 0x1346 PUSH2 0x100 DUP4 ADD DUP5 PUSH2 0xF08 JUMP JUMPDEST SWAP11 SWAP10 POP POP POP POP POP POP POP POP POP POP JUMP JUMPDEST PUSH1 0x0 PUSH1 0x20 DUP3 ADD SWAP1 POP PUSH2 0x1369 PUSH1 0x0 DUP4 ADD DUP5 PUSH2 0x12AA JUMP JUMPDEST SWAP3 SWAP2 POP POP JUMP JUMPDEST PUSH32 0x596F7520646F206E6F74206861766520616E797468696E672064756520617420 PUSH1 0x0 DUP3 ADD MSTORE PUSH32 0x746869732074696D652E00000000000000000000000000000000000000000000 PUSH1 0x20 DUP3 ADD MSTORE POP JUMP JUMPDEST PUSH1 0x0 PUSH2 0x13CB PUSH1 0x2A DUP4 PUSH2 0x1236 JUMP JUMPDEST SWAP2 POP PUSH2 0x13D6 DUP3 PUSH2 0x136F JUMP JUMPDEST PUSH1 0x40 DUP3 ADD SWAP1 POP SWAP2 SWAP1 POP JUMP JUMPDEST PUSH1 0x0 PUSH1 0x20 DUP3 ADD SWAP1 POP DUP2 DUP2 SUB PUSH1 0x0 DUP4 ADD MSTORE PUSH2 0x13FA DUP2 PUSH2 0x13BE JUMP JUMPDEST SWAP1 POP SWAP2 SWAP1 POP JUMP JUMPDEST PUSH32 0x596F7520646F206E6F74206861766520656E6F7567682066756E647320746F20 PUSH1 0x0 DUP3 ADD MSTORE PUSH32 0x636F766572207061796D656E742E20506C65617365206D616B65206120646570 PUSH1 0x20 DUP3 ADD MSTORE PUSH32 0x6F7369742E000000000000000000000000000000000000000000000000000000 PUSH1 0x40 DUP3 ADD MSTORE POP JUMP JUMPDEST PUSH1 0x0 PUSH2 0x1483 PUSH1 0x45 DUP4 PUSH2 0x1236 JUMP JUMPDEST SWAP2 POP PUSH2 0x148E DUP3 PUSH2 0x1401 JUMP JUMPDEST PUSH1 0x60 DUP3 ADD SWAP1 POP SWAP2 SWAP1 POP JUMP JUMPDEST PUSH1 0x0 PUSH1 0x20 DUP3 ADD SWAP1 POP DUP2 DUP2 SUB PUSH1 0x0 DUP4 ADD MSTORE PUSH2 0x14B2 DUP2 PUSH2 0x1476 JUMP JUMPDEST SWAP1 POP SWAP2 SWAP1 POP JUMP JUMPDEST PUSH32 0x4E487B7100000000000000000000000000000000000000000000000000000000 PUSH1 0x0 MSTORE PUSH1 0x11 PUSH1 0x4 MSTORE PUSH1 0x24 PUSH1 0x0 REVERT JUMPDEST PUSH1 0x0 PUSH2 0x14F3 DUP3 PUSH2 0xEFE JUMP JUMPDEST SWAP2 POP PUSH2 0x14FE DUP4 PUSH2 0xEFE JUMP JUMPDEST SWAP3 POP DUP3 DUP3 SUB SWAP1 POP DUP2 DUP2 GT ISZERO PUSH2 0x1516 JUMPI PUSH2 0x1515 PUSH2 0x14B9 JUMP JUMPDEST JUMPDEST SWAP3 SWAP2 POP POP JUMP JUMPDEST PUSH32 0x4361722069732063757272656E746C7920636865636B6564206F75742E000000 PUSH1 0x0 DUP3 ADD MSTORE POP JUMP JUMPDEST PUSH1 0x0 PUSH2 0x1552 PUSH1 0x1D DUP4 PUSH2 0x1236 JUMP JUMPDEST SWAP2 POP PUSH2 0x155D DUP3 PUSH2 0x151C JUMP JUMPDEST PUSH1 0x20 DUP3 ADD SWAP1 POP SWAP2 SWAP1 POP JUMP JUMPDEST PUSH1 0x0 PUSH1 0x20 DUP3 ADD SWAP1 POP DUP2 DUP2 SUB PUSH1 0x0 DUP4 ADD MSTORE PUSH2 0x1581 DUP2 PUSH2 0x1545 JUMP JUMPDEST SWAP1 POP SWAP2 SWAP1 POP JUMP JUMPDEST PUSH32 0x4E487B7100000000000000000000000000000000000000000000000000000000 PUSH1 0x0 MSTORE PUSH1 0x12 PUSH1 0x4 MSTORE PUSH1 0x24 PUSH1 0x0 REVERT JUMPDEST PUSH1 0x0 PUSH2 0x15C2 DUP3 PUSH2 0xEFE JUMP JUMPDEST SWAP2 POP PUSH2 0x15CD DUP4 PUSH2 0xEFE JUMP JUMPDEST SWAP3 POP DUP3 PUSH2 0x15DD JUMPI PUSH2 0x15DC PUSH2 0x1588 JUMP JUMPDEST JUMPDEST DUP3 DUP3 DIV SWAP1 POP SWAP3 SWAP2 POP POP JUMP JUMPDEST PUSH32 0x4E487B7100000000000000000000000000000000000000000000000000000000 PUSH1 0x0 MSTORE PUSH1 0x22 PUSH1 0x4 MSTORE PUSH1 0x24 PUSH1 0x0 REVERT JUMPDEST PUSH1 0x0 PUSH1 0x2 DUP3 DIV SWAP1 POP PUSH1 0x1 DUP3 AND DUP1 PUSH2 0x162F JUMPI PUSH1 0x7F DUP3 AND SWAP2 POP JUMPDEST PUSH1 0x20 DUP3 LT DUP2 SUB PUSH2 0x1642 JUMPI PUSH2 0x1641 PUSH2 0x15E8 JUMP JUMPDEST JUMPDEST POP SWAP2 SWAP1 POP JUMP JUMPDEST PUSH1 0x0 DUP2 SWAP1 POP DUP2 PUSH1 0x0 MSTORE PUSH1 0x20 PUSH1 0x0 KECCAK256 SWAP1 POP SWAP2 SWAP1 POP JUMP JUMPDEST PUSH1 0x0 PUSH1 0x20 PUSH1 0x1F DUP4 ADD DIV SWAP1 POP SWAP2 SWAP1 POP JUMP JUMPDEST PUSH1 0x0 DUP3 DUP3 SHL SWAP1 POP SWAP3 SWAP2 POP POP JUMP JUMPDEST PUSH1 0x0 PUSH1 0x8 DUP4 MUL PUSH2 0x16AA PUSH32 0xFFFFFFFFFFFFFFFFFFFFFFFFFFFFFFFFFFFFFFFFFFFFFFFFFFFFFFFFFFFFFFFF DUP3 PUSH2 0x166D JUMP JUMPDEST PUSH2 0x16B4 DUP7 DUP4 PUSH2 0x166D JUMP JUMPDEST SWAP6 POP DUP1 NOT DUP5 AND SWAP4 POP DUP1 DUP7 AND DUP5 OR SWAP3 POP POP POP SWAP4 SWAP3 POP POP POP JUMP JUMPDEST PUSH1 0x0 DUP2 SWAP1 POP SWAP2 SWAP1 POP JUMP JUMPDEST PUSH1 0x0 PUSH2 0x16F1 PUSH2 0x16EC PUSH2 0x16E7 DUP5 PUSH2 0xEFE JUMP JUMPDEST PUSH2 0x16CC JUMP JUMPDEST PUSH2 0xEFE JUMP JUMPDEST SWAP1 POP SWAP2 SWAP1 POP JUMP JUMPDEST PUSH1 0x0 DUP2 SWAP1 POP SWAP2 SWAP1 POP JUMP JUMPDEST PUSH2 0x170B DUP4 PUSH2 0x16D6 JUMP JUMPDEST PUSH2 0x171F PUSH2 0x1717 DUP3 PUSH2 0x16F8 JUMP JUMPDEST DUP5 DUP5 SLOAD PUSH2 0x167A JUMP JUMPDEST DUP3 SSTORE POP POP POP POP JUMP JUMPDEST PUSH1 0x0 SWAP1 JUMP JUMPDEST PUSH2 0x1734 PUSH2 0x1727 JUMP JUMPDEST PUSH2 0x173F DUP2 DUP5 DUP5 PUSH2 0x1702 JUMP JUMPDEST POP POP POP JUMP JUMPDEST JUMPDEST DUP2 DUP2 LT ISZERO PUSH2 0x1763 JUMPI PUSH2 0x1758 PUSH1 0x0 DUP3 PUSH2 0x172C JUMP JUMPDEST PUSH1 0x1 DUP2 ADD SWAP1 POP PUSH2 0x1745 JUMP JUMPDEST POP POP JUMP JUMPDEST PUSH1 0x1F DUP3 GT ISZERO PUSH2 0x17A8 JUMPI PUSH2 0x1779 DUP2 PUSH2 0x1648 JUMP JUMPDEST PUSH2 0x1782 DUP5 PUSH2 0x165D JUMP JUMPDEST DUP2 ADD PUSH1 0x20 DUP6 LT ISZERO PUSH2 0x1791 JUMPI DUP2 SWAP1 POP JUMPDEST PUSH2 0x17A5 PUSH2 0x179D DUP6 PUSH2 0x165D JUMP JUMPDEST DUP4 ADD DUP3 PUSH2 0x1744 JUMP JUMPDEST POP POP JUMPDEST POP POP POP JUMP JUMPDEST PUSH1 0x0 DUP3 DUP3 SHR SWAP1 POP SWAP3 SWAP2 POP POP JUMP JUMPDEST PUSH1 0x0 PUSH2 0x17CB PUSH1 0x0 NOT DUP5 PUSH1 0x8 MUL PUSH2 0x17AD JUMP JUMPDEST NOT DUP1 DUP4 AND SWAP2 POP POP SWAP3 SWAP2 POP POP JUMP JUMPDEST PUSH1 0x0 PUSH2 0x17E4 DUP4 DUP4 PUSH2 0x17BA JUMP JUMPDEST SWAP2 POP DUP3 PUSH1 0x2 MUL DUP3 OR SWAP1 POP SWAP3 SWAP2 POP POP JUMP JUMPDEST PUSH2 0x17FD DUP3 PUSH2 0x122B JUMP JUMPDEST PUSH8 0xFFFFFFFFFFFFFFFF DUP2 GT ISZERO PUSH2 0x1816 JUMPI PUSH2 0x1815 PUSH2 0xF8B JUMP JUMPDEST JUMPDEST PUSH2 0x1820 DUP3 SLOAD PUSH2 0x1617 JUMP JUMPDEST PUSH2 0x182B DUP3 DUP3 DUP6 PUSH2 0x1767 JUMP JUMPDEST PUSH1 0x0 PUSH1 0x20 SWAP1 POP PUSH1 0x1F DUP4 GT PUSH1 0x1 DUP2 EQ PUSH2 0x185E JUMPI PUSH1 0x0 DUP5 ISZERO PUSH2 0x184C JUMPI DUP3 DUP8 ADD MLOAD SWAP1 POP JUMPDEST PUSH2 0x1856 DUP6 DUP3 PUSH2 0x17D8 JUMP JUMPDEST DUP7 SSTORE POP PUSH2 0x18BE JUMP JUMPDEST PUSH1 0x1F NOT DUP5 AND PUSH2 0x186C DUP7 PUSH2 0x1648 JUMP JUMPDEST PUSH1 0x0 JUMPDEST DUP3 DUP2 LT ISZERO PUSH2 0x1894 JUMPI DUP5 DUP10 ADD MLOAD DUP3 SSTORE PUSH1 0x1 DUP3 ADD SWAP2 POP PUSH1 0x20 DUP6 ADD SWAP5 POP PUSH1 0x20 DUP2 ADD SWAP1 POP PUSH2 0x186F JUMP JUMPDEST DUP7 DUP4 LT ISZERO PUSH2 0x18B1 JUMPI DUP5 DUP10 ADD MLOAD PUSH2 0x18AD PUSH1 0x1F DUP10 AND DUP3 PUSH2 0x17BA JUMP JUMPDEST DUP4 SSTORE POP JUMPDEST PUSH1 0x1 PUSH1 0x2 DUP9 MUL ADD DUP9 SSTORE POP POP POP JUMPDEST POP POP POP POP POP POP JUMP JUMPDEST PUSH32 0x596F75206861766520612070656E64696E672062616C616E63652E0000000000 PUSH1 0x0 DUP3 ADD MSTORE POP JUMP JUMPDEST PUSH1 0x0 PUSH2 0x18FC PUSH1 0x1B DUP4 PUSH2 0x1236 JUMP JUMPDEST SWAP2 POP PUSH2 0x1907 DUP3 PUSH2 0x18C6 JUMP JUMPDEST PUSH1 0x20 DUP3 ADD SWAP1 POP SWAP2 SWAP1 POP JUMP JUMPDEST PUSH1 0x0 PUSH1 0x20 DUP3 ADD SWAP1 POP DUP2 DUP2 SUB PUSH1 0x0 DUP4 ADD MSTORE PUSH2 0x192B DUP2 PUSH2 0x18EF JUMP JUMPDEST SWAP1 POP SWAP2 SWAP1 POP JUMP JUMPDEST PUSH32 0x596F752063616E6E6F742072656E7420617420746869732074696D652E000000 PUSH1 0x0 DUP3 ADD MSTORE POP JUMP JUMPDEST PUSH1 0x0 PUSH2 0x1968 PUSH1 0x1D DUP4 PUSH2 0x1236 JUMP JUMPDEST SWAP2 POP PUSH2 0x1973 DUP3 PUSH2 0x1932 JUMP JUMPDEST PUSH1 0x20 DUP3 ADD SWAP1 POP SWAP2 SWAP1 POP JUMP JUMPDEST PUSH1 0x0 PUSH1 0x20 DUP3 ADD SWAP1 POP DUP2 DUP2 SUB PUSH1 0x0 DUP4 ADD MSTORE PUSH2 0x1997 DUP2 PUSH2 0x195B JUMP JUMPDEST SWAP1 POP SWAP2 SWAP1 POP JUMP JUMPDEST PUSH32 0x506C6561736520636865636B206F7574206361722066697273742E0000000000 PUSH1 0x0 DUP3 ADD MSTORE POP JUMP JUMPDEST PUSH1 0x0 PUSH2 0x19D4 PUSH1 0x1B DUP4 PUSH2 0x1236 JUMP JUMPDEST SWAP2 POP PUSH2 0x19DF DUP3 PUSH2 0x199E JUMP JUMPDEST PUSH1 0x20 DUP3 ADD SWAP1 POP SWAP2 SWAP1 POP JUMP JUMPDEST PUSH1 0x0 PUSH1 0x20 DUP3 ADD SWAP1 POP DUP2 DUP2 SUB PUSH1 0x0 DUP4 ADD MSTORE PUSH2 0x1A03 DUP2 PUSH2 0x19C7 JUMP JUMPDEST SWAP1 POP SWAP2 SWAP1 POP JUMP JUMPDEST PUSH1 0x0 PUSH2 0x1A15 DUP3 PUSH2 0xEFE JUMP JUMPDEST SWAP2 POP PUSH2 0x1A20 DUP4 PUSH2 0xEFE JUMP JUMPDEST SWAP3 POP DUP3 DUP3 ADD SWAP1 POP DUP1 DUP3 GT ISZERO PUSH2 0x1A38 JUMPI PUSH2 0x1A37 PUSH2 0x14B9 JUMP JUMPDEST JUMPDEST SWAP3 SWAP2 POP POP JUMP JUMPDEST PUSH1 0x0 PUSH2 0x1A49 DUP3 PUSH2 0xEFE JUMP JUMPDEST SWAP2 POP PUSH2 0x1A54 DUP4 PUSH2 0xEFE JUMP JUMPDEST SWAP3 POP DUP3 DUP3 MUL PUSH2 0x1A62 DUP2 PUSH2 0xEFE JUMP JUMPDEST SWAP2 POP DUP3 DUP3 DIV DUP5 EQ DUP4 ISZERO OR PUSH2 0x1A79 JUMPI PUSH2 0x1A78 PUSH2 0x14B9 JUMP JUMPDEST JUMPDEST POP SWAP3 SWAP2 POP POP JUMP INVALID LOG2 PUSH5 0x6970667358 0x22 SLT KECCAK256 0x2B 0x29 SAR PUSH18 0xDD3AF71172C84C34E7E11C5EFFB11FFEA928 0xBE 0xC4 SHL 0x29 DUP9 MOD CALLCODE 0xDC 0xD5 0xC7 PUSH5 0x736F6C6343 STOP ADDMOD GT STOP CALLER "
				},
				"gasEstimates": {
					"creation": {
						"codeDepositCost": "1367600",
						"executionCost": "25690",
						"totalCost": "1393290"
					},
					"external": {
						"addRenter(address,string,string,bool,bool,uint256,uint256,uint256,uint256)": "infinite",
						"balanceOf()": "428",
						"balanceOfRenter(address)": "2869",
						"canRentCar(address)": "2933",
						"checkIn(address)": "infinite",
						"checkOut(address)": "75926",
						"deposit(address)": "infinite",
						"getTotalDuration(address)": "infinite",
						"makePayment(address)": "infinite",
						"renters(address)": "infinite"
					},
					"internal": {
						"renterTimespan(uint256,uint256)": "infinite",
						"setDue(address)": "infinite"
					}
				},
				"methodIdentifiers": {
					"addRenter(address,string,string,bool,bool,uint256,uint256,uint256,uint256)": "5e649727",
					"balanceOf()": "722713f7",
					"balanceOfRenter(address)": "aad1b617",
					"canRentCar(address)": "af6143d3",
					"checkIn(address)": "d9a59e33",
					"checkOut(address)": "8d23caa0",
					"deposit(address)": "f340fa01",
					"getTotalDuration(address)": "41ba6e89",
					"makePayment(address)": "300be4fc",
					"renters(address)": "644a1370"
				}
			},
			"storageLayout": {
				"storage": [
					{
						"astId": 3,
						"contract": "RentCar.sol:RentCar",
						"label": "owner",
						"offset": 0,
						"slot": "0",
						"type": "t_address"
					},
					{
						"astId": 36,
						"contract": "RentCar.sol:RentCar",
						"label": "renters",
						"offset": 0,
						"slot": "1",
						"type": "t_mapping(t_address,t_struct(Renter)31_storage)"
					}
				],
				"types": {
					"t_address": {
						"encoding": "inplace",
						"label": "address",
						"numberOfBytes": "20"
					},
					"t_address_payable": {
						"encoding": "inplace",
						"label": "address payable",
						"numberOfBytes": "20"
					},
					"t_bool": {
						"encoding": "inplace",
						"label": "bool",
						"numberOfBytes": "1"
					},
					"t_mapping(t_address,t_struct(Renter)31_storage)": {
						"encoding": "mapping",
						"key": "t_address",
						"label": "mapping(address => struct RentCar.Renter)",
						"numberOfBytes": "32",
						"value": "t_struct(Renter)31_storage"
					},
					"t_string_storage": {
						"encoding": "bytes",
						"label": "string",
						"numberOfBytes": "32"
					},
					"t_struct(Renter)31_storage": {
						"encoding": "inplace",
						"label": "struct RentCar.Renter",
						"members": [
							{
								"astId": 14,
								"contract": "RentCar.sol:RentCar",
								"label": "walletAddress",
								"offset": 0,
								"slot": "0",
								"type": "t_address_payable"
							},
							{
								"astId": 16,
								"contract": "RentCar.sol:RentCar",
								"label": "firstName",
								"offset": 0,
								"slot": "1",
								"type": "t_string_storage"
							},
							{
								"astId": 18,
								"contract": "RentCar.sol:RentCar",
								"label": "lastName",
								"offset": 0,
								"slot": "2",
								"type": "t_string_storage"
							},
							{
								"astId": 20,
								"contract": "RentCar.sol:RentCar",
								"label": "canRent",
								"offset": 0,
								"slot": "3",
								"type": "t_bool"
							},
							{
								"astId": 22,
								"contract": "RentCar.sol:RentCar",
								"label": "active",
								"offset": 1,
								"slot": "3",
								"type": "t_bool"
							},
							{
								"astId": 24,
								"contract": "RentCar.sol:RentCar",
								"label": "balance",
								"offset": 0,
								"slot": "4",
								"type": "t_uint256"
							},
							{
								"astId": 26,
								"contract": "RentCar.sol:RentCar",
								"label": "due",
								"offset": 0,
								"slot": "5",
								"type": "t_uint256"
							},
							{
								"astId": 28,
								"contract": "RentCar.sol:RentCar",
								"label": "start",
								"offset": 0,
								"slot": "6",
								"type": "t_uint256"
							},
							{
								"astId": 30,
								"contract": "RentCar.sol:RentCar",
								"label": "end",
								"offset": 0,
								"slot": "7",
								"type": "t_uint256"
							}
						],
						"numberOfBytes": "256"
					},
					"t_uint256": {
						"encoding": "inplace",
						"label": "uint256",
						"numberOfBytes": "32"
					}
				}
			},
			"userdoc": {
				"kind": "user",
				"methods": {},
				"version": 1
			}
		}
	}
}